{
  "_format": "hh-sol-artifact-1",
  "contractName": "LsLMSR",
  "sourceName": "contracts/LsLMSR.sol",
  "abi": [
    {
      "inputs": [
        {
          "internalType": "address",
          "name": "_ct",
          "type": "address"
        },
        {
          "internalType": "address",
          "name": "_token",
          "type": "address"
        }
      ],
      "stateMutability": "nonpayable",
      "type": "constructor"
    },
    {
      "anonymous": false,
      "inputs": [
        {
          "indexed": true,
          "internalType": "address",
          "name": "previousOwner",
          "type": "address"
        },
        {
          "indexed": true,
          "internalType": "address",
          "name": "newOwner",
          "type": "address"
        }
      ],
      "name": "OwnershipTransferred",
      "type": "event"
    },
    {
      "inputs": [
        {
          "internalType": "uint256",
          "name": "_outcome",
          "type": "uint256"
        },
        {
          "internalType": "int128",
          "name": "_amount",
          "type": "int128"
        }
      ],
      "name": "buy",
      "outputs": [
        {
          "internalType": "int128",
          "name": "_price",
          "type": "int128"
        }
      ],
      "stateMutability": "nonpayable",
      "type": "function"
    },
    {
      "inputs": [],
      "name": "cost",
      "outputs": [
        {
          "internalType": "int128",
          "name": "",
          "type": "int128"
        }
      ],
      "stateMutability": "view",
      "type": "function"
    },
    {
      "inputs": [
        {
          "internalType": "uint256",
          "name": "_outcome",
          "type": "uint256"
        },
        {
          "internalType": "int128",
          "name": "_amount",
          "type": "int128"
        }
      ],
      "name": "cost_after_buy",
      "outputs": [
        {
          "internalType": "int128",
          "name": "",
          "type": "int128"
        }
      ],
      "stateMutability": "view",
      "type": "function"
    },
    {
      "inputs": [
        {
          "internalType": "uint256",
          "name": "_outcome",
          "type": "uint256"
        }
      ],
      "name": "getPositionAndDustPositions",
      "outputs": [
        {
          "internalType": "uint256[]",
          "name": "",
          "type": "uint256[]"
        }
      ],
      "stateMutability": "view",
      "type": "function"
    },
    {
      "inputs": [
        {
          "internalType": "address",
          "name": "_token",
          "type": "address"
        },
        {
          "internalType": "uint256",
          "name": "_amount",
          "type": "uint256"
        }
      ],
      "name": "getTokenEth",
      "outputs": [
        {
          "internalType": "int128",
          "name": "",
          "type": "int128"
        }
      ],
      "stateMutability": "view",
      "type": "function"
    },
    {
      "inputs": [
        {
          "internalType": "address",
          "name": "_token",
          "type": "address"
        },
        {
          "internalType": "int128",
          "name": "_amount",
          "type": "int128"
        }
      ],
      "name": "getTokenWei",
      "outputs": [
        {
          "internalType": "uint256",
          "name": "",
          "type": "uint256"
        }
      ],
      "stateMutability": "view",
      "type": "function"
    },
    {
      "inputs": [],
      "name": "numOutcomes",
      "outputs": [
        {
          "internalType": "uint256",
          "name": "",
          "type": "uint256"
        }
      ],
      "stateMutability": "view",
      "type": "function"
    },
    {
      "inputs": [
        {
          "internalType": "address",
          "name": "operator",
          "type": "address"
        },
        {
          "internalType": "address",
          "name": "from",
          "type": "address"
        },
        {
          "internalType": "uint256[]",
          "name": "ids",
          "type": "uint256[]"
        },
        {
          "internalType": "uint256[]",
          "name": "values",
          "type": "uint256[]"
        },
        {
          "internalType": "bytes",
          "name": "data",
          "type": "bytes"
        }
      ],
      "name": "onERC1155BatchReceived",
      "outputs": [
        {
          "internalType": "bytes4",
          "name": "",
          "type": "bytes4"
        }
      ],
      "stateMutability": "nonpayable",
      "type": "function"
    },
    {
      "inputs": [
        {
          "internalType": "address",
          "name": "operator",
          "type": "address"
        },
        {
          "internalType": "address",
          "name": "from",
          "type": "address"
        },
        {
          "internalType": "uint256",
          "name": "id",
          "type": "uint256"
        },
        {
          "internalType": "uint256",
          "name": "value",
          "type": "uint256"
        },
        {
          "internalType": "bytes",
          "name": "data",
          "type": "bytes"
        }
      ],
      "name": "onERC1155Received",
      "outputs": [
        {
          "internalType": "bytes4",
          "name": "",
          "type": "bytes4"
        }
      ],
      "stateMutability": "nonpayable",
      "type": "function"
    },
    {
      "inputs": [],
      "name": "owner",
      "outputs": [
        {
          "internalType": "address",
          "name": "",
          "type": "address"
        }
      ],
      "stateMutability": "view",
      "type": "function"
    },
    {
      "inputs": [
        {
          "internalType": "uint256",
          "name": "_outcome",
          "type": "uint256"
        },
        {
          "internalType": "int128",
          "name": "_amount",
          "type": "int128"
        }
      ],
      "name": "price",
      "outputs": [
        {
          "internalType": "int128",
          "name": "",
          "type": "int128"
        }
      ],
      "stateMutability": "view",
      "type": "function"
    },
    {
      "inputs": [],
      "name": "renounceOwnership",
      "outputs": [],
      "stateMutability": "nonpayable",
      "type": "function"
    },
    {
      "inputs": [
        {
          "internalType": "address",
          "name": "_oracle",
          "type": "address"
        },
        {
          "internalType": "uint256",
          "name": "_numOutcomes",
          "type": "uint256"
        },
        {
          "internalType": "uint256",
          "name": "_subsidy",
          "type": "uint256"
        },
        {
          "internalType": "uint256",
          "name": "_overround",
          "type": "uint256"
        }
      ],
      "name": "setup",
      "outputs": [],
      "stateMutability": "nonpayable",
      "type": "function"
    },
    {
      "inputs": [
        {
          "internalType": "bytes4",
          "name": "interfaceId",
          "type": "bytes4"
        }
      ],
      "name": "supportsInterface",
      "outputs": [
        {
          "internalType": "bool",
          "name": "",
          "type": "bool"
        }
      ],
      "stateMutability": "view",
      "type": "function"
    },
    {
      "inputs": [],
      "name": "token",
      "outputs": [
        {
          "internalType": "address",
          "name": "",
          "type": "address"
        }
      ],
      "stateMutability": "view",
      "type": "function"
    },
    {
      "inputs": [
        {
          "internalType": "address",
          "name": "newOwner",
          "type": "address"
        }
      ],
      "name": "transferOwnership",
      "outputs": [],
      "stateMutability": "nonpayable",
      "type": "function"
    },
    {
      "inputs": [],
      "name": "withdraw",
      "outputs": [],
      "stateMutability": "nonpayable",
      "type": "function"
    }
  ],
  "bytecode": "0x60806040523480156200001157600080fd5b506040516200425138038062004251833981810160405260408110156200003757600080fd5b8101908080519060200190929190805190602001909291905050506000620000646200018c60201b60201c565b9050806000806101000a81548173ffffffffffffffffffffffffffffffffffffffff021916908373ffffffffffffffffffffffffffffffffffffffff1602179055508073ffffffffffffffffffffffffffffffffffffffff16600073ffffffffffffffffffffffffffffffffffffffff167f8be0079c531659141344cd1fd0a4f28419497f9722a3daafe3b4186f6b6457e060405160405180910390a35081600660006101000a81548173ffffffffffffffffffffffffffffffffffffffff021916908373ffffffffffffffffffffffffffffffffffffffff16021790555080600760006101000a81548173ffffffffffffffffffffffffffffffffffffffff021916908373ffffffffffffffffffffffffffffffffffffffff160217905550505062000194565b600033905090565b6140ad80620001a46000396000f3fe608060405234801561001057600080fd5b506004361061010b5760003560e01c80638d0a6cff116100a2578063f23a6e6111610071578063f23a6e61146105c4578063f2fde38b146106e3578063f3b145d214610727578063f76da1d914610789578063fc0c546a146107de5761010b565b80638d0a6cff146102ed5780638da5cb5b14610370578063bc197c81146103ba578063df7bd8fc1461056f5761010b565b806340088ee1116100de57806340088ee11461020b578063715018a6146102705780638062dd931461027a5780638767d64e146102cf5761010b565b806301ffc9a71461011057806310f8625a1461017557806313faede6146101dd5780633ccfd60b14610201575b600080fd5b61015b6004803603602081101561012657600080fd5b8101908080357bffffffffffffffffffffffffffffffffffffffffffffffffffffffff19169060200190929190505050610828565b604051808215151515815260200191505060405180910390f35b6101c16004803603604081101561018b57600080fd5b81019080803573ffffffffffffffffffffffffffffffffffffffff1690602001909291908035906020019092919050505061082f565b6040518082600f0b600f0b815260200191505060405180910390f35b6101e56108ce565b6040518082600f0b600f0b815260200191505060405180910390f35b610209610992565b005b61025a6004803603604081101561022157600080fd5b81019080803573ffffffffffffffffffffffffffffffffffffffff1690602001909291908035600f0b9060200190929190505050610f20565b6040518082815260200191505060405180910390f35b610278610fbf565b005b6102b36004803603604081101561029057600080fd5b81019080803590602001909291908035600f0b9060200190929190505050611147565b6040518082600f0b600f0b815260200191505060405180910390f35b6102d7611307565b6040518082815260200191505060405180910390f35b6103196004803603602081101561030357600080fd5b810190808035906020019092919050505061130d565b6040518080602001828103825283818151815260200191508051906020019060200280838360005b8381101561035c578082015181840152602081019050610341565b505050509050019250505060405180910390f35b6103786113e0565b604051808273ffffffffffffffffffffffffffffffffffffffff1673ffffffffffffffffffffffffffffffffffffffff16815260200191505060405180910390f35b61051b600480360360a08110156103d057600080fd5b81019080803573ffffffffffffffffffffffffffffffffffffffff169060200190929190803573ffffffffffffffffffffffffffffffffffffffff1690602001909291908035906020019064010000000081111561042d57600080fd5b82018360208201111561043f57600080fd5b8035906020019184602083028401116401000000008311171561046157600080fd5b90919293919293908035906020019064010000000081111561048257600080fd5b82018360208201111561049457600080fd5b803590602001918460208302840111640100000000831117156104b657600080fd5b9091929391929390803590602001906401000000008111156104d757600080fd5b8201836020820111156104e957600080fd5b8035906020019184600183028401116401000000008311171561050b57600080fd5b9091929391929390505050611409565b60405180827bffffffffffffffffffffffffffffffffffffffffffffffffffffffff19167bffffffffffffffffffffffffffffffffffffffffffffffffffffffff1916815260200191505060405180910390f35b6105a86004803603604081101561058557600080fd5b81019080803590602001909291908035600f0b9060200190929190505050611421565b6040518082600f0b600f0b815260200191505060405180910390f35b61068f600480360360a08110156105da57600080fd5b81019080803573ffffffffffffffffffffffffffffffffffffffff169060200190929190803573ffffffffffffffffffffffffffffffffffffffff16906020019092919080359060200190929190803590602001909291908035906020019064010000000081111561064b57600080fd5b82018360208201111561065d57600080fd5b8035906020019184600183028401116401000000008311171561067f57600080fd5b9091929391929390505050611446565b60405180827bffffffffffffffffffffffffffffffffffffffffffffffffffffffff19167bffffffffffffffffffffffffffffffffffffffffffffffffffffffff1916815260200191505060405180910390f35b610725600480360360208110156106f957600080fd5b81019080803573ffffffffffffffffffffffffffffffffffffffff16906020019092919050505061145c565b005b6107876004803603608081101561073d57600080fd5b81019080803573ffffffffffffffffffffffffffffffffffffffff169060200190929190803590602001909291908035906020019092919080359060200190929190505050611669565b005b6107c26004803603604081101561079f57600080fd5b81019080803590602001909291908035600f0b9060200190929190505050611cc5565b6040518082600f0b600f0b815260200191505060405180910390f35b6107e66127d2565b604051808273ffffffffffffffffffffffffffffffffffffffff1673ffffffffffffffffffffffffffffffffffffffff16815260200191505060405180910390f35b6000919050565b6000808373ffffffffffffffffffffffffffffffffffffffff1663313ce5676040518163ffffffff1660e01b815260040160206040518083038186803b15801561087857600080fd5b505afa15801561088c573d6000803e3d6000fd5b505050506040513d60208110156108a257600080fd5b810190808051906020019092919050505060ff1690506108c58382600a0a6127f8565b91505092915050565b600060011515600760149054906101000a900460ff161515146108f057600080fd5b600080600090505b60015481101561096a5761095b826109566109516002858154811061091957fe5b90600052602060002090600291828204019190066010029054906101000a9004600f0b600360009054906101000a9004600f0b612860565b6128e3565b61295c565b915080806001019150506108f8565b5061098c600360009054906101000a9004600f0b610987836129c3565b6129fd565b91505090565b60011515600760149054906101000a900460ff161515146109b257600080fd5b6109ba612a68565b73ffffffffffffffffffffffffffffffffffffffff166000809054906101000a900473ffffffffffffffffffffffffffffffffffffffff1673ffffffffffffffffffffffffffffffffffffffff1614610a7b576040517f08c379a00000000000000000000000000000000000000000000000000000000081526004018080602001828103825260208152602001807f4f776e61626c653a2063616c6c6572206973206e6f7420746865206f776e657281525060200191505060405180910390fd5b6000600660009054906101000a900473ffffffffffffffffffffffffffffffffffffffff1673ffffffffffffffffffffffffffffffffffffffff1663dd34de676005546040518263ffffffff1660e01b81526004018082815260200191505060206040518083038186803b158015610af257600080fd5b505afa158015610b06573d6000803e3d6000fd5b505050506040513d6020811015610b1c57600080fd5b81019080805190602001909291905050501415610ba1576040517f08c379a000000000000000000000000000000000000000000000000000000000815260040180806020018281038252601b8152602001807f4d61726b6574206e6565647320746f206265207265736f6c766564000000000081525060200191505060405180910390fd5b6060600154604051908082528060200260200182016040528015610bd45781602001602082028038833980820191505090505b509050600080905060008090505b600154811015610de257806001901b838281518110610bfd57fe5b602002602001018181525050600660009054906101000a900473ffffffffffffffffffffffffffffffffffffffff1673ffffffffffffffffffffffffffffffffffffffff166339dd7530600760009054906101000a900473ffffffffffffffffffffffffffffffffffffffff16600660009054906101000a900473ffffffffffffffffffffffffffffffffffffffff1673ffffffffffffffffffffffffffffffffffffffff1663856296f76000801b600554876001901b6040518463ffffffff1660e01b815260040180848152602001838152602001828152602001935050505060206040518083038186803b158015610cf657600080fd5b505afa158015610d0a573d6000803e3d6000fd5b505050506040513d6020811015610d2057600080fd5b81019080805190602001909291905050506040518363ffffffff1660e01b8152600401808373ffffffffffffffffffffffffffffffffffffffff1673ffffffffffffffffffffffffffffffffffffffff1681526020018281526020019250505060206040518083038186803b158015610d9857600080fd5b505afa158015610dac573d6000803e3d6000fd5b505050506040513d6020811015610dc257600080fd5b810190808051906020019092919050505091508080600101915050610be2565b50600660009054906101000a900473ffffffffffffffffffffffffffffffffffffffff1673ffffffffffffffffffffffffffffffffffffffff166301b7037c600760009054906101000a900473ffffffffffffffffffffffffffffffffffffffff166000801b600554866040518563ffffffff1660e01b8152600401808573ffffffffffffffffffffffffffffffffffffffff1673ffffffffffffffffffffffffffffffffffffffff16815260200184815260200183815260200180602001828103825283818151815260200191508051906020019060200280838360005b83811015610edc578082015181840152602081019050610ec1565b5050505090500195505050505050600060405180830381600087803b158015610f0457600080fd5b505af1158015610f18573d6000803e3d6000fd5b505050505050565b6000808373ffffffffffffffffffffffffffffffffffffffff1663313ce5676040518163ffffffff1660e01b815260040160206040518083038186803b158015610f6957600080fd5b505afa158015610f7d573d6000803e3d6000fd5b505050506040513d6020811015610f9357600080fd5b810190808051906020019092919050505060ff169050610fb68382600a0a612a70565b91505092915050565b610fc7612a68565b73ffffffffffffffffffffffffffffffffffffffff166000809054906101000a900473ffffffffffffffffffffffffffffffffffffffff1673ffffffffffffffffffffffffffffffffffffffff1614611088576040517f08c379a00000000000000000000000000000000000000000000000000000000081526004018080602001828103825260208152602001807f4f776e61626c653a2063616c6c6572206973206e6f7420746865206f776e657281525060200191505060405180910390fd5b600073ffffffffffffffffffffffffffffffffffffffff166000809054906101000a900473ffffffffffffffffffffffffffffffffffffffff1673ffffffffffffffffffffffffffffffffffffffff167f8be0079c531659141344cd1fd0a4f28419497f9722a3daafe3b4186f6b6457e060405160405180910390a360008060006101000a81548173ffffffffffffffffffffffffffffffffffffffff021916908373ffffffffffffffffffffffffffffffffffffffff160217905550565b60008060606002805490506040519080825280602002602001820160405280156111805781602001602082028038833980820191505090505b5090506000600460109054906101000a9004600f0b905060008090505b60015481101561127d576000816001901b88161461121f576111ee600282815481106111c557fe5b90600052602060002090600291828204019190066010029054906101000a9004600f0b8761295c565b8382815181106111fa57fe5b6020026020010190600f0b9081600f0b81525050611218828761295c565b9150611270565b6002818154811061122c57fe5b90600052602060002090600291828204019190066010029054906101000a9004600f0b83828151811061125b57fe5b6020026020010190600f0b9081600f0b815250505b808060010191505061119d565b50600061129982600360109054906101000a9004600f0b6129fd565b905060008090505b6001548110156112e8576112d9856112d46112cf8785815181106112c157fe5b602002602001015186612860565b6128e3565b61295c565b945080806001019150506112a1565b506112fb816112f6866129c3565b6129fd565b94505050505092915050565b60015481565b60606000600180546001901b039050600081841890506060600161133083612b2b565b0160405190808252806020026020018201604052801561135f5781602001602082028038833980820191505090505b509050600060019050858260008151811061137657fe5b60200260200101818152505060008090505b6001548110156113d3576000816001901b8516146113c657806001901b8383815181106113b157fe5b60200260200101818152505081806001019250505b8080600101915050611388565b5081945050505050919050565b60008060009054906101000a900473ffffffffffffffffffffffffffffffffffffffff16905090565b600063bc197c8160e01b905098975050505050505050565b6000600460009054906101000a9004600f0b61143d8484611147565b03905092915050565b600063f23a6e6160e01b90509695505050505050565b611464612a68565b73ffffffffffffffffffffffffffffffffffffffff166000809054906101000a900473ffffffffffffffffffffffffffffffffffffffff1673ffffffffffffffffffffffffffffffffffffffff1614611525576040517f08c379a00000000000000000000000000000000000000000000000000000000081526004018080602001828103825260208152602001807f4f776e61626c653a2063616c6c6572206973206e6f7420746865206f776e657281525060200191505060405180910390fd5b600073ffffffffffffffffffffffffffffffffffffffff168173ffffffffffffffffffffffffffffffffffffffff1614156115ab576040517f08c379a00000000000000000000000000000000000000000000000000000000081526004018080602001828103825260268152602001806140026026913960400191505060405180910390fd5b8073ffffffffffffffffffffffffffffffffffffffff166000809054906101000a900473ffffffffffffffffffffffffffffffffffffffff1673ffffffffffffffffffffffffffffffffffffffff167f8be0079c531659141344cd1fd0a4f28419497f9722a3daafe3b4186f6b6457e060405160405180910390a3806000806101000a81548173ffffffffffffffffffffffffffffffffffffffff021916908373ffffffffffffffffffffffffffffffffffffffff16021790555050565b611671612a68565b73ffffffffffffffffffffffffffffffffffffffff166000809054906101000a900473ffffffffffffffffffffffffffffffffffffffff1673ffffffffffffffffffffffffffffffffffffffff1614611732576040517f08c379a00000000000000000000000000000000000000000000000000000000081526004018080602001828103825260208152602001807f4f776e61626c653a2063616c6c6572206973206e6f7420746865206f776e657281525060200191505060405180910390fd5b60001515600760149054906101000a900460ff161515146117bb576040517f08c379a000000000000000000000000000000000000000000000000000000000815260040180806020018281038252600c8152602001807f416c726561647920696e6974000000000000000000000000000000000000000081525060200191505060405180910390fd5b60008111611831576040517f08c379a00000000000000000000000000000000000000000000000000000000081526004018080602001828103825260178152602001807f43616e6e6f7420686176652030206f766572726f756e6400000000000000000081525060200191505060405180910390fd5b600660009054906101000a900473ffffffffffffffffffffffffffffffffffffffff1673ffffffffffffffffffffffffffffffffffffffff1663d96ee754853073ffffffffffffffffffffffffffffffffffffffff1660001b866040518463ffffffff1660e01b8152600401808473ffffffffffffffffffffffffffffffffffffffff1673ffffffffffffffffffffffffffffffffffffffff1681526020018381526020018281526020019350505050600060405180830381600087803b1580156118fb57600080fd5b505af115801561190f573d6000803e3d6000fd5b50505050600660009054906101000a900473ffffffffffffffffffffffffffffffffffffffff1673ffffffffffffffffffffffffffffffffffffffff1663852c6ae2853073ffffffffffffffffffffffffffffffffffffffff1660001b866040518463ffffffff1660e01b8152600401808473ffffffffffffffffffffffffffffffffffffffff1673ffffffffffffffffffffffffffffffffffffffff168152602001838152602001828152602001935050505060206040518083038186803b1580156119db57600080fd5b505afa1580156119ef573d6000803e3d6000fd5b505050506040513d6020811015611a0557600080fd5b8101908080519060200190929190505050600581905550611a3e3073ffffffffffffffffffffffffffffffffffffffff1660001b612b50565b611a8d333084600760009054906101000a900473ffffffffffffffffffffffffffffffffffffffff1673ffffffffffffffffffffffffffffffffffffffff16612be9909392919063ffffffff16565b826001819055506000611a9f84612cd6565b90506000611acf600760009054906101000a900473ffffffffffffffffffffffffffffffffffffffff168561082f565b90506000611adf846127106127f8565b9050611afc81611af785611af2876129c3565b6129fd565b612860565b600360106101000a8154816fffffffffffffffffffffffffffffffff0219169083600f0b6fffffffffffffffffffffffffffffffff160217905550611b59611b4483856129fd565b600360109054906101000a9004600f0b6129fd565b600360006101000a8154816fffffffffffffffffffffffffffffffff0219169083600f0b6fffffffffffffffffffffffffffffffff16021790555060008090505b86811015611c185760028390806001815401808255809150506001900390600052602060002090600291828204019190066010029091909190916101000a8154816fffffffffffffffffffffffffffffffff0219169083600f0b6fffffffffffffffffffffffffffffffff1602179055508080600101915050611b9a565b506001600760146101000a81548160ff021916908315150217905550611c3e82846129fd565b600460106101000a8154816fffffffffffffffffffffffffffffffff0219169083600f0b6fffffffffffffffffffffffffffffffff160217905550611c816108ce565b600460006101000a8154816fffffffffffffffffffffffffffffffff0219169083600f0b6fffffffffffffffffffffffffffffffff16021790555050505050505050565b600060011515600760149054906101000a900460ff16151514611ce757600080fd5b6000808411611cf557600080fd5b6000600660009054906101000a900473ffffffffffffffffffffffffffffffffffffffff1673ffffffffffffffffffffffffffffffffffffffff1663dd34de676005546040518263ffffffff1660e01b81526004018082815260200191505060206040518083038186803b158015611d6c57600080fd5b505afa158015611d80573d6000803e3d6000fd5b505050506040513d6020811015611d9657600080fd5b810190808051906020019092919050505014611e1a576040517f08c379a00000000000000000000000000000000000000000000000000000000081526004018080602001828103825260178152602001807f4d61726b657420616c7265616479207265736f6c76656400000000000000000081525060200191505060405180910390fd5b60008090505b600154811015611f2e576000816001901b861614611f2157611e7160028281548110611e4857fe5b90600052602060002090600291828204019190066010029054906101000a9004600f0b8561295c565b60028281548110611e7e57fe5b90600052602060002090600291828204019190066010026101000a8154816fffffffffffffffffffffffffffffffff0219169083600f0b6fffffffffffffffffffffffffffffffff160217905550611ee5600460109054906101000a9004600f0b8561295c565b600460106101000a8154816fffffffffffffffffffffffffffffffff0219169083600f0b6fffffffffffffffffffffffffffffffff1602179055505b8080600101915050611e20565b50611f57600460109054906101000a9004600f0b600360109054906101000a9004600f0b6129fd565b600360006101000a8154816fffffffffffffffffffffffffffffffff0219169083600f0b6fffffffffffffffffffffffffffffffff16021790555060008090505b60015481101561200a57611ffb82611ff6611ff160028581548110611fb957fe5b90600052602060002090600291828204019190066010029054906101000a9004600f0b600360009054906101000a9004600f0b612860565b6128e3565b61295c565b91508080600101915050611f98565b50600061202e600360009054906101000a9004600f0b612029846129c3565b6129fd565b905061204981600460009054906101000a9004600f0b612cf9565b925080600460006101000a8154816fffffffffffffffffffffffffffffffff0219169083600f0b6fffffffffffffffffffffffffffffffff16021790555060006120b5600760009054906101000a900473ffffffffffffffffffffffffffffffffffffffff1685610f20565b905060006120e5600760009054906101000a900473ffffffffffffffffffffffffffffffffffffffff1687610f20565b9050600760009054906101000a900473ffffffffffffffffffffffffffffffffffffffff1673ffffffffffffffffffffffffffffffffffffffff166323b872dd3330856040518463ffffffff1660e01b8152600401808473ffffffffffffffffffffffffffffffffffffffff1673ffffffffffffffffffffffffffffffffffffffff1681526020018373ffffffffffffffffffffffffffffffffffffffff1673ffffffffffffffffffffffffffffffffffffffff1681526020018281526020019350505050602060405180830381600087803b1580156121c457600080fd5b505af11580156121d8573d6000803e3d6000fd5b505050506040513d60208110156121ee57600080fd5b8101908080519060200190929190505050612271576040517f08c379a00000000000000000000000000000000000000000000000000000000081526004018080602001828103825260198152602001807f4572726f72207472616e7366657272696e6720746f6b656e730000000000000081525060200191505060405180910390fd5b600760009054906101000a900473ffffffffffffffffffffffffffffffffffffffff1673ffffffffffffffffffffffffffffffffffffffff1663095ea7b3600660009054906101000a900473ffffffffffffffffffffffffffffffffffffffff166122fe600760009054906101000a900473ffffffffffffffffffffffffffffffffffffffff168a610f20565b6040518363ffffffff1660e01b8152600401808373ffffffffffffffffffffffffffffffffffffffff1673ffffffffffffffffffffffffffffffffffffffff16815260200182815260200192505050602060405180830381600087803b15801561236757600080fd5b505af115801561237b573d6000803e3d6000fd5b505050506040513d602081101561239157600080fd5b810190808051906020019092919050505050600660009054906101000a900473ffffffffffffffffffffffffffffffffffffffff1673ffffffffffffffffffffffffffffffffffffffff166372ce4275600760009054906101000a900473ffffffffffffffffffffffffffffffffffffffff166000801b6005546124148c61130d565b866040518663ffffffff1660e01b8152600401808673ffffffffffffffffffffffffffffffffffffffff1673ffffffffffffffffffffffffffffffffffffffff16815260200185815260200184815260200180602001838152602001828103825284818151815260200191508051906020019060200280838360005b838110156124ab578082015181840152602081019050612490565b505050509050019650505050505050600060405180830381600087803b1580156124d457600080fd5b505af11580156124e8573d6000803e3d6000fd5b505050506000600660009054906101000a900473ffffffffffffffffffffffffffffffffffffffff1673ffffffffffffffffffffffffffffffffffffffff166339dd7530600760009054906101000a900473ffffffffffffffffffffffffffffffffffffffff16600660009054906101000a900473ffffffffffffffffffffffffffffffffffffffff1673ffffffffffffffffffffffffffffffffffffffff1663856296f76000801b6005548e6040518463ffffffff1660e01b815260040180848152602001838152602001828152602001935050505060206040518083038186803b1580156125d757600080fd5b505afa1580156125eb573d6000803e3d6000fd5b505050506040513d602081101561260157600080fd5b81019080805190602001909291905050506040518363ffffffff1660e01b8152600401808373ffffffffffffffffffffffffffffffffffffffff1673ffffffffffffffffffffffffffffffffffffffff1681526020018281526020019250505060206040518083038186803b15801561267957600080fd5b505afa15801561268d573d6000803e3d6000fd5b505050506040513d60208110156126a357600080fd5b81019080805190602001909291905050509050600660009054906101000a900473ffffffffffffffffffffffffffffffffffffffff1673ffffffffffffffffffffffffffffffffffffffff1663f242432a303384866040518563ffffffff1660e01b8152600401808573ffffffffffffffffffffffffffffffffffffffff1673ffffffffffffffffffffffffffffffffffffffff1681526020018473ffffffffffffffffffffffffffffffffffffffff1673ffffffffffffffffffffffffffffffffffffffff1681526020018381526020018281526020018060200182810382526000815260200160200195505050505050600060405180830381600087803b1580156127af57600080fd5b505af11580156127c3573d6000803e3d6000fd5b50505050505050505092915050565b600760009054906101000a900473ffffffffffffffffffffffffffffffffffffffff1681565b60008082141561280757600080fd5b60006128138484612d60565b90506f7fffffffffffffffffffffffffffffff6fffffffffffffffffffffffffffffffff16816fffffffffffffffffffffffffffffffff16111561285657600080fd5b8091505092915050565b60008082600f0b141561287257600080fd5b600082600f0b604085600f0b901b8161288757fe5b0590507fffffffffffffffffffffffffffffffff80000000000000000000000000000000600f0b81121580156128d057506f7fffffffffffffffffffffffffffffff600f0b8113155b6128d957600080fd5b8091505092915050565b60006840000000000000000082600f0b126128fd57600080fd5b7fffffffffffffffffffffffffffffffffffffffffffffffc0000000000000000082600f0b12156129315760009050612957565b6129546080700171547652b82fe1777d0ffda0d23a7d1284600f0b02901d612f21565b90505b919050565b60008082600f0b84600f0b0190507fffffffffffffffffffffffffffffffff80000000000000000000000000000000600f0b81121580156129b057506f7fffffffffffffffffffffffffffffff600f0b8113155b6129b957600080fd5b8091505092915050565b60008082600f0b136129d457600080fd5b60806fb17217f7d1cf79abc9e3b39803f2f6af6129f084613b21565b600f0b02901c9050919050565b600080604083600f0b85600f0b02901d90507fffffffffffffffffffffffffffffffff80000000000000000000000000000000600f0b8112158015612a5557506f7fffffffffffffffffffffffffffffff600f0b8113155b612a5e57600080fd5b8091505092915050565b600033905090565b600080821415612a835760009050612b25565b600083600f0b1215612a9457600080fd5b600060406fffffffffffffffffffffffffffffffff841685600f0b02901c90506000608084901c85600f0b02905077ffffffffffffffffffffffffffffffffffffffffffffffff811115612ae757600080fd5b604081901b9050817fffffffffffffffffffffffffffffffffffffffffffffffffffffffffffffffff03811115612b1d57600080fd5b818101925050505b92915050565b60005b60008214612b4b5760018203821691508080600101915050612b2e565b919050565b612be681604051602401808281526020019150506040516020818303038152906040527f27b7cf85000000000000000000000000000000000000000000000000000000007bffffffffffffffffffffffffffffffffffffffffffffffffffffffff19166020820180517bffffffffffffffffffffffffffffffffffffffffffffffffffffffff8381831617835250505050613c49565b50565b612cd0846323b872dd60e01b858585604051602401808473ffffffffffffffffffffffffffffffffffffffff1673ffffffffffffffffffffffffffffffffffffffff1681526020018373ffffffffffffffffffffffffffffffffffffffff1673ffffffffffffffffffffffffffffffffffffffff1681526020018281526020019350505050604051602081830303815290604052907bffffffffffffffffffffffffffffffffffffffffffffffffffffffff19166020820180517bffffffffffffffffffffffffffffffffffffffffffffffffffffffff8381831617835250505050613c72565b50505050565b6000677fffffffffffffff821115612ced57600080fd5b604082901b9050919050565b60008082600f0b84600f0b0390507fffffffffffffffffffffffffffffffff80000000000000000000000000000000600f0b8112158015612d4d57506f7fffffffffffffffffffffffffffffff600f0b8113155b612d5657600080fd5b8091505092915050565b600080821415612d6f57600080fd5b600077ffffffffffffffffffffffffffffffffffffffffffffffff8411612da55782604085901b81612d9d57fe5b049050612efa565b600060c09050600060c086901c90506401000000008110612dce57602081901c90506020820191505b620100008110612de657601081901c90506010820191505b6101008110612dfd57600881901c90506008820191505b60108110612e1357600481901c90506004820191505b60048110612e2957600281901c90506002820191505b60028110612e38576001820191505b600160bf830360018703901c018260ff0387901b81612e5357fe5b0492506fffffffffffffffffffffffffffffffff831115612e7357600080fd5b6000608086901c8402905060006fffffffffffffffffffffffffffffffff871685029050600060c089901c9050600060408a901b905082811015612eb8576001820391505b8281039050608084901b925082811015612ed3576001820391505b8281039050608084901c8214612ee557fe5b888181612eee57fe5b04870196505050505050505b6fffffffffffffffffffffffffffffffff811115612f1757600080fd5b8091505092915050565b60006840000000000000000082600f0b12612f3b57600080fd5b7fffffffffffffffffffffffffffffffffffffffffffffffc0000000000000000082600f0b1215612f6f5760009050613b1c565b60006f80000000000000000000000000000000905060006780000000000000008416600f0b1315612fb557608070016a09e667f3bcc908b2fb1366ea957d3e8202901c90505b60006740000000000000008416600f0b1315612fe65760807001306fe0a31b7152de8d5a46305c85edec8202901c90505b60006720000000000000008416600f0b13156130175760807001172b83c7d517adcdf7c8c50eb14a791f8202901c90505b60006710000000000000008416600f0b131561304857608070010b5586cf9890f6298b92b71842a983638202901c90505b60006708000000000000008416600f0b13156130795760807001059b0d31585743ae7c548eb68ca417fd8202901c90505b60006704000000000000008416600f0b13156130aa576080700102c9a3e778060ee6f7caca4f7a29bde88202901c90505b60006702000000000000008416600f0b13156130db57608070010163da9fb33356d84a66ae336dcdfa3f8202901c90505b60006701000000000000008416600f0b131561310c576080700100b1afa5abcbed6129ab13ec11dc95438202901c90505b600066800000000000008416600f0b131561313c57608070010058c86da1c09ea1ff19d294cf2f679b8202901c90505b600066400000000000008416600f0b131561316c5760807001002c605e2e8cec506d21bfc89a23a00f8202901c90505b600066200000000000008416600f0b131561319c576080700100162f3904051fa128bca9c55c31e5df8202901c90505b600066100000000000008416600f0b13156131cc5760807001000b175effdc76ba38e31671ca9397258202901c90505b600066080000000000008416600f0b13156131fc576080700100058ba01fb9f96d6cacd4b180917c3d8202901c90505b600066040000000000008416600f0b131561322c57608070010002c5cc37da9491d0985c348c68e7b38202901c90505b600066020000000000008416600f0b131561325c5760807001000162e525ee054754457d59952920268202901c90505b600066010000000000008416600f0b131561328c57608070010000b17255775c040618bf4a4ade83fc8202901c90505b6000658000000000008416600f0b13156132bb5760807001000058b91b5bc9ae2eed81e9b7d4cfab8202901c90505b6000654000000000008416600f0b13156132ea576080700100002c5c89d5ec6ca4d7c8acc017b7c98202901c90505b6000652000000000008416600f0b131561331957608070010000162e43f4f831060e02d839a9d16d8202901c90505b6000651000000000008416600f0b1315613348576080700100000b1721bcfc99d9f890ea069117638202901c90505b6000650800000000008416600f0b131561337757608070010000058b90cf1e6d97f9ca14dbcc16288202901c90505b6000650400000000008416600f0b13156133a65760807001000002c5c863b73f016468f6bac5ca2b8202901c90505b6000650200000000008416600f0b13156133d5576080700100000162e430e5a18f6119e3c02282a58202901c90505b6000650100000000008416600f0b13156134045760807001000000b1721835514b86e6d96efd1bfe8202901c90505b60006480000000008416600f0b1315613432576080700100000058b90c0b48c6be5df846c5b2ef8202901c90505b60006440000000008416600f0b131561346057608070010000002c5c8601cc6b9e94213c72737a8202901c90505b60006420000000008416600f0b131561348e5760807001000000162e42fff037df38aa2b219f068202901c90505b60006410000000008416600f0b13156134bc57608070010000000b17217fba9c739aa5819f44f98202901c90505b60006408000000008416600f0b13156134ea5760807001000000058b90bfcdee5acd3c1cedc8238202901c90505b60006404000000008416600f0b1315613518576080700100000002c5c85fe31f35a6a30da1be508202901c90505b60006402000000008416600f0b131561354657608070010000000162e42ff0999ce3541b9fffcf8202901c90505b60006401000000008416600f0b1315613574576080700100000000b17217f80f4ef5aadda455548202901c90505b600063800000008416600f0b13156135a157608070010000000058b90bfbf8479bd5a81b51ad8202901c90505b600063400000008416600f0b13156135ce5760807001000000002c5c85fdf84bd62ae30a74cc8202901c90505b600063200000008416600f0b13156135fb576080700100000000162e42fefb2fed257559bdaa8202901c90505b600063100000008416600f0b13156136285760807001000000000b17217f7d5a7716bba4a9ae8202901c90505b600063080000008416600f0b1315613655576080700100000000058b90bfbe9ddbac5e109cce8202901c90505b600063040000008416600f0b131561368257608070010000000002c5c85fdf4b15de6f17eb0d8202901c90505b600063020000008416600f0b13156136af5760807001000000000162e42fefa494f1478fde058202901c90505b600063010000008416600f0b13156136dc57608070010000000000b17217f7d20cf927c8e94c8202901c90505b6000628000008416600f0b13156137085760807001000000000058b90bfbe8f71cb4e4b33d8202901c90505b6000624000008416600f0b1315613734576080700100000000002c5c85fdf477b662b269458202901c90505b6000622000008416600f0b131561376057608070010000000000162e42fefa3ae53369388c8202901c90505b6000621000008416600f0b131561378c576080700100000000000b17217f7d1d351a389d408202901c90505b6000620800008416600f0b13156137b857608070010000000000058b90bfbe8e8b2d3d4ede8202901c90505b6000620400008416600f0b13156137e45760807001000000000002c5c85fdf4741bea6e77e8202901c90505b6000620200008416600f0b1315613810576080700100000000000162e42fefa39fe95583c28202901c90505b6000620100008416600f0b131561383c5760807001000000000000b17217f7d1cfb72b45e18202901c90505b60006180008416600f0b1315613867576080700100000000000058b90bfbe8e7cc35c3f08202901c90505b60006140008416600f0b131561389257608070010000000000002c5c85fdf473e242ea388202901c90505b60006120008416600f0b13156138bd5760807001000000000000162e42fefa39f02b772c8202901c90505b60006110008416600f0b13156138e857608070010000000000000b17217f7d1cf7d83c1a8202901c90505b60006108008416600f0b13156139135760807001000000000000058b90bfbe8e7bdcbe2e8202901c90505b60006104008416600f0b131561393e576080700100000000000002c5c85fdf473dea871f8202901c90505b60006102008416600f0b131561396957608070010000000000000162e42fefa39ef44d918202901c90505b60006101008416600f0b1315613994576080700100000000000000b17217f7d1cf79e9498202901c90505b600060808416600f0b13156139be57608070010000000000000058b90bfbe8e7bce5448202901c90505b600060408416600f0b13156139e85760807001000000000000002c5c85fdf473de6eca8202901c90505b600060208416600f0b1315613a12576080700100000000000000162e42fefa39ef366f8202901c90505b600060108416600f0b1315613a3c5760807001000000000000000b17217f7d1cf79afa8202901c90505b600060088416600f0b1315613a66576080700100000000000000058b90bfbe8e7bcd6d8202901c90505b600060048416600f0b1315613a9057608070010000000000000002c5c85fdf473de6b28202901c90505b600060028416600f0b1315613aba5760807001000000000000000162e42fefa39ef3588202901c90505b600060018416600f0b1315613ae457608070010000000000000000b17217f7d1cf79ab8202901c90505b604083600f0b901d603f03600f0b81901c90506f7fffffffffffffffffffffffffffffff600f0b811115613b1757600080fd5b809150505b919050565b60008082600f0b13613b3257600080fd5b6000809050600083600f0b9050680100000000000000008112613b5d57604081901d90506040820191505b6401000000008112613b7757602081901d90506020820191505b620100008112613b8f57601081901d90506010820191505b6101008112613ba657600881901d90506008820191505b60108112613bbc57600481901d90506004820191505b60048112613bd257600281901d90506002820191505b60028112613be1576001820191505b60006040808403901b9050600083607f0386600f0b901b9050600067800000000000000090505b6000811315613c3c578182029150600060ff83901c905080607f0183901c92508082028401935050600181901d9050613c08565b5081945050505050919050565b60008151905060006a636f6e736f6c652e6c6f679050602083016000808483855afa5050505050565b6060613cd4826040518060400160405280602081526020017f5361666545524332303a206c6f772d6c6576656c2063616c6c206661696c65648152508573ffffffffffffffffffffffffffffffffffffffff16613d619092919063ffffffff16565b9050600081511115613d5c57808060200190516020811015613cf557600080fd5b8101908080519060200190929190505050613d5b576040517f08c379a000000000000000000000000000000000000000000000000000000000815260040180806020018281038252602a81526020018061404e602a913960400191505060405180910390fd5b5b505050565b6060613d708484600085613d79565b90509392505050565b606082471015613dd4576040517f08c379a00000000000000000000000000000000000000000000000000000000081526004018080602001828103825260268152602001806140286026913960400191505060405180910390fd5b613ddd85613f22565b613e4f576040517f08c379a000000000000000000000000000000000000000000000000000000000815260040180806020018281038252601d8152602001807f416464726573733a2063616c6c20746f206e6f6e2d636f6e747261637400000081525060200191505060405180910390fd5b600060608673ffffffffffffffffffffffffffffffffffffffff1685876040518082805190602001908083835b60208310613e9f5780518252602082019150602081019050602083039250613e7c565b6001836020036101000a03801982511681845116808217855250505050505090500191505060006040518083038185875af1925050503d8060008114613f01576040519150601f19603f3d011682016040523d82523d6000602084013e613f06565b606091505b5091509150613f16828286613f35565b92505050949350505050565b600080823b905060008111915050919050565b60608315613f4557829050613ffa565b600083511115613f585782518084602001fd5b816040517f08c379a00000000000000000000000000000000000000000000000000000000081526004018080602001828103825283818151815260200191508051906020019080838360005b83811015613fbf578082015181840152602081019050613fa4565b50505050905090810190601f168015613fec5780820380516001836020036101000a031916815260200191505b509250505060405180910390fd5b939250505056fe4f776e61626c653a206e6577206f776e657220697320746865207a65726f2061646472657373416464726573733a20696e73756666696369656e742062616c616e636520666f722063616c6c5361666545524332303a204552433230206f7065726174696f6e20646964206e6f742073756363656564a26469706673582212208a26dd5394a9d309a4bc6c2cc6a0ff99c7eca76ad5bdad875cfad41e393f167364736f6c63430006020033",
  "linkReferences": {},
  "deployedLinkReferences": {}
}