{
  "_format": "hh-sol-artifact-1",
  "contractName": "LsLMSR",
  "sourceName": "contracts/LsLMSR.sol",
  "abi": [
    {
      "inputs": [
        {
          "internalType": "address",
          "name": "_ct",
          "type": "address"
        },
        {
          "internalType": "address",
          "name": "_token",
          "type": "address"
        }
      ],
      "stateMutability": "nonpayable",
      "type": "constructor"
    },
    {
      "anonymous": false,
      "inputs": [
        {
          "indexed": true,
          "internalType": "address",
          "name": "previousOwner",
          "type": "address"
        },
        {
          "indexed": true,
          "internalType": "address",
          "name": "newOwner",
          "type": "address"
        }
      ],
      "name": "OwnershipTransferred",
      "type": "event"
    },
    {
      "inputs": [
        {
          "internalType": "uint256",
          "name": "_outcome",
          "type": "uint256"
        },
        {
          "internalType": "int128",
          "name": "_amount",
          "type": "int128"
        }
      ],
      "name": "buy",
      "outputs": [
        {
          "internalType": "int128",
          "name": "_price",
          "type": "int128"
        }
      ],
      "stateMutability": "nonpayable",
      "type": "function"
    },
    {
      "inputs": [],
      "name": "cost",
      "outputs": [
        {
          "internalType": "int128",
          "name": "",
          "type": "int128"
        }
      ],
      "stateMutability": "view",
      "type": "function"
    },
    {
      "inputs": [
        {
          "internalType": "uint256",
          "name": "_outcome",
          "type": "uint256"
        },
        {
          "internalType": "int128",
          "name": "_amount",
          "type": "int128"
        }
      ],
      "name": "cost_after_buy",
      "outputs": [
        {
          "internalType": "int128",
          "name": "",
          "type": "int128"
        }
      ],
      "stateMutability": "view",
      "type": "function"
    },
    {
      "inputs": [],
      "name": "numOutcomes",
      "outputs": [
        {
          "internalType": "uint256",
          "name": "",
          "type": "uint256"
        }
      ],
      "stateMutability": "view",
      "type": "function"
    },
    {
      "inputs": [
        {
          "internalType": "address",
          "name": "operator",
          "type": "address"
        },
        {
          "internalType": "address",
          "name": "from",
          "type": "address"
        },
        {
          "internalType": "uint256[]",
          "name": "ids",
          "type": "uint256[]"
        },
        {
          "internalType": "uint256[]",
          "name": "values",
          "type": "uint256[]"
        },
        {
          "internalType": "bytes",
          "name": "data",
          "type": "bytes"
        }
      ],
      "name": "onERC1155BatchReceived",
      "outputs": [
        {
          "internalType": "bytes4",
          "name": "",
          "type": "bytes4"
        }
      ],
      "stateMutability": "nonpayable",
      "type": "function"
    },
    {
      "inputs": [
        {
          "internalType": "address",
          "name": "operator",
          "type": "address"
        },
        {
          "internalType": "address",
          "name": "from",
          "type": "address"
        },
        {
          "internalType": "uint256",
          "name": "id",
          "type": "uint256"
        },
        {
          "internalType": "uint256",
          "name": "value",
          "type": "uint256"
        },
        {
          "internalType": "bytes",
          "name": "data",
          "type": "bytes"
        }
      ],
      "name": "onERC1155Received",
      "outputs": [
        {
          "internalType": "bytes4",
          "name": "",
          "type": "bytes4"
        }
      ],
      "stateMutability": "nonpayable",
      "type": "function"
    },
    {
      "inputs": [],
      "name": "owner",
      "outputs": [
        {
          "internalType": "address",
          "name": "",
          "type": "address"
        }
      ],
      "stateMutability": "view",
      "type": "function"
    },
    {
      "inputs": [
        {
          "internalType": "uint256",
          "name": "_outcome",
          "type": "uint256"
        },
        {
          "internalType": "int128",
          "name": "_amount",
          "type": "int128"
        }
      ],
      "name": "price",
      "outputs": [
        {
          "internalType": "int128",
          "name": "",
          "type": "int128"
        }
      ],
      "stateMutability": "view",
      "type": "function"
    },
    {
      "inputs": [],
      "name": "renounceOwnership",
      "outputs": [],
      "stateMutability": "nonpayable",
      "type": "function"
    },
    {
      "inputs": [
        {
          "internalType": "address",
          "name": "_oracle",
          "type": "address"
        },
        {
          "internalType": "uint256",
          "name": "_numOutcomes",
          "type": "uint256"
        },
        {
          "internalType": "uint256",
          "name": "_subsidy",
          "type": "uint256"
        },
        {
          "internalType": "uint256",
          "name": "_overround",
          "type": "uint256"
        }
      ],
      "name": "setup",
      "outputs": [],
      "stateMutability": "nonpayable",
      "type": "function"
    },
    {
      "inputs": [
        {
          "internalType": "bytes4",
          "name": "interfaceId",
          "type": "bytes4"
        }
      ],
      "name": "supportsInterface",
      "outputs": [
        {
          "internalType": "bool",
          "name": "",
          "type": "bool"
        }
      ],
      "stateMutability": "view",
      "type": "function"
    },
    {
      "inputs": [],
      "name": "token",
      "outputs": [
        {
          "internalType": "address",
          "name": "",
          "type": "address"
        }
      ],
      "stateMutability": "view",
      "type": "function"
    },
    {
      "inputs": [
        {
          "internalType": "address",
          "name": "newOwner",
          "type": "address"
        }
      ],
      "name": "transferOwnership",
      "outputs": [],
      "stateMutability": "nonpayable",
      "type": "function"
    }
  ],
  "bytecode": "0x60806040523480156200001157600080fd5b506040516200308c3803806200308c833981810160405260408110156200003757600080fd5b8101908080519060200190929190805190602001909291905050506000620000646200018c60201b60201c565b9050806000806101000a81548173ffffffffffffffffffffffffffffffffffffffff021916908373ffffffffffffffffffffffffffffffffffffffff1602179055508073ffffffffffffffffffffffffffffffffffffffff16600073ffffffffffffffffffffffffffffffffffffffff167f8be0079c531659141344cd1fd0a4f28419497f9722a3daafe3b4186f6b6457e060405160405180910390a35081600560006101000a81548173ffffffffffffffffffffffffffffffffffffffff021916908373ffffffffffffffffffffffffffffffffffffffff16021790555080600660006101000a81548173ffffffffffffffffffffffffffffffffffffffff021916908373ffffffffffffffffffffffffffffffffffffffff160217905550505062000194565b600033905090565b612ee880620001a46000396000f3fe608060405234801561001057600080fd5b50600436106100cf5760003560e01c8063bc197c811161008c578063f2fde38b11610066578063f2fde38b1461054d578063f3b145d214610591578063f76da1d9146105f3578063fc0c546a14610648576100cf565b8063bc197c8114610224578063df7bd8fc146103d9578063f23a6e611461042e576100cf565b806301ffc9a7146100d457806313faede614610139578063715018a61461015d5780638062dd93146101675780638767d64e146101bc5780638da5cb5b146101da575b600080fd5b61011f600480360360208110156100ea57600080fd5b8101908080357bffffffffffffffffffffffffffffffffffffffffffffffffffffffff19169060200190929190505050610692565b604051808215151515815260200191505060405180910390f35b610141610699565b6040518082600f0b600f0b815260200191505060405180910390f35b61016561075d565b005b6101a06004803603604081101561017d57600080fd5b81019080803590602001909291908035600f0b90602001909291905050506108e5565b6040518082600f0b600f0b815260200191505060405180910390f35b6101c4610aa5565b6040518082815260200191505060405180910390f35b6101e2610aab565b604051808273ffffffffffffffffffffffffffffffffffffffff1673ffffffffffffffffffffffffffffffffffffffff16815260200191505060405180910390f35b610385600480360360a081101561023a57600080fd5b81019080803573ffffffffffffffffffffffffffffffffffffffff169060200190929190803573ffffffffffffffffffffffffffffffffffffffff1690602001909291908035906020019064010000000081111561029757600080fd5b8201836020820111156102a957600080fd5b803590602001918460208302840111640100000000831117156102cb57600080fd5b9091929391929390803590602001906401000000008111156102ec57600080fd5b8201836020820111156102fe57600080fd5b8035906020019184602083028401116401000000008311171561032057600080fd5b90919293919293908035906020019064010000000081111561034157600080fd5b82018360208201111561035357600080fd5b8035906020019184600183028401116401000000008311171561037557600080fd5b9091929391929390505050610ad4565b60405180827bffffffffffffffffffffffffffffffffffffffffffffffffffffffff19167bffffffffffffffffffffffffffffffffffffffffffffffffffffffff1916815260200191505060405180910390f35b610412600480360360408110156103ef57600080fd5b81019080803590602001909291908035600f0b9060200190929190505050610aec565b6040518082600f0b600f0b815260200191505060405180910390f35b6104f9600480360360a081101561044457600080fd5b81019080803573ffffffffffffffffffffffffffffffffffffffff169060200190929190803573ffffffffffffffffffffffffffffffffffffffff1690602001909291908035906020019092919080359060200190929190803590602001906401000000008111156104b557600080fd5b8201836020820111156104c757600080fd5b803590602001918460018302840111640100000000831117156104e957600080fd5b9091929391929390505050610b11565b60405180827bffffffffffffffffffffffffffffffffffffffffffffffffffffffff19167bffffffffffffffffffffffffffffffffffffffffffffffffffffffff1916815260200191505060405180910390f35b61058f6004803603602081101561056357600080fd5b81019080803573ffffffffffffffffffffffffffffffffffffffff169060200190929190505050610b27565b005b6105f1600480360360808110156105a757600080fd5b81019080803573ffffffffffffffffffffffffffffffffffffffff169060200190929190803590602001909291908035906020019092919080359060200190929190505050610d34565b005b61062c6004803603604081101561060957600080fd5b81019080803590602001909291908035600f0b9060200190929190505050611503565b6040518082600f0b600f0b815260200191505060405180910390f35b61065061179c565b604051808273ffffffffffffffffffffffffffffffffffffffff1673ffffffffffffffffffffffffffffffffffffffff16815260200191505060405180910390f35b6000919050565b600060011515600660149054906101000a900460ff161515146106bb57600080fd5b600080600090505b600154811015610735576107268261072161071c600285815481106106e457fe5b90600052602060002090600291828204019190066010029054906101000a9004600f0b600360009054906101000a9004600f0b6117c2565b611845565b6118be565b915080806001019150506106c3565b50610757600360009054906101000a9004600f0b61075283611925565b61195f565b91505090565b6107656119ca565b73ffffffffffffffffffffffffffffffffffffffff166000809054906101000a900473ffffffffffffffffffffffffffffffffffffffff1673ffffffffffffffffffffffffffffffffffffffff1614610826576040517f08c379a00000000000000000000000000000000000000000000000000000000081526004018080602001828103825260208152602001807f4f776e61626c653a2063616c6c6572206973206e6f7420746865206f776e657281525060200191505060405180910390fd5b600073ffffffffffffffffffffffffffffffffffffffff166000809054906101000a900473ffffffffffffffffffffffffffffffffffffffff1673ffffffffffffffffffffffffffffffffffffffff167f8be0079c531659141344cd1fd0a4f28419497f9722a3daafe3b4186f6b6457e060405160405180910390a360008060006101000a81548173ffffffffffffffffffffffffffffffffffffffff021916908373ffffffffffffffffffffffffffffffffffffffff160217905550565b600080606060028054905060405190808252806020026020018201604052801561091e5781602001602082028038833980820191505090505b5090506000600460109054906101000a9004600f0b905060008090505b600154811015610a1b576000816001901b8816146109bd5761098c6002828154811061096357fe5b90600052602060002090600291828204019190066010029054906101000a9004600f0b876118be565b83828151811061099857fe5b6020026020010190600f0b9081600f0b815250506109b682876118be565b9150610a0e565b600281815481106109ca57fe5b90600052602060002090600291828204019190066010029054906101000a9004600f0b8382815181106109f957fe5b6020026020010190600f0b9081600f0b815250505b808060010191505061093b565b506000610a3782600360109054906101000a9004600f0b61195f565b905060008090505b600154811015610a8657610a7785610a72610a6d878581518110610a5f57fe5b6020026020010151866117c2565b611845565b6118be565b94508080600101915050610a3f565b50610a9981610a9486611925565b61195f565b94505050505092915050565b60015481565b60008060009054906101000a900473ffffffffffffffffffffffffffffffffffffffff16905090565b600063bc197c8160e01b905098975050505050505050565b6000600460009054906101000a9004600f0b610b0884846108e5565b03905092915050565b600063f23a6e6160e01b90509695505050505050565b610b2f6119ca565b73ffffffffffffffffffffffffffffffffffffffff166000809054906101000a900473ffffffffffffffffffffffffffffffffffffffff1673ffffffffffffffffffffffffffffffffffffffff1614610bf0576040517f08c379a00000000000000000000000000000000000000000000000000000000081526004018080602001828103825260208152602001807f4f776e61626c653a2063616c6c6572206973206e6f7420746865206f776e657281525060200191505060405180910390fd5b600073ffffffffffffffffffffffffffffffffffffffff168173ffffffffffffffffffffffffffffffffffffffff161415610c76576040517f08c379a0000000000000000000000000000000000000000000000000000000008152600401808060200182810382526026815260200180612e8d6026913960400191505060405180910390fd5b8073ffffffffffffffffffffffffffffffffffffffff166000809054906101000a900473ffffffffffffffffffffffffffffffffffffffff1673ffffffffffffffffffffffffffffffffffffffff167f8be0079c531659141344cd1fd0a4f28419497f9722a3daafe3b4186f6b6457e060405160405180910390a3806000806101000a81548173ffffffffffffffffffffffffffffffffffffffff021916908373ffffffffffffffffffffffffffffffffffffffff16021790555050565b610d3c6119ca565b73ffffffffffffffffffffffffffffffffffffffff166000809054906101000a900473ffffffffffffffffffffffffffffffffffffffff1673ffffffffffffffffffffffffffffffffffffffff1614610dfd576040517f08c379a00000000000000000000000000000000000000000000000000000000081526004018080602001828103825260208152602001807f4f776e61626c653a2063616c6c6572206973206e6f7420746865206f776e657281525060200191505060405180910390fd5b60001515600660149054906101000a900460ff16151514610e86576040517f08c379a000000000000000000000000000000000000000000000000000000000815260040180806020018281038252600c8152602001807f416c726561647920696e6974000000000000000000000000000000000000000081525060200191505060405180910390fd5b60008111610efc576040517f08c379a00000000000000000000000000000000000000000000000000000000081526004018080602001828103825260178152602001807f43616e6e6f7420686176652030206f766572726f756e6400000000000000000081525060200191505060405180910390fd5b600560009054906101000a900473ffffffffffffffffffffffffffffffffffffffff1673ffffffffffffffffffffffffffffffffffffffff1663d96ee754853073ffffffffffffffffffffffffffffffffffffffff1660001b866040518463ffffffff1660e01b8152600401808473ffffffffffffffffffffffffffffffffffffffff1673ffffffffffffffffffffffffffffffffffffffff1681526020018381526020018281526020019350505050600060405180830381600087803b158015610fc657600080fd5b505af1158015610fda573d6000803e3d6000fd5b5050505061101e6040518060400160405280601781526020017f436f6e646974696f6e205072657061726174696f6e3a2000000000000000000081525085856119d2565b6110403073ffffffffffffffffffffffffffffffffffffffff1660001b611b0e565b600660009054906101000a900473ffffffffffffffffffffffffffffffffffffffff1673ffffffffffffffffffffffffffffffffffffffff166323b872dd3330856040518463ffffffff1660e01b8152600401808473ffffffffffffffffffffffffffffffffffffffff1673ffffffffffffffffffffffffffffffffffffffff1681526020018373ffffffffffffffffffffffffffffffffffffffff1673ffffffffffffffffffffffffffffffffffffffff1681526020018281526020019350505050602060405180830381600087803b15801561111d57600080fd5b505af1158015611131573d6000803e3d6000fd5b505050506040513d602081101561114757600080fd5b81019080805190602001909291905050505082600181905550600061116b84611ba7565b9050600061118184670de0b6b3a7640000611bca565b9050600080611192856103e8611bca565b90506111af816111aa866111a588611925565b61195f565b6117c2565b600360106101000a8154816fffffffffffffffffffffffffffffffff0219169083600f0b6fffffffffffffffffffffffffffffffff16021790555061120c6111f7848661195f565b600360109054906101000a9004600f0b61195f565b600360006101000a8154816fffffffffffffffffffffffffffffffff0219169083600f0b6fffffffffffffffffffffffffffffffff160217905550600061126a61126585600360009054906101000a9004600f0b6117c2565b611845565b905060008090505b888110156112fc5760028590806001815401808255809150506001900390600052602060002090600291828204019190066010029091909190916101000a8154816fffffffffffffffffffffffffffffffff0219169083600f0b6fffffffffffffffffffffffffffffffff1602179055506112ed84836118be565b93508080600101915050611272565b506001600660146101000a81548160ff021916908315150217905550611322848661195f565b600460106101000a8154816fffffffffffffffffffffffffffffffff0219169083600f0b6fffffffffffffffffffffffffffffffff160217905550611365610699565b600460006101000a8154816fffffffffffffffffffffffffffffffff0219169083600f0b6fffffffffffffffffffffffffffffffff1602179055506113de6040518060400160405280601a81526020017f496e697469616c69736174696f6e20706172616d65746572733a000000000000815250611c32565b6114386040518060400160405280600a81526020017f416c7068613a2025732e00000000000000000000000000000000000000000000815250611433600360109054906101000a9004600f0b620f4240611d30565b611deb565b6114986040518060400160405280600881526020017f426574613a202573000000000000000000000000000000000000000000000000815250611489600360009054906101000a9004600f0b611ef2565b67ffffffffffffffff16611deb565b6114f86040518060400160405280600f81526020017f546f74616c2062616c616e63653a2000000000000000000000000000000000008152506114e9600460109054906101000a9004600f0b611ef2565b67ffffffffffffffff16611deb565b505050505050505050565b600060011515600660149054906101000a900460ff1615151461152557600080fd5b600080600090505b60015481101561163b576000816001901b86161461162e5761157e6002828154811061155557fe5b90600052602060002090600291828204019190066010029054906101000a9004600f0b856118be565b6002828154811061158b57fe5b90600052602060002090600291828204019190066010026101000a8154816fffffffffffffffffffffffffffffffff0219169083600f0b6fffffffffffffffffffffffffffffffff1602179055506115f2600460109054906101000a9004600f0b856118be565b600460106101000a8154816fffffffffffffffffffffffffffffffff0219169083600f0b6fffffffffffffffffffffffffffffffff1602179055505b808060010191505061152d565b50611664600460109054906101000a9004600f0b600360109054906101000a9004600f0b61195f565b600360006101000a8154816fffffffffffffffffffffffffffffffff0219169083600f0b6fffffffffffffffffffffffffffffffff16021790555060008090505b60015481101561171757611708826117036116fe600285815481106116c657fe5b90600052602060002090600291828204019190066010029054906101000a9004600f0b600360009054906101000a9004600f0b6117c2565b611845565b6118be565b915080806001019150506116a5565b50600061173b600360009054906101000a9004600f0b61173684611925565b61195f565b905061175681600460009054906101000a9004600f0b611f13565b925080600460006101000a8154816fffffffffffffffffffffffffffffffff0219169083600f0b6fffffffffffffffffffffffffffffffff160217905550505092915050565b600660009054906101000a900473ffffffffffffffffffffffffffffffffffffffff1681565b60008082600f0b14156117d457600080fd5b600082600f0b604085600f0b901b816117e957fe5b0590507fffffffffffffffffffffffffffffffff80000000000000000000000000000000600f0b811215801561183257506f7fffffffffffffffffffffffffffffff600f0b8113155b61183b57600080fd5b8091505092915050565b60006840000000000000000082600f0b1261185f57600080fd5b7fffffffffffffffffffffffffffffffffffffffffffffffc0000000000000000082600f0b121561189357600090506118b9565b6118b66080700171547652b82fe1777d0ffda0d23a7d1284600f0b02901d611f7a565b90505b919050565b60008082600f0b84600f0b0190507fffffffffffffffffffffffffffffffff80000000000000000000000000000000600f0b811215801561191257506f7fffffffffffffffffffffffffffffff600f0b8113155b61191b57600080fd5b8091505092915050565b60008082600f0b1361193657600080fd5b60806fb17217f7d1cf79abc9e3b39803f2f6af61195284612b7a565b600f0b02901c9050919050565b600080604083600f0b85600f0b02901d90507fffffffffffffffffffffffffffffffff80000000000000000000000000000000600f0b81121580156119b757506f7fffffffffffffffffffffffffffffff600f0b8113155b6119c057600080fd5b8091505092915050565b600033905090565b611b0983838360405160240180806020018473ffffffffffffffffffffffffffffffffffffffff1673ffffffffffffffffffffffffffffffffffffffff168152602001838152602001828103825285818151815260200191508051906020019080838360005b83811015611a53578082015181840152602081019050611a38565b50505050905090810190601f168015611a805780820380516001836020036101000a031916815260200191505b509450505050506040516020818303038152906040527f07c81217000000000000000000000000000000000000000000000000000000007bffffffffffffffffffffffffffffffffffffffffffffffffffffffff19166020820180517bffffffffffffffffffffffffffffffffffffffffffffffffffffffff8381831617835250505050612ca2565b505050565b611ba481604051602401808281526020019150506040516020818303038152906040527f27b7cf85000000000000000000000000000000000000000000000000000000007bffffffffffffffffffffffffffffffffffffffffffffffffffffffff19166020820180517bffffffffffffffffffffffffffffffffffffffffffffffffffffffff8381831617835250505050612ca2565b50565b6000677fffffffffffffff821115611bbe57600080fd5b604082901b9050919050565b600080821415611bd957600080fd5b6000611be58484612ccb565b90506f7fffffffffffffffffffffffffffffff6fffffffffffffffffffffffffffffffff16816fffffffffffffffffffffffffffffffff161115611c2857600080fd5b8091505092915050565b611d2d816040516024018080602001828103825283818151815260200191508051906020019080838360005b83811015611c79578082015181840152602081019050611c5e565b50505050905090810190601f168015611ca65780820380516001836020036101000a031916815260200191505b50925050506040516020818303038152906040527f41304fac000000000000000000000000000000000000000000000000000000007bffffffffffffffffffffffffffffffffffffffffffffffffffffffff19166020820180517bffffffffffffffffffffffffffffffffffffffffffffffffffffffff8381831617835250505050612ca2565b50565b600080821415611d435760009050611de5565b600083600f0b1215611d5457600080fd5b600060406fffffffffffffffffffffffffffffffff841685600f0b02901c90506000608084901c85600f0b02905077ffffffffffffffffffffffffffffffffffffffffffffffff811115611da757600080fd5b604081901b9050817fffffffffffffffffffffffffffffffffffffffffffffffffffffffffffffffff03811115611ddd57600080fd5b818101925050505b92915050565b611eee82826040516024018080602001838152602001828103825284818151815260200191508051906020019080838360005b83811015611e39578082015181840152602081019050611e1e565b50505050905090810190601f168015611e665780820380516001836020036101000a031916815260200191505b5093505050506040516020818303038152906040527f9710a9d0000000000000000000000000000000000000000000000000000000007bffffffffffffffffffffffffffffffffffffffffffffffffffffffff19166020820180517bffffffffffffffffffffffffffffffffffffffffffffffffffffffff8381831617835250505050612ca2565b5050565b60008082600f0b1215611f0457600080fd5b604082600f0b901d9050919050565b60008082600f0b84600f0b0390507fffffffffffffffffffffffffffffffff80000000000000000000000000000000600f0b8112158015611f6757506f7fffffffffffffffffffffffffffffff600f0b8113155b611f7057600080fd5b8091505092915050565b60006840000000000000000082600f0b12611f9457600080fd5b7fffffffffffffffffffffffffffffffffffffffffffffffc0000000000000000082600f0b1215611fc85760009050612b75565b60006f80000000000000000000000000000000905060006780000000000000008416600f0b131561200e57608070016a09e667f3bcc908b2fb1366ea957d3e8202901c90505b60006740000000000000008416600f0b131561203f5760807001306fe0a31b7152de8d5a46305c85edec8202901c90505b60006720000000000000008416600f0b13156120705760807001172b83c7d517adcdf7c8c50eb14a791f8202901c90505b60006710000000000000008416600f0b13156120a157608070010b5586cf9890f6298b92b71842a983638202901c90505b60006708000000000000008416600f0b13156120d25760807001059b0d31585743ae7c548eb68ca417fd8202901c90505b60006704000000000000008416600f0b1315612103576080700102c9a3e778060ee6f7caca4f7a29bde88202901c90505b60006702000000000000008416600f0b131561213457608070010163da9fb33356d84a66ae336dcdfa3f8202901c90505b60006701000000000000008416600f0b1315612165576080700100b1afa5abcbed6129ab13ec11dc95438202901c90505b600066800000000000008416600f0b131561219557608070010058c86da1c09ea1ff19d294cf2f679b8202901c90505b600066400000000000008416600f0b13156121c55760807001002c605e2e8cec506d21bfc89a23a00f8202901c90505b600066200000000000008416600f0b13156121f5576080700100162f3904051fa128bca9c55c31e5df8202901c90505b600066100000000000008416600f0b13156122255760807001000b175effdc76ba38e31671ca9397258202901c90505b600066080000000000008416600f0b1315612255576080700100058ba01fb9f96d6cacd4b180917c3d8202901c90505b600066040000000000008416600f0b131561228557608070010002c5cc37da9491d0985c348c68e7b38202901c90505b600066020000000000008416600f0b13156122b55760807001000162e525ee054754457d59952920268202901c90505b600066010000000000008416600f0b13156122e557608070010000b17255775c040618bf4a4ade83fc8202901c90505b6000658000000000008416600f0b13156123145760807001000058b91b5bc9ae2eed81e9b7d4cfab8202901c90505b6000654000000000008416600f0b1315612343576080700100002c5c89d5ec6ca4d7c8acc017b7c98202901c90505b6000652000000000008416600f0b131561237257608070010000162e43f4f831060e02d839a9d16d8202901c90505b6000651000000000008416600f0b13156123a1576080700100000b1721bcfc99d9f890ea069117638202901c90505b6000650800000000008416600f0b13156123d057608070010000058b90cf1e6d97f9ca14dbcc16288202901c90505b6000650400000000008416600f0b13156123ff5760807001000002c5c863b73f016468f6bac5ca2b8202901c90505b6000650200000000008416600f0b131561242e576080700100000162e430e5a18f6119e3c02282a58202901c90505b6000650100000000008416600f0b131561245d5760807001000000b1721835514b86e6d96efd1bfe8202901c90505b60006480000000008416600f0b131561248b576080700100000058b90c0b48c6be5df846c5b2ef8202901c90505b60006440000000008416600f0b13156124b957608070010000002c5c8601cc6b9e94213c72737a8202901c90505b60006420000000008416600f0b13156124e75760807001000000162e42fff037df38aa2b219f068202901c90505b60006410000000008416600f0b131561251557608070010000000b17217fba9c739aa5819f44f98202901c90505b60006408000000008416600f0b13156125435760807001000000058b90bfcdee5acd3c1cedc8238202901c90505b60006404000000008416600f0b1315612571576080700100000002c5c85fe31f35a6a30da1be508202901c90505b60006402000000008416600f0b131561259f57608070010000000162e42ff0999ce3541b9fffcf8202901c90505b60006401000000008416600f0b13156125cd576080700100000000b17217f80f4ef5aadda455548202901c90505b600063800000008416600f0b13156125fa57608070010000000058b90bfbf8479bd5a81b51ad8202901c90505b600063400000008416600f0b13156126275760807001000000002c5c85fdf84bd62ae30a74cc8202901c90505b600063200000008416600f0b1315612654576080700100000000162e42fefb2fed257559bdaa8202901c90505b600063100000008416600f0b13156126815760807001000000000b17217f7d5a7716bba4a9ae8202901c90505b600063080000008416600f0b13156126ae576080700100000000058b90bfbe9ddbac5e109cce8202901c90505b600063040000008416600f0b13156126db57608070010000000002c5c85fdf4b15de6f17eb0d8202901c90505b600063020000008416600f0b13156127085760807001000000000162e42fefa494f1478fde058202901c90505b600063010000008416600f0b131561273557608070010000000000b17217f7d20cf927c8e94c8202901c90505b6000628000008416600f0b13156127615760807001000000000058b90bfbe8f71cb4e4b33d8202901c90505b6000624000008416600f0b131561278d576080700100000000002c5c85fdf477b662b269458202901c90505b6000622000008416600f0b13156127b957608070010000000000162e42fefa3ae53369388c8202901c90505b6000621000008416600f0b13156127e5576080700100000000000b17217f7d1d351a389d408202901c90505b6000620800008416600f0b131561281157608070010000000000058b90bfbe8e8b2d3d4ede8202901c90505b6000620400008416600f0b131561283d5760807001000000000002c5c85fdf4741bea6e77e8202901c90505b6000620200008416600f0b1315612869576080700100000000000162e42fefa39fe95583c28202901c90505b6000620100008416600f0b13156128955760807001000000000000b17217f7d1cfb72b45e18202901c90505b60006180008416600f0b13156128c0576080700100000000000058b90bfbe8e7cc35c3f08202901c90505b60006140008416600f0b13156128eb57608070010000000000002c5c85fdf473e242ea388202901c90505b60006120008416600f0b13156129165760807001000000000000162e42fefa39f02b772c8202901c90505b60006110008416600f0b131561294157608070010000000000000b17217f7d1cf7d83c1a8202901c90505b60006108008416600f0b131561296c5760807001000000000000058b90bfbe8e7bdcbe2e8202901c90505b60006104008416600f0b1315612997576080700100000000000002c5c85fdf473dea871f8202901c90505b60006102008416600f0b13156129c257608070010000000000000162e42fefa39ef44d918202901c90505b60006101008416600f0b13156129ed576080700100000000000000b17217f7d1cf79e9498202901c90505b600060808416600f0b1315612a1757608070010000000000000058b90bfbe8e7bce5448202901c90505b600060408416600f0b1315612a415760807001000000000000002c5c85fdf473de6eca8202901c90505b600060208416600f0b1315612a6b576080700100000000000000162e42fefa39ef366f8202901c90505b600060108416600f0b1315612a955760807001000000000000000b17217f7d1cf79afa8202901c90505b600060088416600f0b1315612abf576080700100000000000000058b90bfbe8e7bcd6d8202901c90505b600060048416600f0b1315612ae957608070010000000000000002c5c85fdf473de6b28202901c90505b600060028416600f0b1315612b135760807001000000000000000162e42fefa39ef3588202901c90505b600060018416600f0b1315612b3d57608070010000000000000000b17217f7d1cf79ab8202901c90505b604083600f0b901d603f03600f0b81901c90506f7fffffffffffffffffffffffffffffff600f0b811115612b7057600080fd5b809150505b919050565b60008082600f0b13612b8b57600080fd5b6000809050600083600f0b9050680100000000000000008112612bb657604081901d90506040820191505b6401000000008112612bd057602081901d90506020820191505b620100008112612be857601081901d90506010820191505b6101008112612bff57600881901d90506008820191505b60108112612c1557600481901d90506004820191505b60048112612c2b57600281901d90506002820191505b60028112612c3a576001820191505b60006040808403901b9050600083607f0386600f0b901b9050600067800000000000000090505b6000811315612c95578182029150600060ff83901c905080607f0183901c92508082028401935050600181901d9050612c61565b5081945050505050919050565b60008151905060006a636f6e736f6c652e6c6f679050602083016000808483855afa5050505050565b600080821415612cda57600080fd5b600077ffffffffffffffffffffffffffffffffffffffffffffffff8411612d105782604085901b81612d0857fe5b049050612e65565b600060c09050600060c086901c90506401000000008110612d3957602081901c90506020820191505b620100008110612d5157601081901c90506010820191505b6101008110612d6857600881901c90506008820191505b60108110612d7e57600481901c90506004820191505b60048110612d9457600281901c90506002820191505b60028110612da3576001820191505b600160bf830360018703901c018260ff0387901b81612dbe57fe5b0492506fffffffffffffffffffffffffffffffff831115612dde57600080fd5b6000608086901c8402905060006fffffffffffffffffffffffffffffffff871685029050600060c089901c9050600060408a901b905082811015612e23576001820391505b8281039050608084901b925082811015612e3e576001820391505b8281039050608084901c8214612e5057fe5b888181612e5957fe5b04870196505050505050505b6fffffffffffffffffffffffffffffffff811115612e8257600080fd5b809150509291505056fe4f776e61626c653a206e6577206f776e657220697320746865207a65726f2061646472657373a2646970667358221220e2550c467c8c56f2318a43a91517ac540088f627e9b3fa210d4e41e38416bc1964736f6c63430006020033",
  "linkReferences": {},
  "deployedLinkReferences": {}
}