{
  "_format": "hh-sol-artifact-1",
  "contractName": "LsLMSR",
  "sourceName": "contracts/LsLMSR.sol",
  "abi": [
    {
      "inputs": [
        {
          "internalType": "address",
          "name": "_ct",
          "type": "address"
        },
        {
          "internalType": "address",
          "name": "_oracle",
          "type": "address"
        },
        {
          "internalType": "uint256",
          "name": "_numOutcomes",
          "type": "uint256"
        },
        {
          "internalType": "uint256",
          "name": "_subsidy",
          "type": "uint256"
        }
      ],
      "stateMutability": "nonpayable",
      "type": "constructor"
    },
    {
      "anonymous": false,
      "inputs": [
        {
          "indexed": true,
          "internalType": "address",
          "name": "previousOwner",
          "type": "address"
        },
        {
          "indexed": true,
          "internalType": "address",
          "name": "newOwner",
          "type": "address"
        }
      ],
      "name": "OwnershipTransferred",
      "type": "event"
    },
    {
      "inputs": [
        {
          "internalType": "uint256",
          "name": "_outcome",
          "type": "uint256"
        },
        {
          "internalType": "int128",
          "name": "_amount",
          "type": "int128"
        }
      ],
      "name": "buy",
      "outputs": [
        {
          "internalType": "int128",
          "name": "_price",
          "type": "int128"
        }
      ],
      "stateMutability": "nonpayable",
      "type": "function"
    },
    {
      "inputs": [
        {
          "internalType": "uint256",
          "name": "_outcome",
          "type": "uint256"
        },
        {
          "internalType": "uint256",
          "name": "_amount",
          "type": "uint256"
        }
      ],
      "name": "buyU",
      "outputs": [
        {
          "internalType": "uint256",
          "name": "",
          "type": "uint256"
        }
      ],
      "stateMutability": "nonpayable",
      "type": "function"
    },
    {
      "inputs": [],
      "name": "cost",
      "outputs": [
        {
          "internalType": "int128",
          "name": "",
          "type": "int128"
        }
      ],
      "stateMutability": "view",
      "type": "function"
    },
    {
      "inputs": [],
      "name": "costU",
      "outputs": [
        {
          "internalType": "uint256",
          "name": "",
          "type": "uint256"
        }
      ],
      "stateMutability": "view",
      "type": "function"
    },
    {
      "inputs": [
        {
          "internalType": "uint256",
          "name": "_outcome",
          "type": "uint256"
        },
        {
          "internalType": "int128",
          "name": "_amount",
          "type": "int128"
        }
      ],
      "name": "cost_after_buy",
      "outputs": [
        {
          "internalType": "int128",
          "name": "",
          "type": "int128"
        }
      ],
      "stateMutability": "view",
      "type": "function"
    },
    {
      "inputs": [
        {
          "internalType": "uint256",
          "name": "_outcome",
          "type": "uint256"
        },
        {
          "internalType": "uint256",
          "name": "_amount",
          "type": "uint256"
        }
      ],
      "name": "cost_after_buyU",
      "outputs": [
        {
          "internalType": "int128",
          "name": "",
          "type": "int128"
        }
      ],
      "stateMutability": "view",
      "type": "function"
    },
    {
      "inputs": [],
      "name": "numOutcomes",
      "outputs": [
        {
          "internalType": "uint256",
          "name": "",
          "type": "uint256"
        }
      ],
      "stateMutability": "view",
      "type": "function"
    },
    {
      "inputs": [
        {
          "internalType": "address",
          "name": "operator",
          "type": "address"
        },
        {
          "internalType": "address",
          "name": "from",
          "type": "address"
        },
        {
          "internalType": "uint256[]",
          "name": "ids",
          "type": "uint256[]"
        },
        {
          "internalType": "uint256[]",
          "name": "values",
          "type": "uint256[]"
        },
        {
          "internalType": "bytes",
          "name": "data",
          "type": "bytes"
        }
      ],
      "name": "onERC1155BatchReceived",
      "outputs": [
        {
          "internalType": "bytes4",
          "name": "",
          "type": "bytes4"
        }
      ],
      "stateMutability": "nonpayable",
      "type": "function"
    },
    {
      "inputs": [
        {
          "internalType": "address",
          "name": "operator",
          "type": "address"
        },
        {
          "internalType": "address",
          "name": "from",
          "type": "address"
        },
        {
          "internalType": "uint256",
          "name": "id",
          "type": "uint256"
        },
        {
          "internalType": "uint256",
          "name": "value",
          "type": "uint256"
        },
        {
          "internalType": "bytes",
          "name": "data",
          "type": "bytes"
        }
      ],
      "name": "onERC1155Received",
      "outputs": [
        {
          "internalType": "bytes4",
          "name": "",
          "type": "bytes4"
        }
      ],
      "stateMutability": "nonpayable",
      "type": "function"
    },
    {
      "inputs": [],
      "name": "owner",
      "outputs": [
        {
          "internalType": "address",
          "name": "",
          "type": "address"
        }
      ],
      "stateMutability": "view",
      "type": "function"
    },
    {
      "inputs": [
        {
          "internalType": "uint256",
          "name": "_outcome",
          "type": "uint256"
        },
        {
          "internalType": "int128",
          "name": "_amount",
          "type": "int128"
        }
      ],
      "name": "price",
      "outputs": [
        {
          "internalType": "int128",
          "name": "",
          "type": "int128"
        }
      ],
      "stateMutability": "view",
      "type": "function"
    },
    {
      "inputs": [
        {
          "internalType": "uint256",
          "name": "_outcome",
          "type": "uint256"
        },
        {
          "internalType": "uint256",
          "name": "_amount",
          "type": "uint256"
        }
      ],
      "name": "priceU",
      "outputs": [
        {
          "internalType": "uint256",
          "name": "",
          "type": "uint256"
        }
      ],
      "stateMutability": "view",
      "type": "function"
    },
    {
      "inputs": [],
      "name": "renounceOwnership",
      "outputs": [],
      "stateMutability": "nonpayable",
      "type": "function"
    },
    {
      "inputs": [
        {
          "internalType": "bytes4",
          "name": "interfaceId",
          "type": "bytes4"
        }
      ],
      "name": "supportsInterface",
      "outputs": [
        {
          "internalType": "bool",
          "name": "",
          "type": "bool"
        }
      ],
      "stateMutability": "view",
      "type": "function"
    },
    {
      "inputs": [
        {
          "internalType": "address",
          "name": "newOwner",
          "type": "address"
        }
      ],
      "name": "transferOwnership",
      "outputs": [],
      "stateMutability": "nonpayable",
      "type": "function"
    }
  ],
  "bytecode": "0x60806040523480156200001157600080fd5b50604051620046ea380380620046ea833981810160405260808110156200003757600080fd5b81019080805190602001909291908051906020019092919080519060200190929190805190602001909291905050506000620000786200071c60201b60201c565b9050806000806101000a81548173ffffffffffffffffffffffffffffffffffffffff021916908373ffffffffffffffffffffffffffffffffffffffff1602179055508073ffffffffffffffffffffffffffffffffffffffff16600073ffffffffffffffffffffffffffffffffffffffff167f8be0079c531659141344cd1fd0a4f28419497f9722a3daafe3b4186f6b6457e060405160405180910390a35083600560006101000a81548173ffffffffffffffffffffffffffffffffffffffff021916908373ffffffffffffffffffffffffffffffffffffffff160217905550600560009054906101000a900473ffffffffffffffffffffffffffffffffffffffff1673ffffffffffffffffffffffffffffffffffffffff1663d96ee75484600160001b856040518463ffffffff1660e01b8152600401808473ffffffffffffffffffffffffffffffffffffffff1673ffffffffffffffffffffffffffffffffffffffff1681526020018381526020018281526020019350505050600060405180830381600087803b1580156200020d57600080fd5b505af115801562000222573d6000803e3d6000fd5b505050506200028d6040518060400160405280601781526020017f436f6e646974696f6e205072657061726174696f6e3a2000000000000000000081525084604051806060016040528060228152602001620046c860229139856200072460201b620023761760201c565b816001819055506000620002ac83620008dc60201b620025201760201c565b90506000620002cf83670de0b6b3a76400006200090060201b620012da1760201c565b905060006200032d60016200031c600a6200030b87620002fa896200097260201b620012351760201c565b620009b560201b6200126f1760201c565b620009b560201b6200126f1760201c565b62000a2260201b620010d21760201c565b600360106101000a8154816fffffffffffffffffffffffffffffffff0219169083600f0b6fffffffffffffffffffffffffffffffff160217905550620003a4620003838385620009b560201b6200126f1760201c565b600360109054906101000a9004600f0b620009b560201b6200126f1760201c565b600360006101000a8154816fffffffffffffffffffffffffffffffff0219169083600f0b6fffffffffffffffffffffffffffffffff16021790555060006200041c6200040b84600360009054906101000a9004600f0b62000a2260201b620010d21760201c565b62000aa960201b620011551760201c565b905060008090505b86811015620004bd5760028490806001815401808255809150506001900390600052602060002090600291828204019190066010029091909190916101000a8154816fffffffffffffffffffffffffffffffff0219169083600f0b6fffffffffffffffffffffffffffffffff160217905550620004ad838362000b2d60201b620011ce1760201c565b9250808060010191505062000424565b50620004d58385620009b560201b6200126f1760201c565b600460106101000a8154816fffffffffffffffffffffffffffffffff0219169083600f0b6fffffffffffffffffffffffffffffffff1602179055506200052062000b9660201b60201c565b600460006101000a8154816fffffffffffffffffffffffffffffffff0219169083600f0b6fffffffffffffffffffffffffffffffff160217905550620005a66040518060400160405280601a81526020017f496e697469616c69736174696f6e20706172616d65746572733a00000000000081525062000c7d60201b620025431760201c565b6200061a6040518060400160405280600a81526020017f416c7068613a2025732e0000000000000000000000000000000000000000000081525062000609600360109054906101000a9004600f0b620f424062000d8660201b6200136b1760201c565b62000e4660201b620026411760201c565b620006946040518060400160405280600881526020017f426574613a20257300000000000000000000000000000000000000000000000081525062000679600360009054906101000a9004600f0b62000f5860201b620013421760201c565b67ffffffffffffffff1662000e4660201b620026411760201c565b6200070e6040518060400160405280600f81526020017f546f74616c2062616c616e63653a200000000000000000000000000000000000815250620006f3600460109054906101000a9004600f0b62000f5860201b620013421760201c565b67ffffffffffffffff1662000e4660201b620026411760201c565b505050505050505062001eeb565b600033905090565b620008d68484848460405160240180806020018573ffffffffffffffffffffffffffffffffffffffff1673ffffffffffffffffffffffffffffffffffffffff16815260200180602001848152602001838103835287818151815260200191508051906020019080838360005b83811015620007ad57808201518184015260208101905062000790565b50505050905090810190601f168015620007db5780820380516001836020036101000a031916815260200191505b50838103825285818151815260200191508051906020019080838360005b8381101562000816578082015181840152602081019050620007f9565b50505050905090810190601f168015620008445780820380516001836020036101000a031916815260200191505b5096505050505050506040516020818303038152906040527f8f624be9000000000000000000000000000000000000000000000000000000007bffffffffffffffffffffffffffffffffffffffffffffffffffffffff19166020820180517bffffffffffffffffffffffffffffffffffffffffffffffffffffffff838183161783525050505062000f7a60201b60201c565b50505050565b6000677fffffffffffffff821115620008f457600080fd5b604082901b9050919050565b6000808214156200091057600080fd5b600062000924848462000fa360201b60201c565b90506f7fffffffffffffffffffffffffffffff6fffffffffffffffffffffffffffffffff16816fffffffffffffffffffffffffffffffff1611156200096857600080fd5b8091505092915050565b60008082600f0b136200098457600080fd5b60806fb17217f7d1cf79abc9e3b39803f2f6af620009a8846200117560201b60201c565b600f0b02901c9050919050565b600080604083600f0b85600f0b02901d90507fffffffffffffffffffffffffffffffff80000000000000000000000000000000600f0b811215801562000a0e57506f7fffffffffffffffffffffffffffffff600f0b8113155b62000a1857600080fd5b8091505092915050565b60008082600f0b141562000a3557600080fd5b600082600f0b604085600f0b901b8162000a4b57fe5b0590507fffffffffffffffffffffffffffffffff80000000000000000000000000000000600f0b811215801562000a9557506f7fffffffffffffffffffffffffffffff600f0b8113155b62000a9f57600080fd5b8091505092915050565b60006840000000000000000082600f0b1262000ac457600080fd5b7fffffffffffffffffffffffffffffffffffffffffffffffc0000000000000000082600f0b121562000afa576000905062000b28565b62000b256080700171547652b82fe1777d0ffda0d23a7d1284600f0b02901d620012a760201b60201c565b90505b919050565b60008082600f0b84600f0b0190507fffffffffffffffffffffffffffffffff80000000000000000000000000000000600f0b811215801562000b8257506f7fffffffffffffffffffffffffffffff600f0b8113155b62000b8c57600080fd5b8091505092915050565b60008060008090505b60015481101562000c3b5762000c2b8262000c1a62000c096002858154811062000bc557fe5b90600052602060002090600291828204019190066010029054906101000a9004600f0b600360009054906101000a9004600f0b62000a2260201b620010d21760201c565b62000aa960201b620011551760201c565b62000b2d60201b620011ce1760201c565b9150808060010191505062000b9f565b5062000c77600360009054906101000a9004600f0b62000c66836200097260201b620012351760201c565b620009b560201b6200126f1760201c565b91505090565b62000d83816040516024018080602001828103825283818151815260200191508051906020019080838360005b8381101562000cc757808201518184015260208101905062000caa565b50505050905090810190601f16801562000cf55780820380516001836020036101000a031916815260200191505b50925050506040516020818303038152906040527f41304fac000000000000000000000000000000000000000000000000000000007bffffffffffffffffffffffffffffffffffffffffffffffffffffffff19166020820180517bffffffffffffffffffffffffffffffffffffffffffffffffffffffff838183161783525050505062000f7a60201b60201c565b50565b60008082141562000d9b576000905062000e40565b600083600f0b121562000dad57600080fd5b600060406fffffffffffffffffffffffffffffffff841685600f0b02901c90506000608084901c85600f0b02905077ffffffffffffffffffffffffffffffffffffffffffffffff81111562000e0157600080fd5b604081901b9050817fffffffffffffffffffffffffffffffffffffffffffffffffffffffffffffffff0381111562000e3857600080fd5b818101925050505b92915050565b62000f5482826040516024018080602001838152602001828103825284818151815260200191508051906020019080838360005b8381101562000e9757808201518184015260208101905062000e7a565b50505050905090810190601f16801562000ec55780820380516001836020036101000a031916815260200191505b5093505050506040516020818303038152906040527f9710a9d0000000000000000000000000000000000000000000000000000000007bffffffffffffffffffffffffffffffffffffffffffffffffffffffff19166020820180517bffffffffffffffffffffffffffffffffffffffffffffffffffffffff838183161783525050505062000f7a60201b60201c565b5050565b60008082600f0b121562000f6b57600080fd5b604082600f0b901d9050919050565b60008151905060006a636f6e736f6c652e6c6f679050602083016000808483855afa5050505050565b60008082141562000fb357600080fd5b600077ffffffffffffffffffffffffffffffffffffffffffffffff841162000fec5782604085901b8162000fe357fe5b0490506200114d565b600060c09050600060c086901c905064010000000081106200101657602081901c90506020820191505b6201000081106200102f57601081901c90506010820191505b61010081106200104757600881901c90506008820191505b601081106200105e57600481901c90506004820191505b600481106200107557600281901c90506002820191505b6002811062001085576001820191505b600160bf830360018703901c018260ff0387901b81620010a157fe5b0492506fffffffffffffffffffffffffffffffff831115620010c257600080fd5b6000608086901c8402905060006fffffffffffffffffffffffffffffffff871685029050600060c089901c9050600060408a901b90508281101562001108576001820391505b8281039050608084901b92508281101562001124576001820391505b8281039050608084901c82146200113757fe5b8881816200114157fe5b04870196505050505050505b6fffffffffffffffffffffffffffffffff8111156200116b57600080fd5b8091505092915050565b60008082600f0b136200118757600080fd5b6000809050600083600f0b9050680100000000000000008112620011b357604081901d90506040820191505b6401000000008112620011ce57602081901d90506020820191505b620100008112620011e757601081901d90506010820191505b6101008112620011ff57600881901d90506008820191505b601081126200121657600481901d90506004820191505b600481126200122d57600281901d90506002820191505b600281126200123d576001820191505b60006040808403901b9050600083607f0386600f0b901b9050600067800000000000000090505b60008113156200129a578182029150600060ff83901c905080607f0183901c92508082028401935050600181901d905062001264565b5081945050505050919050565b60006840000000000000000082600f0b12620012c257600080fd5b7fffffffffffffffffffffffffffffffffffffffffffffffc0000000000000000082600f0b1215620012f8576000905062001ee6565b60006f80000000000000000000000000000000905060006780000000000000008416600f0b13156200133f57608070016a09e667f3bcc908b2fb1366ea957d3e8202901c90505b60006740000000000000008416600f0b1315620013715760807001306fe0a31b7152de8d5a46305c85edec8202901c90505b60006720000000000000008416600f0b1315620013a35760807001172b83c7d517adcdf7c8c50eb14a791f8202901c90505b60006710000000000000008416600f0b1315620013d557608070010b5586cf9890f6298b92b71842a983638202901c90505b60006708000000000000008416600f0b1315620014075760807001059b0d31585743ae7c548eb68ca417fd8202901c90505b60006704000000000000008416600f0b131562001439576080700102c9a3e778060ee6f7caca4f7a29bde88202901c90505b60006702000000000000008416600f0b13156200146b57608070010163da9fb33356d84a66ae336dcdfa3f8202901c90505b60006701000000000000008416600f0b13156200149d576080700100b1afa5abcbed6129ab13ec11dc95438202901c90505b600066800000000000008416600f0b1315620014ce57608070010058c86da1c09ea1ff19d294cf2f679b8202901c90505b600066400000000000008416600f0b1315620014ff5760807001002c605e2e8cec506d21bfc89a23a00f8202901c90505b600066200000000000008416600f0b131562001530576080700100162f3904051fa128bca9c55c31e5df8202901c90505b600066100000000000008416600f0b1315620015615760807001000b175effdc76ba38e31671ca9397258202901c90505b600066080000000000008416600f0b131562001592576080700100058ba01fb9f96d6cacd4b180917c3d8202901c90505b600066040000000000008416600f0b1315620015c357608070010002c5cc37da9491d0985c348c68e7b38202901c90505b600066020000000000008416600f0b1315620015f45760807001000162e525ee054754457d59952920268202901c90505b600066010000000000008416600f0b13156200162557608070010000b17255775c040618bf4a4ade83fc8202901c90505b6000658000000000008416600f0b1315620016555760807001000058b91b5bc9ae2eed81e9b7d4cfab8202901c90505b6000654000000000008416600f0b131562001685576080700100002c5c89d5ec6ca4d7c8acc017b7c98202901c90505b6000652000000000008416600f0b1315620016b557608070010000162e43f4f831060e02d839a9d16d8202901c90505b6000651000000000008416600f0b1315620016e5576080700100000b1721bcfc99d9f890ea069117638202901c90505b6000650800000000008416600f0b13156200171557608070010000058b90cf1e6d97f9ca14dbcc16288202901c90505b6000650400000000008416600f0b1315620017455760807001000002c5c863b73f016468f6bac5ca2b8202901c90505b6000650200000000008416600f0b131562001775576080700100000162e430e5a18f6119e3c02282a58202901c90505b6000650100000000008416600f0b1315620017a55760807001000000b1721835514b86e6d96efd1bfe8202901c90505b60006480000000008416600f0b1315620017d4576080700100000058b90c0b48c6be5df846c5b2ef8202901c90505b60006440000000008416600f0b13156200180357608070010000002c5c8601cc6b9e94213c72737a8202901c90505b60006420000000008416600f0b1315620018325760807001000000162e42fff037df38aa2b219f068202901c90505b60006410000000008416600f0b13156200186157608070010000000b17217fba9c739aa5819f44f98202901c90505b60006408000000008416600f0b1315620018905760807001000000058b90bfcdee5acd3c1cedc8238202901c90505b60006404000000008416600f0b1315620018bf576080700100000002c5c85fe31f35a6a30da1be508202901c90505b60006402000000008416600f0b1315620018ee57608070010000000162e42ff0999ce3541b9fffcf8202901c90505b60006401000000008416600f0b13156200191d576080700100000000b17217f80f4ef5aadda455548202901c90505b600063800000008416600f0b13156200194b57608070010000000058b90bfbf8479bd5a81b51ad8202901c90505b600063400000008416600f0b1315620019795760807001000000002c5c85fdf84bd62ae30a74cc8202901c90505b600063200000008416600f0b1315620019a7576080700100000000162e42fefb2fed257559bdaa8202901c90505b600063100000008416600f0b1315620019d55760807001000000000b17217f7d5a7716bba4a9ae8202901c90505b600063080000008416600f0b131562001a03576080700100000000058b90bfbe9ddbac5e109cce8202901c90505b600063040000008416600f0b131562001a3157608070010000000002c5c85fdf4b15de6f17eb0d8202901c90505b600063020000008416600f0b131562001a5f5760807001000000000162e42fefa494f1478fde058202901c90505b600063010000008416600f0b131562001a8d57608070010000000000b17217f7d20cf927c8e94c8202901c90505b6000628000008416600f0b131562001aba5760807001000000000058b90bfbe8f71cb4e4b33d8202901c90505b6000624000008416600f0b131562001ae7576080700100000000002c5c85fdf477b662b269458202901c90505b6000622000008416600f0b131562001b1457608070010000000000162e42fefa3ae53369388c8202901c90505b6000621000008416600f0b131562001b41576080700100000000000b17217f7d1d351a389d408202901c90505b6000620800008416600f0b131562001b6e57608070010000000000058b90bfbe8e8b2d3d4ede8202901c90505b6000620400008416600f0b131562001b9b5760807001000000000002c5c85fdf4741bea6e77e8202901c90505b6000620200008416600f0b131562001bc8576080700100000000000162e42fefa39fe95583c28202901c90505b6000620100008416600f0b131562001bf55760807001000000000000b17217f7d1cfb72b45e18202901c90505b60006180008416600f0b131562001c21576080700100000000000058b90bfbe8e7cc35c3f08202901c90505b60006140008416600f0b131562001c4d57608070010000000000002c5c85fdf473e242ea388202901c90505b60006120008416600f0b131562001c795760807001000000000000162e42fefa39f02b772c8202901c90505b60006110008416600f0b131562001ca557608070010000000000000b17217f7d1cf7d83c1a8202901c90505b60006108008416600f0b131562001cd15760807001000000000000058b90bfbe8e7bdcbe2e8202901c90505b60006104008416600f0b131562001cfd576080700100000000000002c5c85fdf473dea871f8202901c90505b60006102008416600f0b131562001d2957608070010000000000000162e42fefa39ef44d918202901c90505b60006101008416600f0b131562001d55576080700100000000000000b17217f7d1cf79e9498202901c90505b600060808416600f0b131562001d8057608070010000000000000058b90bfbe8e7bce5448202901c90505b600060408416600f0b131562001dab5760807001000000000000002c5c85fdf473de6eca8202901c90505b600060208416600f0b131562001dd6576080700100000000000000162e42fefa39ef366f8202901c90505b600060108416600f0b131562001e015760807001000000000000000b17217f7d1cf79afa8202901c90505b600060088416600f0b131562001e2c576080700100000000000000058b90bfbe8e7bcd6d8202901c90505b600060048416600f0b131562001e5757608070010000000000000002c5c85fdf473de6b28202901c90505b600060028416600f0b131562001e825760807001000000000000000162e42fefa39ef3588202901c90505b600060018416600f0b131562001ead57608070010000000000000000b17217f7d1cf79ab8202901c90505b604083600f0b901d603f03600f0b81901c90506f7fffffffffffffffffffffffffffffff600f0b81111562001ee157600080fd5b809150505b919050565b6127cd8062001efb6000396000f3fe608060405234801561001057600080fd5b50600436106100f55760003560e01c8063bc197c8111610097578063df7bd8fc11610066578063df7bd8fc14610507578063f23a6e611461055c578063f2fde38b1461067b578063f76da1d9146106bf576100f5565b8063bc197c811461029c578063bee733b114610451578063c0e6fdc71461049d578063cb880e09146104bb576100f5565b8063715018a6116100d3578063715018a6146101d55780638062dd93146101df5780638767d64e146102345780638da5cb5b14610252576100f5565b806301ffc9a7146100fa57806313faede61461015f5780632395209d14610183575b600080fd5b6101456004803603602081101561011057600080fd5b8101908080357bffffffffffffffffffffffffffffffffffffffffffffffffffffffff19169060200190929190505050610714565b604051808215151515815260200191505060405180910390f35b61016761071b565b6040518082600f0b600f0b815260200191505060405180910390f35b6101b96004803603604081101561019957600080fd5b8101908080359060200190929190803590602001909291905050506107be565b6040518082600f0b600f0b815260200191505060405180910390f35b6101dd6107f5565b005b610218600480360360408110156101f557600080fd5b81019080803590602001909291908035600f0b906020019092919050505061097d565b6040518082600f0b600f0b815260200191505060405180910390f35b61023c610b3d565b6040518082815260200191505060405180910390f35b61025a610b43565b604051808273ffffffffffffffffffffffffffffffffffffffff1673ffffffffffffffffffffffffffffffffffffffff16815260200191505060405180910390f35b6103fd600480360360a08110156102b257600080fd5b81019080803573ffffffffffffffffffffffffffffffffffffffff169060200190929190803573ffffffffffffffffffffffffffffffffffffffff1690602001909291908035906020019064010000000081111561030f57600080fd5b82018360208201111561032157600080fd5b8035906020019184602083028401116401000000008311171561034357600080fd5b90919293919293908035906020019064010000000081111561036457600080fd5b82018360208201111561037657600080fd5b8035906020019184602083028401116401000000008311171561039857600080fd5b9091929391929390803590602001906401000000008111156103b957600080fd5b8201836020820111156103cb57600080fd5b803590602001918460018302840111640100000000831117156103ed57600080fd5b9091929391929390505050610b6c565b60405180827bffffffffffffffffffffffffffffffffffffffffffffffffffffffff19167bffffffffffffffffffffffffffffffffffffffffffffffffffffffff1916815260200191505060405180910390f35b6104876004803603604081101561046757600080fd5b810190808035906020019092919080359060200190929190505050610b84565b6040518082815260200191505060405180910390f35b6104a5610bbb565b6040518082815260200191505060405180910390f35b6104f1600480360360408110156104d157600080fd5b810190808035906020019092919080359060200190929190505050610bdc565b6040518082815260200191505060405180910390f35b6105406004803603604081101561051d57600080fd5b81019080803590602001909291908035600f0b9060200190929190505050610c12565b6040518082600f0b600f0b815260200191505060405180910390f35b610627600480360360a081101561057257600080fd5b81019080803573ffffffffffffffffffffffffffffffffffffffff169060200190929190803573ffffffffffffffffffffffffffffffffffffffff1690602001909291908035906020019092919080359060200190929190803590602001906401000000008111156105e357600080fd5b8201836020820111156105f557600080fd5b8035906020019184600183028401116401000000008311171561061757600080fd5b9091929391929390505050610c37565b60405180827bffffffffffffffffffffffffffffffffffffffffffffffffffffffff19167bffffffffffffffffffffffffffffffffffffffffffffffffffffffff1916815260200191505060405180910390f35b6106bd6004803603602081101561069157600080fd5b81019080803573ffffffffffffffffffffffffffffffffffffffff169060200190929190505050610c4d565b005b6106f8600480360360408110156106d557600080fd5b81019080803590602001909291908035600f0b9060200190929190505050610e5a565b6040518082600f0b600f0b815260200191505060405180910390f35b6000919050565b60008060008090505b600154811015610796576107878261078261077d6002858154811061074557fe5b90600052602060002090600291828204019190066010029054906101000a9004600f0b600360009054906101000a9004600f0b6110d2565b611155565b6111ce565b91508080600101915050610724565b506107b8600360009054906101000a9004600f0b6107b383611235565b61126f565b91505090565b60006107e36107de846107d985670de0b6b3a76400006112da565b61097d565b611342565b67ffffffffffffffff16905092915050565b6107fd611363565b73ffffffffffffffffffffffffffffffffffffffff166000809054906101000a900473ffffffffffffffffffffffffffffffffffffffff1673ffffffffffffffffffffffffffffffffffffffff16146108be576040517f08c379a00000000000000000000000000000000000000000000000000000000081526004018080602001828103825260208152602001807f4f776e61626c653a2063616c6c6572206973206e6f7420746865206f776e657281525060200191505060405180910390fd5b600073ffffffffffffffffffffffffffffffffffffffff166000809054906101000a900473ffffffffffffffffffffffffffffffffffffffff1673ffffffffffffffffffffffffffffffffffffffff167f8be0079c531659141344cd1fd0a4f28419497f9722a3daafe3b4186f6b6457e060405160405180910390a360008060006101000a81548173ffffffffffffffffffffffffffffffffffffffff021916908373ffffffffffffffffffffffffffffffffffffffff160217905550565b60008060606002805490506040519080825280602002602001820160405280156109b65781602001602082028038833980820191505090505b5090506000600460109054906101000a9004600f0b905060008090505b600154811015610ab3576000816001901b881614610a5557610a24600282815481106109fb57fe5b90600052602060002090600291828204019190066010029054906101000a9004600f0b876111ce565b838281518110610a3057fe5b6020026020010190600f0b9081600f0b81525050610a4e82876111ce565b9150610aa6565b60028181548110610a6257fe5b90600052602060002090600291828204019190066010029054906101000a9004600f0b838281518110610a9157fe5b6020026020010190600f0b9081600f0b815250505b80806001019150506109d3565b506000610acf82600360109054906101000a9004600f0b61126f565b905060008090505b600154811015610b1e57610b0f85610b0a610b05878581518110610af757fe5b6020026020010151866110d2565b611155565b6111ce565b94508080600101915050610ad7565b50610b3181610b2c86611235565b61126f565b94505050505092915050565b60015481565b60008060009054906101000a900473ffffffffffffffffffffffffffffffffffffffff16905090565b600063bc197c8160e01b905098975050505050505050565b6000610ba9610ba484610b9f85670de0b6b3a76400006112da565b610c12565b611342565b67ffffffffffffffff16905092915050565b6000610bcd610bc861071b565b611342565b67ffffffffffffffff16905090565b6000610c0a610bfc84610bf785670de0b6b3a76400006112da565b610e5a565b670de0b6b3a764000061136b565b905092915050565b6000600460009054906101000a9004600f0b610c2e848461097d565b03905092915050565b600063f23a6e6160e01b90509695505050505050565b610c55611363565b73ffffffffffffffffffffffffffffffffffffffff166000809054906101000a900473ffffffffffffffffffffffffffffffffffffffff1673ffffffffffffffffffffffffffffffffffffffff1614610d16576040517f08c379a00000000000000000000000000000000000000000000000000000000081526004018080602001828103825260208152602001807f4f776e61626c653a2063616c6c6572206973206e6f7420746865206f776e657281525060200191505060405180910390fd5b600073ffffffffffffffffffffffffffffffffffffffff168173ffffffffffffffffffffffffffffffffffffffff161415610d9c576040517f08c379a00000000000000000000000000000000000000000000000000000000081526004018080602001828103825260268152602001806127726026913960400191505060405180910390fd5b8073ffffffffffffffffffffffffffffffffffffffff166000809054906101000a900473ffffffffffffffffffffffffffffffffffffffff1673ffffffffffffffffffffffffffffffffffffffff167f8be0079c531659141344cd1fd0a4f28419497f9722a3daafe3b4186f6b6457e060405160405180910390a3806000806101000a81548173ffffffffffffffffffffffffffffffffffffffff021916908373ffffffffffffffffffffffffffffffffffffffff16021790555050565b60008060008090505b600154811015610f71576000816001901b861614610f6457610eb460028281548110610e8b57fe5b90600052602060002090600291828204019190066010029054906101000a9004600f0b856111ce565b60028281548110610ec157fe5b90600052602060002090600291828204019190066010026101000a8154816fffffffffffffffffffffffffffffffff0219169083600f0b6fffffffffffffffffffffffffffffffff160217905550610f28600460109054906101000a9004600f0b856111ce565b600460106101000a8154816fffffffffffffffffffffffffffffffff0219169083600f0b6fffffffffffffffffffffffffffffffff1602179055505b8080600101915050610e63565b50610f9a600460109054906101000a9004600f0b600360109054906101000a9004600f0b61126f565b600360006101000a8154816fffffffffffffffffffffffffffffffff0219169083600f0b6fffffffffffffffffffffffffffffffff16021790555060008090505b60015481101561104d5761103e8261103961103460028581548110610ffc57fe5b90600052602060002090600291828204019190066010029054906101000a9004600f0b600360009054906101000a9004600f0b6110d2565b611155565b6111ce565b91508080600101915050610fdb565b506000611071600360009054906101000a9004600f0b61106c84611235565b61126f565b905061108c81600460009054906101000a9004600f0b611426565b925080600460006101000a8154816fffffffffffffffffffffffffffffffff0219169083600f0b6fffffffffffffffffffffffffffffffff160217905550505092915050565b60008082600f0b14156110e457600080fd5b600082600f0b604085600f0b901b816110f957fe5b0590507fffffffffffffffffffffffffffffffff80000000000000000000000000000000600f0b811215801561114257506f7fffffffffffffffffffffffffffffff600f0b8113155b61114b57600080fd5b8091505092915050565b60006840000000000000000082600f0b1261116f57600080fd5b7fffffffffffffffffffffffffffffffffffffffffffffffc0000000000000000082600f0b12156111a357600090506111c9565b6111c66080700171547652b82fe1777d0ffda0d23a7d1284600f0b02901d61148d565b90505b919050565b60008082600f0b84600f0b0190507fffffffffffffffffffffffffffffffff80000000000000000000000000000000600f0b811215801561122257506f7fffffffffffffffffffffffffffffff600f0b8113155b61122b57600080fd5b8091505092915050565b60008082600f0b1361124657600080fd5b60806fb17217f7d1cf79abc9e3b39803f2f6af6112628461208d565b600f0b02901c9050919050565b600080604083600f0b85600f0b02901d90507fffffffffffffffffffffffffffffffff80000000000000000000000000000000600f0b81121580156112c757506f7fffffffffffffffffffffffffffffff600f0b8113155b6112d057600080fd5b8091505092915050565b6000808214156112e957600080fd5b60006112f584846121b5565b90506f7fffffffffffffffffffffffffffffff6fffffffffffffffffffffffffffffffff16816fffffffffffffffffffffffffffffffff16111561133857600080fd5b8091505092915050565b60008082600f0b121561135457600080fd5b604082600f0b901d9050919050565b600033905090565b60008082141561137e5760009050611420565b600083600f0b121561138f57600080fd5b600060406fffffffffffffffffffffffffffffffff841685600f0b02901c90506000608084901c85600f0b02905077ffffffffffffffffffffffffffffffffffffffffffffffff8111156113e257600080fd5b604081901b9050817fffffffffffffffffffffffffffffffffffffffffffffffffffffffffffffffff0381111561141857600080fd5b818101925050505b92915050565b60008082600f0b84600f0b0390507fffffffffffffffffffffffffffffffff80000000000000000000000000000000600f0b811215801561147a57506f7fffffffffffffffffffffffffffffff600f0b8113155b61148357600080fd5b8091505092915050565b60006840000000000000000082600f0b126114a757600080fd5b7fffffffffffffffffffffffffffffffffffffffffffffffc0000000000000000082600f0b12156114db5760009050612088565b60006f80000000000000000000000000000000905060006780000000000000008416600f0b131561152157608070016a09e667f3bcc908b2fb1366ea957d3e8202901c90505b60006740000000000000008416600f0b13156115525760807001306fe0a31b7152de8d5a46305c85edec8202901c90505b60006720000000000000008416600f0b13156115835760807001172b83c7d517adcdf7c8c50eb14a791f8202901c90505b60006710000000000000008416600f0b13156115b457608070010b5586cf9890f6298b92b71842a983638202901c90505b60006708000000000000008416600f0b13156115e55760807001059b0d31585743ae7c548eb68ca417fd8202901c90505b60006704000000000000008416600f0b1315611616576080700102c9a3e778060ee6f7caca4f7a29bde88202901c90505b60006702000000000000008416600f0b131561164757608070010163da9fb33356d84a66ae336dcdfa3f8202901c90505b60006701000000000000008416600f0b1315611678576080700100b1afa5abcbed6129ab13ec11dc95438202901c90505b600066800000000000008416600f0b13156116a857608070010058c86da1c09ea1ff19d294cf2f679b8202901c90505b600066400000000000008416600f0b13156116d85760807001002c605e2e8cec506d21bfc89a23a00f8202901c90505b600066200000000000008416600f0b1315611708576080700100162f3904051fa128bca9c55c31e5df8202901c90505b600066100000000000008416600f0b13156117385760807001000b175effdc76ba38e31671ca9397258202901c90505b600066080000000000008416600f0b1315611768576080700100058ba01fb9f96d6cacd4b180917c3d8202901c90505b600066040000000000008416600f0b131561179857608070010002c5cc37da9491d0985c348c68e7b38202901c90505b600066020000000000008416600f0b13156117c85760807001000162e525ee054754457d59952920268202901c90505b600066010000000000008416600f0b13156117f857608070010000b17255775c040618bf4a4ade83fc8202901c90505b6000658000000000008416600f0b13156118275760807001000058b91b5bc9ae2eed81e9b7d4cfab8202901c90505b6000654000000000008416600f0b1315611856576080700100002c5c89d5ec6ca4d7c8acc017b7c98202901c90505b6000652000000000008416600f0b131561188557608070010000162e43f4f831060e02d839a9d16d8202901c90505b6000651000000000008416600f0b13156118b4576080700100000b1721bcfc99d9f890ea069117638202901c90505b6000650800000000008416600f0b13156118e357608070010000058b90cf1e6d97f9ca14dbcc16288202901c90505b6000650400000000008416600f0b13156119125760807001000002c5c863b73f016468f6bac5ca2b8202901c90505b6000650200000000008416600f0b1315611941576080700100000162e430e5a18f6119e3c02282a58202901c90505b6000650100000000008416600f0b13156119705760807001000000b1721835514b86e6d96efd1bfe8202901c90505b60006480000000008416600f0b131561199e576080700100000058b90c0b48c6be5df846c5b2ef8202901c90505b60006440000000008416600f0b13156119cc57608070010000002c5c8601cc6b9e94213c72737a8202901c90505b60006420000000008416600f0b13156119fa5760807001000000162e42fff037df38aa2b219f068202901c90505b60006410000000008416600f0b1315611a2857608070010000000b17217fba9c739aa5819f44f98202901c90505b60006408000000008416600f0b1315611a565760807001000000058b90bfcdee5acd3c1cedc8238202901c90505b60006404000000008416600f0b1315611a84576080700100000002c5c85fe31f35a6a30da1be508202901c90505b60006402000000008416600f0b1315611ab257608070010000000162e42ff0999ce3541b9fffcf8202901c90505b60006401000000008416600f0b1315611ae0576080700100000000b17217f80f4ef5aadda455548202901c90505b600063800000008416600f0b1315611b0d57608070010000000058b90bfbf8479bd5a81b51ad8202901c90505b600063400000008416600f0b1315611b3a5760807001000000002c5c85fdf84bd62ae30a74cc8202901c90505b600063200000008416600f0b1315611b67576080700100000000162e42fefb2fed257559bdaa8202901c90505b600063100000008416600f0b1315611b945760807001000000000b17217f7d5a7716bba4a9ae8202901c90505b600063080000008416600f0b1315611bc1576080700100000000058b90bfbe9ddbac5e109cce8202901c90505b600063040000008416600f0b1315611bee57608070010000000002c5c85fdf4b15de6f17eb0d8202901c90505b600063020000008416600f0b1315611c1b5760807001000000000162e42fefa494f1478fde058202901c90505b600063010000008416600f0b1315611c4857608070010000000000b17217f7d20cf927c8e94c8202901c90505b6000628000008416600f0b1315611c745760807001000000000058b90bfbe8f71cb4e4b33d8202901c90505b6000624000008416600f0b1315611ca0576080700100000000002c5c85fdf477b662b269458202901c90505b6000622000008416600f0b1315611ccc57608070010000000000162e42fefa3ae53369388c8202901c90505b6000621000008416600f0b1315611cf8576080700100000000000b17217f7d1d351a389d408202901c90505b6000620800008416600f0b1315611d2457608070010000000000058b90bfbe8e8b2d3d4ede8202901c90505b6000620400008416600f0b1315611d505760807001000000000002c5c85fdf4741bea6e77e8202901c90505b6000620200008416600f0b1315611d7c576080700100000000000162e42fefa39fe95583c28202901c90505b6000620100008416600f0b1315611da85760807001000000000000b17217f7d1cfb72b45e18202901c90505b60006180008416600f0b1315611dd3576080700100000000000058b90bfbe8e7cc35c3f08202901c90505b60006140008416600f0b1315611dfe57608070010000000000002c5c85fdf473e242ea388202901c90505b60006120008416600f0b1315611e295760807001000000000000162e42fefa39f02b772c8202901c90505b60006110008416600f0b1315611e5457608070010000000000000b17217f7d1cf7d83c1a8202901c90505b60006108008416600f0b1315611e7f5760807001000000000000058b90bfbe8e7bdcbe2e8202901c90505b60006104008416600f0b1315611eaa576080700100000000000002c5c85fdf473dea871f8202901c90505b60006102008416600f0b1315611ed557608070010000000000000162e42fefa39ef44d918202901c90505b60006101008416600f0b1315611f00576080700100000000000000b17217f7d1cf79e9498202901c90505b600060808416600f0b1315611f2a57608070010000000000000058b90bfbe8e7bce5448202901c90505b600060408416600f0b1315611f545760807001000000000000002c5c85fdf473de6eca8202901c90505b600060208416600f0b1315611f7e576080700100000000000000162e42fefa39ef366f8202901c90505b600060108416600f0b1315611fa85760807001000000000000000b17217f7d1cf79afa8202901c90505b600060088416600f0b1315611fd2576080700100000000000000058b90bfbe8e7bcd6d8202901c90505b600060048416600f0b1315611ffc57608070010000000000000002c5c85fdf473de6b28202901c90505b600060028416600f0b13156120265760807001000000000000000162e42fefa39ef3588202901c90505b600060018416600f0b131561205057608070010000000000000000b17217f7d1cf79ab8202901c90505b604083600f0b901d603f03600f0b81901c90506f7fffffffffffffffffffffffffffffff600f0b81111561208357600080fd5b809150505b919050565b60008082600f0b1361209e57600080fd5b6000809050600083600f0b90506801000000000000000081126120c957604081901d90506040820191505b64010000000081126120e357602081901d90506020820191505b6201000081126120fb57601081901d90506010820191505b610100811261211257600881901d90506008820191505b6010811261212857600481901d90506004820191505b6004811261213e57600281901d90506002820191505b6002811261214d576001820191505b60006040808403901b9050600083607f0386600f0b901b9050600067800000000000000090505b60008113156121a8578182029150600060ff83901c905080607f0183901c92508082028401935050600181901d9050612174565b5081945050505050919050565b6000808214156121c457600080fd5b600077ffffffffffffffffffffffffffffffffffffffffffffffff84116121fa5782604085901b816121f257fe5b04905061234f565b600060c09050600060c086901c9050640100000000811061222357602081901c90506020820191505b62010000811061223b57601081901c90506010820191505b610100811061225257600881901c90506008820191505b6010811061226857600481901c90506004820191505b6004811061227e57600281901c90506002820191505b6002811061228d576001820191505b600160bf830360018703901c018260ff0387901b816122a857fe5b0492506fffffffffffffffffffffffffffffffff8311156122c857600080fd5b6000608086901c8402905060006fffffffffffffffffffffffffffffffff871685029050600060c089901c9050600060408a901b90508281101561230d576001820391505b8281039050608084901b925082811015612328576001820391505b8281039050608084901c821461233a57fe5b88818161234357fe5b04870196505050505050505b6fffffffffffffffffffffffffffffffff81111561236c57600080fd5b8091505092915050565b61251a8484848460405160240180806020018573ffffffffffffffffffffffffffffffffffffffff1673ffffffffffffffffffffffffffffffffffffffff16815260200180602001848152602001838103835287818151815260200191508051906020019080838360005b838110156123fc5780820151818401526020810190506123e1565b50505050905090810190601f1680156124295780820380516001836020036101000a031916815260200191505b50838103825285818151815260200191508051906020019080838360005b83811015612462578082015181840152602081019050612447565b50505050905090810190601f16801561248f5780820380516001836020036101000a031916815260200191505b5096505050505050506040516020818303038152906040527f8f624be9000000000000000000000000000000000000000000000000000000007bffffffffffffffffffffffffffffffffffffffffffffffffffffffff19166020820180517bffffffffffffffffffffffffffffffffffffffffffffffffffffffff8381831617835250505050612748565b50505050565b6000677fffffffffffffff82111561253757600080fd5b604082901b9050919050565b61263e816040516024018080602001828103825283818151815260200191508051906020019080838360005b8381101561258a57808201518184015260208101905061256f565b50505050905090810190601f1680156125b75780820380516001836020036101000a031916815260200191505b50925050506040516020818303038152906040527f41304fac000000000000000000000000000000000000000000000000000000007bffffffffffffffffffffffffffffffffffffffffffffffffffffffff19166020820180517bffffffffffffffffffffffffffffffffffffffffffffffffffffffff8381831617835250505050612748565b50565b61274482826040516024018080602001838152602001828103825284818151815260200191508051906020019080838360005b8381101561268f578082015181840152602081019050612674565b50505050905090810190601f1680156126bc5780820380516001836020036101000a031916815260200191505b5093505050506040516020818303038152906040527f9710a9d0000000000000000000000000000000000000000000000000000000007bffffffffffffffffffffffffffffffffffffffffffffffffffffffff19166020820180517bffffffffffffffffffffffffffffffffffffffffffffffffffffffff8381831617835250505050612748565b5050565b60008151905060006a636f6e736f6c652e6c6f679050602083016000808483855afa505050505056fe4f776e61626c653a206e6577206f776e657220697320746865207a65726f2061646472657373a2646970667358221220148b7d455fefa2d844a1a434355f2f02d793c306fb8a14eca5df3785b833563064736f6c6343000602003330783030303030303030303030303030303030303030303030303030303030303031",
  "linkReferences": {},
  "deployedLinkReferences": {}
}