{
  "_format": "hh-sol-artifact-1",
  "contractName": "LsLMSR",
  "sourceName": "contracts/LsLMSR.sol",
  "abi": [
    {
      "inputs": [
        {
          "internalType": "address",
          "name": "_ct",
          "type": "address"
        },
        {
          "internalType": "address",
          "name": "_token",
          "type": "address"
        }
      ],
      "stateMutability": "nonpayable",
      "type": "constructor"
    },
    {
      "anonymous": false,
      "inputs": [
        {
          "indexed": true,
          "internalType": "address",
          "name": "previousOwner",
          "type": "address"
        },
        {
          "indexed": true,
          "internalType": "address",
          "name": "newOwner",
          "type": "address"
        }
      ],
      "name": "OwnershipTransferred",
      "type": "event"
    },
    {
      "inputs": [
        {
          "internalType": "uint256",
          "name": "_outcome",
          "type": "uint256"
        },
        {
          "internalType": "int128",
          "name": "_amount",
          "type": "int128"
        }
      ],
      "name": "buy",
      "outputs": [
        {
          "internalType": "int128",
          "name": "_price",
          "type": "int128"
        }
      ],
      "stateMutability": "nonpayable",
      "type": "function"
    },
    {
      "inputs": [],
      "name": "condition",
      "outputs": [
        {
          "internalType": "bytes32",
          "name": "",
          "type": "bytes32"
        }
      ],
      "stateMutability": "view",
      "type": "function"
    },
    {
      "inputs": [],
      "name": "cost",
      "outputs": [
        {
          "internalType": "int128",
          "name": "",
          "type": "int128"
        }
      ],
      "stateMutability": "view",
      "type": "function"
    },
    {
      "inputs": [
        {
          "internalType": "uint256",
          "name": "_outcome",
          "type": "uint256"
        },
        {
          "internalType": "int128",
          "name": "_amount",
          "type": "int128"
        }
      ],
      "name": "cost_after_buy",
      "outputs": [
        {
          "internalType": "int128",
          "name": "",
          "type": "int128"
        }
      ],
      "stateMutability": "view",
      "type": "function"
    },
    {
      "inputs": [
        {
          "internalType": "uint256",
          "name": "_outcome",
          "type": "uint256"
        }
      ],
      "name": "getPositionAndDustPositions",
      "outputs": [
        {
          "internalType": "uint256[]",
          "name": "",
          "type": "uint256[]"
        }
      ],
      "stateMutability": "view",
      "type": "function"
    },
    {
      "inputs": [
        {
          "internalType": "address",
          "name": "_token",
          "type": "address"
        },
        {
          "internalType": "uint256",
          "name": "_amount",
          "type": "uint256"
        }
      ],
      "name": "getTokenEth",
      "outputs": [
        {
          "internalType": "int128",
          "name": "",
          "type": "int128"
        }
      ],
      "stateMutability": "view",
      "type": "function"
    },
    {
      "inputs": [
        {
          "internalType": "address",
          "name": "_token",
          "type": "address"
        },
        {
          "internalType": "int128",
          "name": "_amount",
          "type": "int128"
        }
      ],
      "name": "getTokenWei",
      "outputs": [
        {
          "internalType": "uint256",
          "name": "",
          "type": "uint256"
        }
      ],
      "stateMutability": "view",
      "type": "function"
    },
    {
      "inputs": [],
      "name": "numOutcomes",
      "outputs": [
        {
          "internalType": "uint256",
          "name": "",
          "type": "uint256"
        }
      ],
      "stateMutability": "view",
      "type": "function"
    },
    {
      "inputs": [
        {
          "internalType": "address",
          "name": "operator",
          "type": "address"
        },
        {
          "internalType": "address",
          "name": "from",
          "type": "address"
        },
        {
          "internalType": "uint256[]",
          "name": "ids",
          "type": "uint256[]"
        },
        {
          "internalType": "uint256[]",
          "name": "values",
          "type": "uint256[]"
        },
        {
          "internalType": "bytes",
          "name": "data",
          "type": "bytes"
        }
      ],
      "name": "onERC1155BatchReceived",
      "outputs": [
        {
          "internalType": "bytes4",
          "name": "",
          "type": "bytes4"
        }
      ],
      "stateMutability": "nonpayable",
      "type": "function"
    },
    {
      "inputs": [
        {
          "internalType": "address",
          "name": "operator",
          "type": "address"
        },
        {
          "internalType": "address",
          "name": "from",
          "type": "address"
        },
        {
          "internalType": "uint256",
          "name": "id",
          "type": "uint256"
        },
        {
          "internalType": "uint256",
          "name": "value",
          "type": "uint256"
        },
        {
          "internalType": "bytes",
          "name": "data",
          "type": "bytes"
        }
      ],
      "name": "onERC1155Received",
      "outputs": [
        {
          "internalType": "bytes4",
          "name": "",
          "type": "bytes4"
        }
      ],
      "stateMutability": "nonpayable",
      "type": "function"
    },
    {
      "inputs": [],
      "name": "owner",
      "outputs": [
        {
          "internalType": "address",
          "name": "",
          "type": "address"
        }
      ],
      "stateMutability": "view",
      "type": "function"
    },
    {
      "inputs": [
        {
          "internalType": "uint256",
          "name": "_outcome",
          "type": "uint256"
        },
        {
          "internalType": "int128",
          "name": "_amount",
          "type": "int128"
        }
      ],
      "name": "price",
      "outputs": [
        {
          "internalType": "int128",
          "name": "",
          "type": "int128"
        }
      ],
      "stateMutability": "view",
      "type": "function"
    },
    {
      "inputs": [],
      "name": "renounceOwnership",
      "outputs": [],
      "stateMutability": "nonpayable",
      "type": "function"
    },
    {
      "inputs": [
        {
          "internalType": "address",
          "name": "_oracle",
          "type": "address"
        },
        {
          "internalType": "bytes32",
          "name": "_questionId",
          "type": "bytes32"
        },
        {
          "internalType": "uint256",
          "name": "_numOutcomes",
          "type": "uint256"
        },
        {
          "internalType": "uint256",
          "name": "_subsidy",
          "type": "uint256"
        },
        {
          "internalType": "uint256",
          "name": "_overround",
          "type": "uint256"
        }
      ],
      "name": "setup",
      "outputs": [],
      "stateMutability": "nonpayable",
      "type": "function"
    },
    {
      "inputs": [
        {
          "internalType": "bytes4",
          "name": "interfaceId",
          "type": "bytes4"
        }
      ],
      "name": "supportsInterface",
      "outputs": [
        {
          "internalType": "bool",
          "name": "",
          "type": "bool"
        }
      ],
      "stateMutability": "view",
      "type": "function"
    },
    {
      "inputs": [],
      "name": "token",
      "outputs": [
        {
          "internalType": "address",
          "name": "",
          "type": "address"
        }
      ],
      "stateMutability": "view",
      "type": "function"
    },
    {
      "inputs": [
        {
          "internalType": "address",
          "name": "newOwner",
          "type": "address"
        }
      ],
      "name": "transferOwnership",
      "outputs": [],
      "stateMutability": "nonpayable",
      "type": "function"
    },
    {
      "inputs": [],
      "name": "withdraw",
      "outputs": [],
      "stateMutability": "nonpayable",
      "type": "function"
    }
  ],
  "bytecode": "0x60806040523480156200001157600080fd5b506040516200427038038062004270833981810160405260408110156200003757600080fd5b8101908080519060200190929190805190602001909291905050506000620000646200018c60201b60201c565b9050806000806101000a81548173ffffffffffffffffffffffffffffffffffffffff021916908373ffffffffffffffffffffffffffffffffffffffff1602179055508073ffffffffffffffffffffffffffffffffffffffff16600073ffffffffffffffffffffffffffffffffffffffff167f8be0079c531659141344cd1fd0a4f28419497f9722a3daafe3b4186f6b6457e060405160405180910390a35081600660006101000a81548173ffffffffffffffffffffffffffffffffffffffff021916908373ffffffffffffffffffffffffffffffffffffffff16021790555080600760006101000a81548173ffffffffffffffffffffffffffffffffffffffff021916908373ffffffffffffffffffffffffffffffffffffffff160217905550505062000194565b600033905090565b6140cc80620001a46000396000f3fe608060405234801561001057600080fd5b50600436106101165760003560e01c80638da5cb5b116100a2578063df7bd8fc11610071578063df7bd8fc14610604578063f23a6e6114610659578063f2fde38b14610778578063f76da1d9146107bc578063fc0c546a1461081157610116565b80638da5cb5b1461037b5780638f54f2ae146103c5578063bc197c8114610431578063c5031331146105e657610116565b806340088ee1116100e957806340088ee114610216578063715018a61461027b5780638062dd93146102855780638767d64e146102da5780638d0a6cff146102f857610116565b806301ffc9a71461011b57806310f8625a1461018057806313faede6146101e85780633ccfd60b1461020c575b600080fd5b6101666004803603602081101561013157600080fd5b8101908080357bffffffffffffffffffffffffffffffffffffffffffffffffffffffff1916906020019092919050505061085b565b604051808215151515815260200191505060405180910390f35b6101cc6004803603604081101561019657600080fd5b81019080803573ffffffffffffffffffffffffffffffffffffffff16906020019092919080359060200190929190505050610862565b6040518082600f0b600f0b815260200191505060405180910390f35b6101f0610901565b6040518082600f0b600f0b815260200191505060405180910390f35b6102146109c5565b005b6102656004803603604081101561022c57600080fd5b81019080803573ffffffffffffffffffffffffffffffffffffffff1690602001909291908035600f0b9060200190929190505050610ead565b6040518082815260200191505060405180910390f35b610283610f4c565b005b6102be6004803603604081101561029b57600080fd5b81019080803590602001909291908035600f0b90602001909291905050506110d4565b6040518082600f0b600f0b815260200191505060405180910390f35b6102e2611294565b6040518082815260200191505060405180910390f35b6103246004803603602081101561030e57600080fd5b810190808035906020019092919050505061129a565b6040518080602001828103825283818151815260200191508051906020019060200280838360005b8381101561036757808201518184015260208101905061034c565b505050509050019250505060405180910390f35b61038361136d565b604051808273ffffffffffffffffffffffffffffffffffffffff1673ffffffffffffffffffffffffffffffffffffffff16815260200191505060405180910390f35b61042f600480360360a08110156103db57600080fd5b81019080803573ffffffffffffffffffffffffffffffffffffffff16906020019092919080359060200190929190803590602001909291908035906020019092919080359060200190929190505050611396565b005b610592600480360360a081101561044757600080fd5b81019080803573ffffffffffffffffffffffffffffffffffffffff169060200190929190803573ffffffffffffffffffffffffffffffffffffffff169060200190929190803590602001906401000000008111156104a457600080fd5b8201836020820111156104b657600080fd5b803590602001918460208302840111640100000000831117156104d857600080fd5b9091929391929390803590602001906401000000008111156104f957600080fd5b82018360208201111561050b57600080fd5b8035906020019184602083028401116401000000008311171561052d57600080fd5b90919293919293908035906020019064010000000081111561054e57600080fd5b82018360208201111561056057600080fd5b8035906020019184600183028401116401000000008311171561058257600080fd5b909192939192939050505061199f565b60405180827bffffffffffffffffffffffffffffffffffffffffffffffffffffffff19167bffffffffffffffffffffffffffffffffffffffffffffffffffffffff1916815260200191505060405180910390f35b6105ee6119b7565b6040518082815260200191505060405180910390f35b61063d6004803603604081101561061a57600080fd5b81019080803590602001909291908035600f0b90602001909291905050506119bd565b6040518082600f0b600f0b815260200191505060405180910390f35b610724600480360360a081101561066f57600080fd5b81019080803573ffffffffffffffffffffffffffffffffffffffff169060200190929190803573ffffffffffffffffffffffffffffffffffffffff1690602001909291908035906020019092919080359060200190929190803590602001906401000000008111156106e057600080fd5b8201836020820111156106f257600080fd5b8035906020019184600183028401116401000000008311171561071457600080fd5b90919293919293905050506119e2565b60405180827bffffffffffffffffffffffffffffffffffffffffffffffffffffffff19167bffffffffffffffffffffffffffffffffffffffffffffffffffffffff1916815260200191505060405180910390f35b6107ba6004803603602081101561078e57600080fd5b81019080803573ffffffffffffffffffffffffffffffffffffffff1690602001909291905050506119f8565b005b6107f5600480360360408110156107d257600080fd5b81019080803590602001909291908035600f0b9060200190929190505050611c05565b6040518082600f0b600f0b815260200191505060405180910390f35b6108196127fb565b604051808273ffffffffffffffffffffffffffffffffffffffff1673ffffffffffffffffffffffffffffffffffffffff16815260200191505060405180910390f35b6000919050565b6000808373ffffffffffffffffffffffffffffffffffffffff1663313ce5676040518163ffffffff1660e01b815260040160206040518083038186803b1580156108ab57600080fd5b505afa1580156108bf573d6000803e3d6000fd5b505050506040513d60208110156108d557600080fd5b810190808051906020019092919050505060ff1690506108f88382600a0a612821565b91505092915050565b600060011515600760149054906101000a900460ff1615151461092357600080fd5b600080600090505b60015481101561099d5761098e826109896109846002858154811061094c57fe5b90600052602060002090600291828204019190066010029054906101000a9004600f0b600360009054906101000a9004600f0b612889565b61290c565b612985565b9150808060010191505061092b565b506109bf600360009054906101000a9004600f0b6109ba836129ec565b612a26565b91505090565b60011515600760149054906101000a900460ff161515146109e557600080fd5b6109ed612a91565b73ffffffffffffffffffffffffffffffffffffffff166000809054906101000a900473ffffffffffffffffffffffffffffffffffffffff1673ffffffffffffffffffffffffffffffffffffffff1614610aae576040517f08c379a00000000000000000000000000000000000000000000000000000000081526004018080602001828103825260208152602001807f4f776e61626c653a2063616c6c6572206973206e6f7420746865206f776e657281525060200191505060405180910390fd5b6000600660009054906101000a900473ffffffffffffffffffffffffffffffffffffffff1673ffffffffffffffffffffffffffffffffffffffff1663dd34de676005546040518263ffffffff1660e01b81526004018082815260200191505060206040518083038186803b158015610b2557600080fd5b505afa158015610b39573d6000803e3d6000fd5b505050506040513d6020811015610b4f57600080fd5b81019080805190602001909291905050501415610bd4576040517f08c379a000000000000000000000000000000000000000000000000000000000815260040180806020018281038252601b8152602001807f4d61726b6574206e6565647320746f206265207265736f6c766564000000000081525060200191505060405180910390fd5b6060600154604051908082528060200260200182016040528015610c075781602001602082028038833980820191505090505b509050600080905060008090505b600154811015610c4957806001901b838281518110610c3057fe5b6020026020010181815250508080600101915050610c15565b50600660009054906101000a900473ffffffffffffffffffffffffffffffffffffffff1673ffffffffffffffffffffffffffffffffffffffff166301b7037c600760009054906101000a900473ffffffffffffffffffffffffffffffffffffffff166000801b600554866040518563ffffffff1660e01b8152600401808573ffffffffffffffffffffffffffffffffffffffff1673ffffffffffffffffffffffffffffffffffffffff16815260200184815260200183815260200180602001828103825283818151815260200191508051906020019060200280838360005b83811015610d43578082015181840152602081019050610d28565b5050505090500195505050505050600060405180830381600087803b158015610d6b57600080fd5b505af1158015610d7f573d6000803e3d6000fd5b50505050610ea933600760009054906101000a900473ffffffffffffffffffffffffffffffffffffffff1673ffffffffffffffffffffffffffffffffffffffff166370a08231306040518263ffffffff1660e01b8152600401808273ffffffffffffffffffffffffffffffffffffffff1673ffffffffffffffffffffffffffffffffffffffff16815260200191505060206040518083038186803b158015610e2657600080fd5b505afa158015610e3a573d6000803e3d6000fd5b505050506040513d6020811015610e5057600080fd5b8101908080519060200190929190505050600760009054906101000a900473ffffffffffffffffffffffffffffffffffffffff1673ffffffffffffffffffffffffffffffffffffffff16612a999092919063ffffffff16565b5050565b6000808373ffffffffffffffffffffffffffffffffffffffff1663313ce5676040518163ffffffff1660e01b815260040160206040518083038186803b158015610ef657600080fd5b505afa158015610f0a573d6000803e3d6000fd5b505050506040513d6020811015610f2057600080fd5b810190808051906020019092919050505060ff169050610f438382600a0a612b51565b91505092915050565b610f54612a91565b73ffffffffffffffffffffffffffffffffffffffff166000809054906101000a900473ffffffffffffffffffffffffffffffffffffffff1673ffffffffffffffffffffffffffffffffffffffff1614611015576040517f08c379a00000000000000000000000000000000000000000000000000000000081526004018080602001828103825260208152602001807f4f776e61626c653a2063616c6c6572206973206e6f7420746865206f776e657281525060200191505060405180910390fd5b600073ffffffffffffffffffffffffffffffffffffffff166000809054906101000a900473ffffffffffffffffffffffffffffffffffffffff1673ffffffffffffffffffffffffffffffffffffffff167f8be0079c531659141344cd1fd0a4f28419497f9722a3daafe3b4186f6b6457e060405160405180910390a360008060006101000a81548173ffffffffffffffffffffffffffffffffffffffff021916908373ffffffffffffffffffffffffffffffffffffffff160217905550565b600080606060028054905060405190808252806020026020018201604052801561110d5781602001602082028038833980820191505090505b5090506000600460109054906101000a9004600f0b905060008090505b60015481101561120a576000816001901b8816146111ac5761117b6002828154811061115257fe5b90600052602060002090600291828204019190066010029054906101000a9004600f0b87612985565b83828151811061118757fe5b6020026020010190600f0b9081600f0b815250506111a58287612985565b91506111fd565b600281815481106111b957fe5b90600052602060002090600291828204019190066010029054906101000a9004600f0b8382815181106111e857fe5b6020026020010190600f0b9081600f0b815250505b808060010191505061112a565b50600061122682600360109054906101000a9004600f0b612a26565b905060008090505b600154811015611275576112668561126161125c87858151811061124e57fe5b602002602001015186612889565b61290c565b612985565b9450808060010191505061122e565b5061128881611283866129ec565b612a26565b94505050505092915050565b60015481565b60606000600180546001901b03905060008184189050606060016112bd83612c0c565b016040519080825280602002602001820160405280156112ec5781602001602082028038833980820191505090505b509050600060019050858260008151811061130357fe5b60200260200101818152505060008090505b600154811015611360576000816001901b85161461135357806001901b83838151811061133e57fe5b60200260200101818152505081806001019250505b8080600101915050611315565b5081945050505050919050565b60008060009054906101000a900473ffffffffffffffffffffffffffffffffffffffff16905090565b61139e612a91565b73ffffffffffffffffffffffffffffffffffffffff166000809054906101000a900473ffffffffffffffffffffffffffffffffffffffff1673ffffffffffffffffffffffffffffffffffffffff161461145f576040517f08c379a00000000000000000000000000000000000000000000000000000000081526004018080602001828103825260208152602001807f4f776e61626c653a2063616c6c6572206973206e6f7420746865206f776e657281525060200191505060405180910390fd5b60001515600760149054906101000a900460ff161515146114e8576040517f08c379a000000000000000000000000000000000000000000000000000000000815260040180806020018281038252600c8152602001807f416c726561647920696e6974000000000000000000000000000000000000000081525060200191505060405180910390fd5b6000811161155e576040517f08c379a00000000000000000000000000000000000000000000000000000000081526004018080602001828103825260178152602001807f43616e6e6f7420686176652030206f766572726f756e6400000000000000000081525060200191505060405180910390fd5b600660009054906101000a900473ffffffffffffffffffffffffffffffffffffffff1673ffffffffffffffffffffffffffffffffffffffff1663d96ee7548686866040518463ffffffff1660e01b8152600401808473ffffffffffffffffffffffffffffffffffffffff1673ffffffffffffffffffffffffffffffffffffffff1681526020018381526020018281526020019350505050600060405180830381600087803b15801561160f57600080fd5b505af1158015611623573d6000803e3d6000fd5b50505050600660009054906101000a900473ffffffffffffffffffffffffffffffffffffffff1673ffffffffffffffffffffffffffffffffffffffff1663852c6ae28686866040518463ffffffff1660e01b8152600401808473ffffffffffffffffffffffffffffffffffffffff1673ffffffffffffffffffffffffffffffffffffffff168152602001838152602001828152602001935050505060206040518083038186803b1580156116d657600080fd5b505afa1580156116ea573d6000803e3d6000fd5b505050506040513d602081101561170057600080fd5b8101908080519060200190929190505050600581905550611766333084600760009054906101000a900473ffffffffffffffffffffffffffffffffffffffff1673ffffffffffffffffffffffffffffffffffffffff16612c31909392919063ffffffff16565b82600181905550600061177884612d1e565b905060006117a8600760009054906101000a900473ffffffffffffffffffffffffffffffffffffffff1685610862565b905060006117b884612710612821565b90506117d5816117d0856117cb876129ec565b612a26565b612889565b600360106101000a8154816fffffffffffffffffffffffffffffffff0219169083600f0b6fffffffffffffffffffffffffffffffff16021790555061183261181d8385612a26565b600360109054906101000a9004600f0b612a26565b600360006101000a8154816fffffffffffffffffffffffffffffffff0219169083600f0b6fffffffffffffffffffffffffffffffff16021790555060008090505b868110156118f15760028390806001815401808255809150506001900390600052602060002090600291828204019190066010029091909190916101000a8154816fffffffffffffffffffffffffffffffff0219169083600f0b6fffffffffffffffffffffffffffffffff1602179055508080600101915050611873565b506001600760146101000a81548160ff0219169083151502179055506119178284612a26565b600460106101000a8154816fffffffffffffffffffffffffffffffff0219169083600f0b6fffffffffffffffffffffffffffffffff16021790555061195a610901565b600460006101000a8154816fffffffffffffffffffffffffffffffff0219169083600f0b6fffffffffffffffffffffffffffffffff1602179055505050505050505050565b600063bc197c8160e01b905098975050505050505050565b60055481565b6000600460009054906101000a9004600f0b6119d984846110d4565b03905092915050565b600063f23a6e6160e01b90509695505050505050565b611a00612a91565b73ffffffffffffffffffffffffffffffffffffffff166000809054906101000a900473ffffffffffffffffffffffffffffffffffffffff1673ffffffffffffffffffffffffffffffffffffffff1614611ac1576040517f08c379a00000000000000000000000000000000000000000000000000000000081526004018080602001828103825260208152602001807f4f776e61626c653a2063616c6c6572206973206e6f7420746865206f776e657281525060200191505060405180910390fd5b600073ffffffffffffffffffffffffffffffffffffffff168173ffffffffffffffffffffffffffffffffffffffff161415611b47576040517f08c379a00000000000000000000000000000000000000000000000000000000081526004018080602001828103825260268152602001806140216026913960400191505060405180910390fd5b8073ffffffffffffffffffffffffffffffffffffffff166000809054906101000a900473ffffffffffffffffffffffffffffffffffffffff1673ffffffffffffffffffffffffffffffffffffffff167f8be0079c531659141344cd1fd0a4f28419497f9722a3daafe3b4186f6b6457e060405160405180910390a3806000806101000a81548173ffffffffffffffffffffffffffffffffffffffff021916908373ffffffffffffffffffffffffffffffffffffffff16021790555050565b600060011515600760149054906101000a900460ff16151514611c2757600080fd5b6000808411611c3557600080fd5b6000600660009054906101000a900473ffffffffffffffffffffffffffffffffffffffff1673ffffffffffffffffffffffffffffffffffffffff1663dd34de676005546040518263ffffffff1660e01b81526004018082815260200191505060206040518083038186803b158015611cac57600080fd5b505afa158015611cc0573d6000803e3d6000fd5b505050506040513d6020811015611cd657600080fd5b810190808051906020019092919050505014611d5a576040517f08c379a00000000000000000000000000000000000000000000000000000000081526004018080602001828103825260178152602001807f4d61726b657420616c7265616479207265736f6c76656400000000000000000081525060200191505060405180910390fd5b60008090505b600154811015611e6e576000816001901b861614611e6157611db160028281548110611d8857fe5b90600052602060002090600291828204019190066010029054906101000a9004600f0b85612985565b60028281548110611dbe57fe5b90600052602060002090600291828204019190066010026101000a8154816fffffffffffffffffffffffffffffffff0219169083600f0b6fffffffffffffffffffffffffffffffff160217905550611e25600460109054906101000a9004600f0b85612985565b600460106101000a8154816fffffffffffffffffffffffffffffffff0219169083600f0b6fffffffffffffffffffffffffffffffff1602179055505b8080600101915050611d60565b50611e97600460109054906101000a9004600f0b600360109054906101000a9004600f0b612a26565b600360006101000a8154816fffffffffffffffffffffffffffffffff0219169083600f0b6fffffffffffffffffffffffffffffffff16021790555060008090505b600154811015611f4a57611f3b82611f36611f3160028581548110611ef957fe5b90600052602060002090600291828204019190066010029054906101000a9004600f0b600360009054906101000a9004600f0b612889565b61290c565b612985565b91508080600101915050611ed8565b506000611f6e600360009054906101000a9004600f0b611f69846129ec565b612a26565b9050611f8981600460009054906101000a9004600f0b612d41565b925080600460006101000a8154816fffffffffffffffffffffffffffffffff0219169083600f0b6fffffffffffffffffffffffffffffffff1602179055506000611ff5600760009054906101000a900473ffffffffffffffffffffffffffffffffffffffff1685610ead565b90506000612025600760009054906101000a900473ffffffffffffffffffffffffffffffffffffffff1687610ead565b90506000600660009054906101000a900473ffffffffffffffffffffffffffffffffffffffff1673ffffffffffffffffffffffffffffffffffffffff166339dd7530600760009054906101000a900473ffffffffffffffffffffffffffffffffffffffff16600660009054906101000a900473ffffffffffffffffffffffffffffffffffffffff1673ffffffffffffffffffffffffffffffffffffffff1663856296f76000801b6005548e6040518463ffffffff1660e01b815260040180848152602001838152602001828152602001935050505060206040518083038186803b15801561211257600080fd5b505afa158015612126573d6000803e3d6000fd5b505050506040513d602081101561213c57600080fd5b81019080805190602001909291905050506040518363ffffffff1660e01b8152600401808373ffffffffffffffffffffffffffffffffffffffff1673ffffffffffffffffffffffffffffffffffffffff1681526020018281526020019250505060206040518083038186803b1580156121b457600080fd5b505afa1580156121c8573d6000803e3d6000fd5b505050506040513d60208110156121de57600080fd5b81019080805190602001909291905050509050600760009054906101000a900473ffffffffffffffffffffffffffffffffffffffff1673ffffffffffffffffffffffffffffffffffffffff166323b872dd3330866040518463ffffffff1660e01b8152600401808473ffffffffffffffffffffffffffffffffffffffff1673ffffffffffffffffffffffffffffffffffffffff1681526020018373ffffffffffffffffffffffffffffffffffffffff1673ffffffffffffffffffffffffffffffffffffffff1681526020018281526020019350505050602060405180830381600087803b1580156122ce57600080fd5b505af11580156122e2573d6000803e3d6000fd5b505050506040513d60208110156122f857600080fd5b810190808051906020019092919050505061237b576040517f08c379a00000000000000000000000000000000000000000000000000000000081526004018080602001828103825260198152602001807f4572726f72207472616e7366657272696e6720746f6b656e730000000000000081525060200191505060405180910390fd5b81600660009054906101000a900473ffffffffffffffffffffffffffffffffffffffff1673ffffffffffffffffffffffffffffffffffffffff1662fdd58e30846040518363ffffffff1660e01b8152600401808373ffffffffffffffffffffffffffffffffffffffff1673ffffffffffffffffffffffffffffffffffffffff1681526020018281526020019250505060206040518083038186803b15801561242257600080fd5b505afa158015612436573d6000803e3d6000fd5b505050506040513d602081101561244c57600080fd5b810190808051906020019092919050505010156126df57600760009054906101000a900473ffffffffffffffffffffffffffffffffffffffff1673ffffffffffffffffffffffffffffffffffffffff1663095ea7b3600660009054906101000a900473ffffffffffffffffffffffffffffffffffffffff166124f0600760009054906101000a900473ffffffffffffffffffffffffffffffffffffffff168b610ead565b6040518363ffffffff1660e01b8152600401808373ffffffffffffffffffffffffffffffffffffffff1673ffffffffffffffffffffffffffffffffffffffff16815260200182815260200192505050602060405180830381600087803b15801561255957600080fd5b505af115801561256d573d6000803e3d6000fd5b505050506040513d602081101561258357600080fd5b810190808051906020019092919050505050600660009054906101000a900473ffffffffffffffffffffffffffffffffffffffff1673ffffffffffffffffffffffffffffffffffffffff166372ce4275600760009054906101000a900473ffffffffffffffffffffffffffffffffffffffff166000801b6005546126068d61129a565b876040518663ffffffff1660e01b8152600401808673ffffffffffffffffffffffffffffffffffffffff1673ffffffffffffffffffffffffffffffffffffffff16815260200185815260200184815260200180602001838152602001828103825284818151815260200191508051906020019060200280838360005b8381101561269d578082015181840152602081019050612682565b505050509050019650505050505050600060405180830381600087803b1580156126c657600080fd5b505af11580156126da573d6000803e3d6000fd5b505050505b600660009054906101000a900473ffffffffffffffffffffffffffffffffffffffff1673ffffffffffffffffffffffffffffffffffffffff1663f242432a303384866040518563ffffffff1660e01b8152600401808573ffffffffffffffffffffffffffffffffffffffff1673ffffffffffffffffffffffffffffffffffffffff1681526020018473ffffffffffffffffffffffffffffffffffffffff1673ffffffffffffffffffffffffffffffffffffffff1681526020018381526020018281526020018060200182810382526000815260200160200195505050505050600060405180830381600087803b1580156127d857600080fd5b505af11580156127ec573d6000803e3d6000fd5b50505050505050505092915050565b600760009054906101000a900473ffffffffffffffffffffffffffffffffffffffff1681565b60008082141561283057600080fd5b600061283c8484612da8565b90506f7fffffffffffffffffffffffffffffff6fffffffffffffffffffffffffffffffff16816fffffffffffffffffffffffffffffffff16111561287f57600080fd5b8091505092915050565b60008082600f0b141561289b57600080fd5b600082600f0b604085600f0b901b816128b057fe5b0590507fffffffffffffffffffffffffffffffff80000000000000000000000000000000600f0b81121580156128f957506f7fffffffffffffffffffffffffffffff600f0b8113155b61290257600080fd5b8091505092915050565b60006840000000000000000082600f0b1261292657600080fd5b7fffffffffffffffffffffffffffffffffffffffffffffffc0000000000000000082600f0b121561295a5760009050612980565b61297d6080700171547652b82fe1777d0ffda0d23a7d1284600f0b02901d612f69565b90505b919050565b60008082600f0b84600f0b0190507fffffffffffffffffffffffffffffffff80000000000000000000000000000000600f0b81121580156129d957506f7fffffffffffffffffffffffffffffff600f0b8113155b6129e257600080fd5b8091505092915050565b60008082600f0b136129fd57600080fd5b60806fb17217f7d1cf79abc9e3b39803f2f6af612a1984613b69565b600f0b02901c9050919050565b600080604083600f0b85600f0b02901d90507fffffffffffffffffffffffffffffffff80000000000000000000000000000000600f0b8112158015612a7e57506f7fffffffffffffffffffffffffffffff600f0b8113155b612a8757600080fd5b8091505092915050565b600033905090565b612b4c8363a9059cbb60e01b8484604051602401808373ffffffffffffffffffffffffffffffffffffffff1673ffffffffffffffffffffffffffffffffffffffff16815260200182815260200192505050604051602081830303815290604052907bffffffffffffffffffffffffffffffffffffffffffffffffffffffff19166020820180517bffffffffffffffffffffffffffffffffffffffffffffffffffffffff8381831617835250505050613c91565b505050565b600080821415612b645760009050612c06565b600083600f0b1215612b7557600080fd5b600060406fffffffffffffffffffffffffffffffff841685600f0b02901c90506000608084901c85600f0b02905077ffffffffffffffffffffffffffffffffffffffffffffffff811115612bc857600080fd5b604081901b9050817fffffffffffffffffffffffffffffffffffffffffffffffffffffffffffffffff03811115612bfe57600080fd5b818101925050505b92915050565b60005b60008214612c2c5760018203821691508080600101915050612c0f565b919050565b612d18846323b872dd60e01b858585604051602401808473ffffffffffffffffffffffffffffffffffffffff1673ffffffffffffffffffffffffffffffffffffffff1681526020018373ffffffffffffffffffffffffffffffffffffffff1673ffffffffffffffffffffffffffffffffffffffff1681526020018281526020019350505050604051602081830303815290604052907bffffffffffffffffffffffffffffffffffffffffffffffffffffffff19166020820180517bffffffffffffffffffffffffffffffffffffffffffffffffffffffff8381831617835250505050613c91565b50505050565b6000677fffffffffffffff821115612d3557600080fd5b604082901b9050919050565b60008082600f0b84600f0b0390507fffffffffffffffffffffffffffffffff80000000000000000000000000000000600f0b8112158015612d9557506f7fffffffffffffffffffffffffffffff600f0b8113155b612d9e57600080fd5b8091505092915050565b600080821415612db757600080fd5b600077ffffffffffffffffffffffffffffffffffffffffffffffff8411612ded5782604085901b81612de557fe5b049050612f42565b600060c09050600060c086901c90506401000000008110612e1657602081901c90506020820191505b620100008110612e2e57601081901c90506010820191505b6101008110612e4557600881901c90506008820191505b60108110612e5b57600481901c90506004820191505b60048110612e7157600281901c90506002820191505b60028110612e80576001820191505b600160bf830360018703901c018260ff0387901b81612e9b57fe5b0492506fffffffffffffffffffffffffffffffff831115612ebb57600080fd5b6000608086901c8402905060006fffffffffffffffffffffffffffffffff871685029050600060c089901c9050600060408a901b905082811015612f00576001820391505b8281039050608084901b925082811015612f1b576001820391505b8281039050608084901c8214612f2d57fe5b888181612f3657fe5b04870196505050505050505b6fffffffffffffffffffffffffffffffff811115612f5f57600080fd5b8091505092915050565b60006840000000000000000082600f0b12612f8357600080fd5b7fffffffffffffffffffffffffffffffffffffffffffffffc0000000000000000082600f0b1215612fb75760009050613b64565b60006f80000000000000000000000000000000905060006780000000000000008416600f0b1315612ffd57608070016a09e667f3bcc908b2fb1366ea957d3e8202901c90505b60006740000000000000008416600f0b131561302e5760807001306fe0a31b7152de8d5a46305c85edec8202901c90505b60006720000000000000008416600f0b131561305f5760807001172b83c7d517adcdf7c8c50eb14a791f8202901c90505b60006710000000000000008416600f0b131561309057608070010b5586cf9890f6298b92b71842a983638202901c90505b60006708000000000000008416600f0b13156130c15760807001059b0d31585743ae7c548eb68ca417fd8202901c90505b60006704000000000000008416600f0b13156130f2576080700102c9a3e778060ee6f7caca4f7a29bde88202901c90505b60006702000000000000008416600f0b131561312357608070010163da9fb33356d84a66ae336dcdfa3f8202901c90505b60006701000000000000008416600f0b1315613154576080700100b1afa5abcbed6129ab13ec11dc95438202901c90505b600066800000000000008416600f0b131561318457608070010058c86da1c09ea1ff19d294cf2f679b8202901c90505b600066400000000000008416600f0b13156131b45760807001002c605e2e8cec506d21bfc89a23a00f8202901c90505b600066200000000000008416600f0b13156131e4576080700100162f3904051fa128bca9c55c31e5df8202901c90505b600066100000000000008416600f0b13156132145760807001000b175effdc76ba38e31671ca9397258202901c90505b600066080000000000008416600f0b1315613244576080700100058ba01fb9f96d6cacd4b180917c3d8202901c90505b600066040000000000008416600f0b131561327457608070010002c5cc37da9491d0985c348c68e7b38202901c90505b600066020000000000008416600f0b13156132a45760807001000162e525ee054754457d59952920268202901c90505b600066010000000000008416600f0b13156132d457608070010000b17255775c040618bf4a4ade83fc8202901c90505b6000658000000000008416600f0b13156133035760807001000058b91b5bc9ae2eed81e9b7d4cfab8202901c90505b6000654000000000008416600f0b1315613332576080700100002c5c89d5ec6ca4d7c8acc017b7c98202901c90505b6000652000000000008416600f0b131561336157608070010000162e43f4f831060e02d839a9d16d8202901c90505b6000651000000000008416600f0b1315613390576080700100000b1721bcfc99d9f890ea069117638202901c90505b6000650800000000008416600f0b13156133bf57608070010000058b90cf1e6d97f9ca14dbcc16288202901c90505b6000650400000000008416600f0b13156133ee5760807001000002c5c863b73f016468f6bac5ca2b8202901c90505b6000650200000000008416600f0b131561341d576080700100000162e430e5a18f6119e3c02282a58202901c90505b6000650100000000008416600f0b131561344c5760807001000000b1721835514b86e6d96efd1bfe8202901c90505b60006480000000008416600f0b131561347a576080700100000058b90c0b48c6be5df846c5b2ef8202901c90505b60006440000000008416600f0b13156134a857608070010000002c5c8601cc6b9e94213c72737a8202901c90505b60006420000000008416600f0b13156134d65760807001000000162e42fff037df38aa2b219f068202901c90505b60006410000000008416600f0b131561350457608070010000000b17217fba9c739aa5819f44f98202901c90505b60006408000000008416600f0b13156135325760807001000000058b90bfcdee5acd3c1cedc8238202901c90505b60006404000000008416600f0b1315613560576080700100000002c5c85fe31f35a6a30da1be508202901c90505b60006402000000008416600f0b131561358e57608070010000000162e42ff0999ce3541b9fffcf8202901c90505b60006401000000008416600f0b13156135bc576080700100000000b17217f80f4ef5aadda455548202901c90505b600063800000008416600f0b13156135e957608070010000000058b90bfbf8479bd5a81b51ad8202901c90505b600063400000008416600f0b13156136165760807001000000002c5c85fdf84bd62ae30a74cc8202901c90505b600063200000008416600f0b1315613643576080700100000000162e42fefb2fed257559bdaa8202901c90505b600063100000008416600f0b13156136705760807001000000000b17217f7d5a7716bba4a9ae8202901c90505b600063080000008416600f0b131561369d576080700100000000058b90bfbe9ddbac5e109cce8202901c90505b600063040000008416600f0b13156136ca57608070010000000002c5c85fdf4b15de6f17eb0d8202901c90505b600063020000008416600f0b13156136f75760807001000000000162e42fefa494f1478fde058202901c90505b600063010000008416600f0b131561372457608070010000000000b17217f7d20cf927c8e94c8202901c90505b6000628000008416600f0b13156137505760807001000000000058b90bfbe8f71cb4e4b33d8202901c90505b6000624000008416600f0b131561377c576080700100000000002c5c85fdf477b662b269458202901c90505b6000622000008416600f0b13156137a857608070010000000000162e42fefa3ae53369388c8202901c90505b6000621000008416600f0b13156137d4576080700100000000000b17217f7d1d351a389d408202901c90505b6000620800008416600f0b131561380057608070010000000000058b90bfbe8e8b2d3d4ede8202901c90505b6000620400008416600f0b131561382c5760807001000000000002c5c85fdf4741bea6e77e8202901c90505b6000620200008416600f0b1315613858576080700100000000000162e42fefa39fe95583c28202901c90505b6000620100008416600f0b13156138845760807001000000000000b17217f7d1cfb72b45e18202901c90505b60006180008416600f0b13156138af576080700100000000000058b90bfbe8e7cc35c3f08202901c90505b60006140008416600f0b13156138da57608070010000000000002c5c85fdf473e242ea388202901c90505b60006120008416600f0b13156139055760807001000000000000162e42fefa39f02b772c8202901c90505b60006110008416600f0b131561393057608070010000000000000b17217f7d1cf7d83c1a8202901c90505b60006108008416600f0b131561395b5760807001000000000000058b90bfbe8e7bdcbe2e8202901c90505b60006104008416600f0b1315613986576080700100000000000002c5c85fdf473dea871f8202901c90505b60006102008416600f0b13156139b157608070010000000000000162e42fefa39ef44d918202901c90505b60006101008416600f0b13156139dc576080700100000000000000b17217f7d1cf79e9498202901c90505b600060808416600f0b1315613a0657608070010000000000000058b90bfbe8e7bce5448202901c90505b600060408416600f0b1315613a305760807001000000000000002c5c85fdf473de6eca8202901c90505b600060208416600f0b1315613a5a576080700100000000000000162e42fefa39ef366f8202901c90505b600060108416600f0b1315613a845760807001000000000000000b17217f7d1cf79afa8202901c90505b600060088416600f0b1315613aae576080700100000000000000058b90bfbe8e7bcd6d8202901c90505b600060048416600f0b1315613ad857608070010000000000000002c5c85fdf473de6b28202901c90505b600060028416600f0b1315613b025760807001000000000000000162e42fefa39ef3588202901c90505b600060018416600f0b1315613b2c57608070010000000000000000b17217f7d1cf79ab8202901c90505b604083600f0b901d603f03600f0b81901c90506f7fffffffffffffffffffffffffffffff600f0b811115613b5f57600080fd5b809150505b919050565b60008082600f0b13613b7a57600080fd5b6000809050600083600f0b9050680100000000000000008112613ba557604081901d90506040820191505b6401000000008112613bbf57602081901d90506020820191505b620100008112613bd757601081901d90506010820191505b6101008112613bee57600881901d90506008820191505b60108112613c0457600481901d90506004820191505b60048112613c1a57600281901d90506002820191505b60028112613c29576001820191505b60006040808403901b9050600083607f0386600f0b901b9050600067800000000000000090505b6000811315613c84578182029150600060ff83901c905080607f0183901c92508082028401935050600181901d9050613c50565b5081945050505050919050565b6060613cf3826040518060400160405280602081526020017f5361666545524332303a206c6f772d6c6576656c2063616c6c206661696c65648152508573ffffffffffffffffffffffffffffffffffffffff16613d809092919063ffffffff16565b9050600081511115613d7b57808060200190516020811015613d1457600080fd5b8101908080519060200190929190505050613d7a576040517f08c379a000000000000000000000000000000000000000000000000000000000815260040180806020018281038252602a81526020018061406d602a913960400191505060405180910390fd5b5b505050565b6060613d8f8484600085613d98565b90509392505050565b606082471015613df3576040517f08c379a00000000000000000000000000000000000000000000000000000000081526004018080602001828103825260268152602001806140476026913960400191505060405180910390fd5b613dfc85613f41565b613e6e576040517f08c379a000000000000000000000000000000000000000000000000000000000815260040180806020018281038252601d8152602001807f416464726573733a2063616c6c20746f206e6f6e2d636f6e747261637400000081525060200191505060405180910390fd5b600060608673ffffffffffffffffffffffffffffffffffffffff1685876040518082805190602001908083835b60208310613ebe5780518252602082019150602081019050602083039250613e9b565b6001836020036101000a03801982511681845116808217855250505050505090500191505060006040518083038185875af1925050503d8060008114613f20576040519150601f19603f3d011682016040523d82523d6000602084013e613f25565b606091505b5091509150613f35828286613f54565b92505050949350505050565b600080823b905060008111915050919050565b60608315613f6457829050614019565b600083511115613f775782518084602001fd5b816040517f08c379a00000000000000000000000000000000000000000000000000000000081526004018080602001828103825283818151815260200191508051906020019080838360005b83811015613fde578082015181840152602081019050613fc3565b50505050905090810190601f16801561400b5780820380516001836020036101000a031916815260200191505b509250505060405180910390fd5b939250505056fe4f776e61626c653a206e6577206f776e657220697320746865207a65726f2061646472657373416464726573733a20696e73756666696369656e742062616c616e636520666f722063616c6c5361666545524332303a204552433230206f7065726174696f6e20646964206e6f742073756363656564a2646970667358221220eb1afe2d3d538b55cfc9490d6d5a232c9fca8a78405d362ec1307eb66ec757e464736f6c63430006020033",
  "linkReferences": {},
  "deployedLinkReferences": {}
}