{
  "_format": "hh-sol-artifact-1",
  "contractName": "LsLMSR",
  "sourceName": "contracts/LsLMSR.sol",
  "abi": [
    {
      "inputs": [
        {
          "internalType": "address",
          "name": "_ct",
          "type": "address"
        },
        {
          "internalType": "address",
          "name": "_token",
          "type": "address"
        }
      ],
      "stateMutability": "nonpayable",
      "type": "constructor"
    },
    {
      "anonymous": false,
      "inputs": [
        {
          "indexed": true,
          "internalType": "address",
          "name": "previousOwner",
          "type": "address"
        },
        {
          "indexed": true,
          "internalType": "address",
          "name": "newOwner",
          "type": "address"
        }
      ],
      "name": "OwnershipTransferred",
      "type": "event"
    },
    {
      "inputs": [
        {
          "internalType": "uint256",
          "name": "_outcome",
          "type": "uint256"
        },
        {
          "internalType": "int128",
          "name": "_amount",
          "type": "int128"
        }
      ],
      "name": "buy",
      "outputs": [
        {
          "internalType": "int128",
          "name": "_price",
          "type": "int128"
        }
      ],
      "stateMutability": "nonpayable",
      "type": "function"
    },
    {
      "inputs": [],
      "name": "cost",
      "outputs": [
        {
          "internalType": "int128",
          "name": "",
          "type": "int128"
        }
      ],
      "stateMutability": "view",
      "type": "function"
    },
    {
      "inputs": [
        {
          "internalType": "uint256",
          "name": "_outcome",
          "type": "uint256"
        },
        {
          "internalType": "int128",
          "name": "_amount",
          "type": "int128"
        }
      ],
      "name": "cost_after_buy",
      "outputs": [
        {
          "internalType": "int128",
          "name": "",
          "type": "int128"
        }
      ],
      "stateMutability": "view",
      "type": "function"
    },
    {
      "inputs": [],
      "name": "numOutcomes",
      "outputs": [
        {
          "internalType": "uint256",
          "name": "",
          "type": "uint256"
        }
      ],
      "stateMutability": "view",
      "type": "function"
    },
    {
      "inputs": [
        {
          "internalType": "address",
          "name": "operator",
          "type": "address"
        },
        {
          "internalType": "address",
          "name": "from",
          "type": "address"
        },
        {
          "internalType": "uint256[]",
          "name": "ids",
          "type": "uint256[]"
        },
        {
          "internalType": "uint256[]",
          "name": "values",
          "type": "uint256[]"
        },
        {
          "internalType": "bytes",
          "name": "data",
          "type": "bytes"
        }
      ],
      "name": "onERC1155BatchReceived",
      "outputs": [
        {
          "internalType": "bytes4",
          "name": "",
          "type": "bytes4"
        }
      ],
      "stateMutability": "nonpayable",
      "type": "function"
    },
    {
      "inputs": [
        {
          "internalType": "address",
          "name": "operator",
          "type": "address"
        },
        {
          "internalType": "address",
          "name": "from",
          "type": "address"
        },
        {
          "internalType": "uint256",
          "name": "id",
          "type": "uint256"
        },
        {
          "internalType": "uint256",
          "name": "value",
          "type": "uint256"
        },
        {
          "internalType": "bytes",
          "name": "data",
          "type": "bytes"
        }
      ],
      "name": "onERC1155Received",
      "outputs": [
        {
          "internalType": "bytes4",
          "name": "",
          "type": "bytes4"
        }
      ],
      "stateMutability": "nonpayable",
      "type": "function"
    },
    {
      "inputs": [],
      "name": "owner",
      "outputs": [
        {
          "internalType": "address",
          "name": "",
          "type": "address"
        }
      ],
      "stateMutability": "view",
      "type": "function"
    },
    {
      "inputs": [
        {
          "internalType": "uint256",
          "name": "_outcome",
          "type": "uint256"
        },
        {
          "internalType": "int128",
          "name": "_amount",
          "type": "int128"
        }
      ],
      "name": "price",
      "outputs": [
        {
          "internalType": "int128",
          "name": "",
          "type": "int128"
        }
      ],
      "stateMutability": "view",
      "type": "function"
    },
    {
      "inputs": [],
      "name": "renounceOwnership",
      "outputs": [],
      "stateMutability": "nonpayable",
      "type": "function"
    },
    {
      "inputs": [
        {
          "internalType": "address",
          "name": "_oracle",
          "type": "address"
        },
        {
          "internalType": "uint256",
          "name": "_numOutcomes",
          "type": "uint256"
        },
        {
          "internalType": "uint256",
          "name": "_subsidy",
          "type": "uint256"
        },
        {
          "internalType": "uint256",
          "name": "_overround",
          "type": "uint256"
        }
      ],
      "name": "setup",
      "outputs": [],
      "stateMutability": "nonpayable",
      "type": "function"
    },
    {
      "inputs": [
        {
          "internalType": "bytes4",
          "name": "interfaceId",
          "type": "bytes4"
        }
      ],
      "name": "supportsInterface",
      "outputs": [
        {
          "internalType": "bool",
          "name": "",
          "type": "bool"
        }
      ],
      "stateMutability": "view",
      "type": "function"
    },
    {
      "inputs": [],
      "name": "token",
      "outputs": [
        {
          "internalType": "address",
          "name": "",
          "type": "address"
        }
      ],
      "stateMutability": "view",
      "type": "function"
    },
    {
      "inputs": [
        {
          "internalType": "address",
          "name": "newOwner",
          "type": "address"
        }
      ],
      "name": "transferOwnership",
      "outputs": [],
      "stateMutability": "nonpayable",
      "type": "function"
    }
  ],
  "bytecode": "0x608060405234801561001057600080fd5b50604051620029ba380380620029ba8339818101604052604081101561003557600080fd5b810190808051906020019092919080519060200190929190505050600061006061018760201b60201c565b9050806000806101000a81548173ffffffffffffffffffffffffffffffffffffffff021916908373ffffffffffffffffffffffffffffffffffffffff1602179055508073ffffffffffffffffffffffffffffffffffffffff16600073ffffffffffffffffffffffffffffffffffffffff167f8be0079c531659141344cd1fd0a4f28419497f9722a3daafe3b4186f6b6457e060405160405180910390a35081600560006101000a81548173ffffffffffffffffffffffffffffffffffffffff021916908373ffffffffffffffffffffffffffffffffffffffff16021790555080600660006101000a81548173ffffffffffffffffffffffffffffffffffffffff021916908373ffffffffffffffffffffffffffffffffffffffff160217905550505061018f565b600033905090565b61281b806200019f6000396000f3fe608060405234801561001057600080fd5b50600436106100cf5760003560e01c8063bc197c811161008c578063f2fde38b11610066578063f2fde38b1461054d578063f3b145d214610591578063f76da1d9146105f3578063fc0c546a14610648576100cf565b8063bc197c8114610224578063df7bd8fc146103d9578063f23a6e611461042e576100cf565b806301ffc9a7146100d457806313faede614610139578063715018a61461015d5780638062dd93146101675780638767d64e146101bc5780638da5cb5b146101da575b600080fd5b61011f600480360360208110156100ea57600080fd5b8101908080357bffffffffffffffffffffffffffffffffffffffffffffffffffffffff19169060200190929190505050610692565b604051808215151515815260200191505060405180910390f35b610141610699565b6040518082600f0b600f0b815260200191505060405180910390f35b61016561075d565b005b6101a06004803603604081101561017d57600080fd5b81019080803590602001909291908035600f0b90602001909291905050506108e5565b6040518082600f0b600f0b815260200191505060405180910390f35b6101c4610aa5565b6040518082815260200191505060405180910390f35b6101e2610aab565b604051808273ffffffffffffffffffffffffffffffffffffffff1673ffffffffffffffffffffffffffffffffffffffff16815260200191505060405180910390f35b610385600480360360a081101561023a57600080fd5b81019080803573ffffffffffffffffffffffffffffffffffffffff169060200190929190803573ffffffffffffffffffffffffffffffffffffffff1690602001909291908035906020019064010000000081111561029757600080fd5b8201836020820111156102a957600080fd5b803590602001918460208302840111640100000000831117156102cb57600080fd5b9091929391929390803590602001906401000000008111156102ec57600080fd5b8201836020820111156102fe57600080fd5b8035906020019184602083028401116401000000008311171561032057600080fd5b90919293919293908035906020019064010000000081111561034157600080fd5b82018360208201111561035357600080fd5b8035906020019184600183028401116401000000008311171561037557600080fd5b9091929391929390505050610ad4565b60405180827bffffffffffffffffffffffffffffffffffffffffffffffffffffffff19167bffffffffffffffffffffffffffffffffffffffffffffffffffffffff1916815260200191505060405180910390f35b610412600480360360408110156103ef57600080fd5b81019080803590602001909291908035600f0b9060200190929190505050610aec565b6040518082600f0b600f0b815260200191505060405180910390f35b6104f9600480360360a081101561044457600080fd5b81019080803573ffffffffffffffffffffffffffffffffffffffff169060200190929190803573ffffffffffffffffffffffffffffffffffffffff1690602001909291908035906020019092919080359060200190929190803590602001906401000000008111156104b557600080fd5b8201836020820111156104c757600080fd5b803590602001918460018302840111640100000000831117156104e957600080fd5b9091929391929390505050610b11565b60405180827bffffffffffffffffffffffffffffffffffffffffffffffffffffffff19167bffffffffffffffffffffffffffffffffffffffffffffffffffffffff1916815260200191505060405180910390f35b61058f6004803603602081101561056357600080fd5b81019080803573ffffffffffffffffffffffffffffffffffffffff169060200190929190505050610b27565b005b6105f1600480360360808110156105a757600080fd5b81019080803573ffffffffffffffffffffffffffffffffffffffff169060200190929190803590602001909291908035906020019092919080359060200190929190505050610d34565b005b61062c6004803603604081101561060957600080fd5b81019080803590602001909291908035600f0b9060200190929190505050611315565b6040518082600f0b600f0b815260200191505060405180910390f35b6106506115ae565b604051808273ffffffffffffffffffffffffffffffffffffffff1673ffffffffffffffffffffffffffffffffffffffff16815260200191505060405180910390f35b6000919050565b600060011515600660149054906101000a900460ff161515146106bb57600080fd5b600080600090505b600154811015610735576107268261072161071c600285815481106106e457fe5b90600052602060002090600291828204019190066010029054906101000a9004600f0b600360009054906101000a9004600f0b6115d4565b611657565b6116d0565b915080806001019150506106c3565b50610757600360009054906101000a9004600f0b61075283611737565b611771565b91505090565b6107656117dc565b73ffffffffffffffffffffffffffffffffffffffff166000809054906101000a900473ffffffffffffffffffffffffffffffffffffffff1673ffffffffffffffffffffffffffffffffffffffff1614610826576040517f08c379a00000000000000000000000000000000000000000000000000000000081526004018080602001828103825260208152602001807f4f776e61626c653a2063616c6c6572206973206e6f7420746865206f776e657281525060200191505060405180910390fd5b600073ffffffffffffffffffffffffffffffffffffffff166000809054906101000a900473ffffffffffffffffffffffffffffffffffffffff1673ffffffffffffffffffffffffffffffffffffffff167f8be0079c531659141344cd1fd0a4f28419497f9722a3daafe3b4186f6b6457e060405160405180910390a360008060006101000a81548173ffffffffffffffffffffffffffffffffffffffff021916908373ffffffffffffffffffffffffffffffffffffffff160217905550565b600080606060028054905060405190808252806020026020018201604052801561091e5781602001602082028038833980820191505090505b5090506000600460109054906101000a9004600f0b905060008090505b600154811015610a1b576000816001901b8816146109bd5761098c6002828154811061096357fe5b90600052602060002090600291828204019190066010029054906101000a9004600f0b876116d0565b83828151811061099857fe5b6020026020010190600f0b9081600f0b815250506109b682876116d0565b9150610a0e565b600281815481106109ca57fe5b90600052602060002090600291828204019190066010029054906101000a9004600f0b8382815181106109f957fe5b6020026020010190600f0b9081600f0b815250505b808060010191505061093b565b506000610a3782600360109054906101000a9004600f0b611771565b905060008090505b600154811015610a8657610a7785610a72610a6d878581518110610a5f57fe5b6020026020010151866115d4565b611657565b6116d0565b94508080600101915050610a3f565b50610a9981610a9486611737565b611771565b94505050505092915050565b60015481565b60008060009054906101000a900473ffffffffffffffffffffffffffffffffffffffff16905090565b600063bc197c8160e01b905098975050505050505050565b6000600460009054906101000a9004600f0b610b0884846108e5565b03905092915050565b600063f23a6e6160e01b90509695505050505050565b610b2f6117dc565b73ffffffffffffffffffffffffffffffffffffffff166000809054906101000a900473ffffffffffffffffffffffffffffffffffffffff1673ffffffffffffffffffffffffffffffffffffffff1614610bf0576040517f08c379a00000000000000000000000000000000000000000000000000000000081526004018080602001828103825260208152602001807f4f776e61626c653a2063616c6c6572206973206e6f7420746865206f776e657281525060200191505060405180910390fd5b600073ffffffffffffffffffffffffffffffffffffffff168173ffffffffffffffffffffffffffffffffffffffff161415610c76576040517f08c379a00000000000000000000000000000000000000000000000000000000081526004018080602001828103825260268152602001806127c06026913960400191505060405180910390fd5b8073ffffffffffffffffffffffffffffffffffffffff166000809054906101000a900473ffffffffffffffffffffffffffffffffffffffff1673ffffffffffffffffffffffffffffffffffffffff167f8be0079c531659141344cd1fd0a4f28419497f9722a3daafe3b4186f6b6457e060405160405180910390a3806000806101000a81548173ffffffffffffffffffffffffffffffffffffffff021916908373ffffffffffffffffffffffffffffffffffffffff16021790555050565b610d3c6117dc565b73ffffffffffffffffffffffffffffffffffffffff166000809054906101000a900473ffffffffffffffffffffffffffffffffffffffff1673ffffffffffffffffffffffffffffffffffffffff1614610dfd576040517f08c379a00000000000000000000000000000000000000000000000000000000081526004018080602001828103825260208152602001807f4f776e61626c653a2063616c6c6572206973206e6f7420746865206f776e657281525060200191505060405180910390fd5b60001515600660149054906101000a900460ff16151514610e86576040517f08c379a000000000000000000000000000000000000000000000000000000000815260040180806020018281038252600c8152602001807f416c726561647920696e6974000000000000000000000000000000000000000081525060200191505060405180910390fd5b60008111610efc576040517f08c379a00000000000000000000000000000000000000000000000000000000081526004018080602001828103825260178152602001807f43616e6e6f7420686176652030206f766572726f756e6400000000000000000081525060200191505060405180910390fd5b600560009054906101000a900473ffffffffffffffffffffffffffffffffffffffff1673ffffffffffffffffffffffffffffffffffffffff1663d96ee754853073ffffffffffffffffffffffffffffffffffffffff1660001b866040518463ffffffff1660e01b8152600401808473ffffffffffffffffffffffffffffffffffffffff1673ffffffffffffffffffffffffffffffffffffffff1681526020018381526020018281526020019350505050600060405180830381600087803b158015610fc657600080fd5b505af1158015610fda573d6000803e3d6000fd5b50505050600660009054906101000a900473ffffffffffffffffffffffffffffffffffffffff1673ffffffffffffffffffffffffffffffffffffffff166323b872dd3330856040518463ffffffff1660e01b8152600401808473ffffffffffffffffffffffffffffffffffffffff1673ffffffffffffffffffffffffffffffffffffffff1681526020018373ffffffffffffffffffffffffffffffffffffffff1673ffffffffffffffffffffffffffffffffffffffff1681526020018281526020019350505050602060405180830381600087803b1580156110bb57600080fd5b505af11580156110cf573d6000803e3d6000fd5b505050506040513d60208110156110e557600080fd5b810190808051906020019092919050505050826001819055506000611109846117e4565b9050600061111f84670de0b6b3a7640000611807565b9050600061112f846103e8611807565b905061114c816111478561114287611737565b611771565b6115d4565b600360106101000a8154816fffffffffffffffffffffffffffffffff0219169083600f0b6fffffffffffffffffffffffffffffffff1602179055506111a96111948385611771565b600360109054906101000a9004600f0b611771565b600360006101000a8154816fffffffffffffffffffffffffffffffff0219169083600f0b6fffffffffffffffffffffffffffffffff16021790555060008090505b868110156112685760028390806001815401808255809150506001900390600052602060002090600291828204019190066010029091909190916101000a8154816fffffffffffffffffffffffffffffffff0219169083600f0b6fffffffffffffffffffffffffffffffff16021790555080806001019150506111ea565b506001600660146101000a81548160ff02191690831515021790555061128e8284611771565b600460106101000a8154816fffffffffffffffffffffffffffffffff0219169083600f0b6fffffffffffffffffffffffffffffffff1602179055506112d1610699565b600460006101000a8154816fffffffffffffffffffffffffffffffff0219169083600f0b6fffffffffffffffffffffffffffffffff16021790555050505050505050565b600060011515600660149054906101000a900460ff1615151461133757600080fd5b600080600090505b60015481101561144d576000816001901b861614611440576113906002828154811061136757fe5b90600052602060002090600291828204019190066010029054906101000a9004600f0b856116d0565b6002828154811061139d57fe5b90600052602060002090600291828204019190066010026101000a8154816fffffffffffffffffffffffffffffffff0219169083600f0b6fffffffffffffffffffffffffffffffff160217905550611404600460109054906101000a9004600f0b856116d0565b600460106101000a8154816fffffffffffffffffffffffffffffffff0219169083600f0b6fffffffffffffffffffffffffffffffff1602179055505b808060010191505061133f565b50611476600460109054906101000a9004600f0b600360109054906101000a9004600f0b611771565b600360006101000a8154816fffffffffffffffffffffffffffffffff0219169083600f0b6fffffffffffffffffffffffffffffffff16021790555060008090505b6001548110156115295761151a82611515611510600285815481106114d857fe5b90600052602060002090600291828204019190066010029054906101000a9004600f0b600360009054906101000a9004600f0b6115d4565b611657565b6116d0565b915080806001019150506114b7565b50600061154d600360009054906101000a9004600f0b61154884611737565b611771565b905061156881600460009054906101000a9004600f0b61186f565b925080600460006101000a8154816fffffffffffffffffffffffffffffffff0219169083600f0b6fffffffffffffffffffffffffffffffff160217905550505092915050565b600660009054906101000a900473ffffffffffffffffffffffffffffffffffffffff1681565b60008082600f0b14156115e657600080fd5b600082600f0b604085600f0b901b816115fb57fe5b0590507fffffffffffffffffffffffffffffffff80000000000000000000000000000000600f0b811215801561164457506f7fffffffffffffffffffffffffffffff600f0b8113155b61164d57600080fd5b8091505092915050565b60006840000000000000000082600f0b1261167157600080fd5b7fffffffffffffffffffffffffffffffffffffffffffffffc0000000000000000082600f0b12156116a557600090506116cb565b6116c86080700171547652b82fe1777d0ffda0d23a7d1284600f0b02901d6118d6565b90505b919050565b60008082600f0b84600f0b0190507fffffffffffffffffffffffffffffffff80000000000000000000000000000000600f0b811215801561172457506f7fffffffffffffffffffffffffffffff600f0b8113155b61172d57600080fd5b8091505092915050565b60008082600f0b1361174857600080fd5b60806fb17217f7d1cf79abc9e3b39803f2f6af611764846124d6565b600f0b02901c9050919050565b600080604083600f0b85600f0b02901d90507fffffffffffffffffffffffffffffffff80000000000000000000000000000000600f0b81121580156117c957506f7fffffffffffffffffffffffffffffff600f0b8113155b6117d257600080fd5b8091505092915050565b600033905090565b6000677fffffffffffffff8211156117fb57600080fd5b604082901b9050919050565b60008082141561181657600080fd5b600061182284846125fe565b90506f7fffffffffffffffffffffffffffffff6fffffffffffffffffffffffffffffffff16816fffffffffffffffffffffffffffffffff16111561186557600080fd5b8091505092915050565b60008082600f0b84600f0b0390507fffffffffffffffffffffffffffffffff80000000000000000000000000000000600f0b81121580156118c357506f7fffffffffffffffffffffffffffffff600f0b8113155b6118cc57600080fd5b8091505092915050565b60006840000000000000000082600f0b126118f057600080fd5b7fffffffffffffffffffffffffffffffffffffffffffffffc0000000000000000082600f0b121561192457600090506124d1565b60006f80000000000000000000000000000000905060006780000000000000008416600f0b131561196a57608070016a09e667f3bcc908b2fb1366ea957d3e8202901c90505b60006740000000000000008416600f0b131561199b5760807001306fe0a31b7152de8d5a46305c85edec8202901c90505b60006720000000000000008416600f0b13156119cc5760807001172b83c7d517adcdf7c8c50eb14a791f8202901c90505b60006710000000000000008416600f0b13156119fd57608070010b5586cf9890f6298b92b71842a983638202901c90505b60006708000000000000008416600f0b1315611a2e5760807001059b0d31585743ae7c548eb68ca417fd8202901c90505b60006704000000000000008416600f0b1315611a5f576080700102c9a3e778060ee6f7caca4f7a29bde88202901c90505b60006702000000000000008416600f0b1315611a9057608070010163da9fb33356d84a66ae336dcdfa3f8202901c90505b60006701000000000000008416600f0b1315611ac1576080700100b1afa5abcbed6129ab13ec11dc95438202901c90505b600066800000000000008416600f0b1315611af157608070010058c86da1c09ea1ff19d294cf2f679b8202901c90505b600066400000000000008416600f0b1315611b215760807001002c605e2e8cec506d21bfc89a23a00f8202901c90505b600066200000000000008416600f0b1315611b51576080700100162f3904051fa128bca9c55c31e5df8202901c90505b600066100000000000008416600f0b1315611b815760807001000b175effdc76ba38e31671ca9397258202901c90505b600066080000000000008416600f0b1315611bb1576080700100058ba01fb9f96d6cacd4b180917c3d8202901c90505b600066040000000000008416600f0b1315611be157608070010002c5cc37da9491d0985c348c68e7b38202901c90505b600066020000000000008416600f0b1315611c115760807001000162e525ee054754457d59952920268202901c90505b600066010000000000008416600f0b1315611c4157608070010000b17255775c040618bf4a4ade83fc8202901c90505b6000658000000000008416600f0b1315611c705760807001000058b91b5bc9ae2eed81e9b7d4cfab8202901c90505b6000654000000000008416600f0b1315611c9f576080700100002c5c89d5ec6ca4d7c8acc017b7c98202901c90505b6000652000000000008416600f0b1315611cce57608070010000162e43f4f831060e02d839a9d16d8202901c90505b6000651000000000008416600f0b1315611cfd576080700100000b1721bcfc99d9f890ea069117638202901c90505b6000650800000000008416600f0b1315611d2c57608070010000058b90cf1e6d97f9ca14dbcc16288202901c90505b6000650400000000008416600f0b1315611d5b5760807001000002c5c863b73f016468f6bac5ca2b8202901c90505b6000650200000000008416600f0b1315611d8a576080700100000162e430e5a18f6119e3c02282a58202901c90505b6000650100000000008416600f0b1315611db95760807001000000b1721835514b86e6d96efd1bfe8202901c90505b60006480000000008416600f0b1315611de7576080700100000058b90c0b48c6be5df846c5b2ef8202901c90505b60006440000000008416600f0b1315611e1557608070010000002c5c8601cc6b9e94213c72737a8202901c90505b60006420000000008416600f0b1315611e435760807001000000162e42fff037df38aa2b219f068202901c90505b60006410000000008416600f0b1315611e7157608070010000000b17217fba9c739aa5819f44f98202901c90505b60006408000000008416600f0b1315611e9f5760807001000000058b90bfcdee5acd3c1cedc8238202901c90505b60006404000000008416600f0b1315611ecd576080700100000002c5c85fe31f35a6a30da1be508202901c90505b60006402000000008416600f0b1315611efb57608070010000000162e42ff0999ce3541b9fffcf8202901c90505b60006401000000008416600f0b1315611f29576080700100000000b17217f80f4ef5aadda455548202901c90505b600063800000008416600f0b1315611f5657608070010000000058b90bfbf8479bd5a81b51ad8202901c90505b600063400000008416600f0b1315611f835760807001000000002c5c85fdf84bd62ae30a74cc8202901c90505b600063200000008416600f0b1315611fb0576080700100000000162e42fefb2fed257559bdaa8202901c90505b600063100000008416600f0b1315611fdd5760807001000000000b17217f7d5a7716bba4a9ae8202901c90505b600063080000008416600f0b131561200a576080700100000000058b90bfbe9ddbac5e109cce8202901c90505b600063040000008416600f0b131561203757608070010000000002c5c85fdf4b15de6f17eb0d8202901c90505b600063020000008416600f0b13156120645760807001000000000162e42fefa494f1478fde058202901c90505b600063010000008416600f0b131561209157608070010000000000b17217f7d20cf927c8e94c8202901c90505b6000628000008416600f0b13156120bd5760807001000000000058b90bfbe8f71cb4e4b33d8202901c90505b6000624000008416600f0b13156120e9576080700100000000002c5c85fdf477b662b269458202901c90505b6000622000008416600f0b131561211557608070010000000000162e42fefa3ae53369388c8202901c90505b6000621000008416600f0b1315612141576080700100000000000b17217f7d1d351a389d408202901c90505b6000620800008416600f0b131561216d57608070010000000000058b90bfbe8e8b2d3d4ede8202901c90505b6000620400008416600f0b13156121995760807001000000000002c5c85fdf4741bea6e77e8202901c90505b6000620200008416600f0b13156121c5576080700100000000000162e42fefa39fe95583c28202901c90505b6000620100008416600f0b13156121f15760807001000000000000b17217f7d1cfb72b45e18202901c90505b60006180008416600f0b131561221c576080700100000000000058b90bfbe8e7cc35c3f08202901c90505b60006140008416600f0b131561224757608070010000000000002c5c85fdf473e242ea388202901c90505b60006120008416600f0b13156122725760807001000000000000162e42fefa39f02b772c8202901c90505b60006110008416600f0b131561229d57608070010000000000000b17217f7d1cf7d83c1a8202901c90505b60006108008416600f0b13156122c85760807001000000000000058b90bfbe8e7bdcbe2e8202901c90505b60006104008416600f0b13156122f3576080700100000000000002c5c85fdf473dea871f8202901c90505b60006102008416600f0b131561231e57608070010000000000000162e42fefa39ef44d918202901c90505b60006101008416600f0b1315612349576080700100000000000000b17217f7d1cf79e9498202901c90505b600060808416600f0b131561237357608070010000000000000058b90bfbe8e7bce5448202901c90505b600060408416600f0b131561239d5760807001000000000000002c5c85fdf473de6eca8202901c90505b600060208416600f0b13156123c7576080700100000000000000162e42fefa39ef366f8202901c90505b600060108416600f0b13156123f15760807001000000000000000b17217f7d1cf79afa8202901c90505b600060088416600f0b131561241b576080700100000000000000058b90bfbe8e7bcd6d8202901c90505b600060048416600f0b131561244557608070010000000000000002c5c85fdf473de6b28202901c90505b600060028416600f0b131561246f5760807001000000000000000162e42fefa39ef3588202901c90505b600060018416600f0b131561249957608070010000000000000000b17217f7d1cf79ab8202901c90505b604083600f0b901d603f03600f0b81901c90506f7fffffffffffffffffffffffffffffff600f0b8111156124cc57600080fd5b809150505b919050565b60008082600f0b136124e757600080fd5b6000809050600083600f0b905068010000000000000000811261251257604081901d90506040820191505b640100000000811261252c57602081901d90506020820191505b62010000811261254457601081901d90506010820191505b610100811261255b57600881901d90506008820191505b6010811261257157600481901d90506004820191505b6004811261258757600281901d90506002820191505b60028112612596576001820191505b60006040808403901b9050600083607f0386600f0b901b9050600067800000000000000090505b60008113156125f1578182029150600060ff83901c905080607f0183901c92508082028401935050600181901d90506125bd565b5081945050505050919050565b60008082141561260d57600080fd5b600077ffffffffffffffffffffffffffffffffffffffffffffffff84116126435782604085901b8161263b57fe5b049050612798565b600060c09050600060c086901c9050640100000000811061266c57602081901c90506020820191505b62010000811061268457601081901c90506010820191505b610100811061269b57600881901c90506008820191505b601081106126b157600481901c90506004820191505b600481106126c757600281901c90506002820191505b600281106126d6576001820191505b600160bf830360018703901c018260ff0387901b816126f157fe5b0492506fffffffffffffffffffffffffffffffff83111561271157600080fd5b6000608086901c8402905060006fffffffffffffffffffffffffffffffff871685029050600060c089901c9050600060408a901b905082811015612756576001820391505b8281039050608084901b925082811015612771576001820391505b8281039050608084901c821461278357fe5b88818161278c57fe5b04870196505050505050505b6fffffffffffffffffffffffffffffffff8111156127b557600080fd5b809150509291505056fe4f776e61626c653a206e6577206f776e657220697320746865207a65726f2061646472657373a26469706673582212204ee03b1171bbe67138ba7204e3d29da3fcfe522e7956854647c84cf5fc04a2c364736f6c63430006020033",
  "linkReferences": {},
  "deployedLinkReferences": {}
}