{
  "_format": "hh-sol-artifact-1",
  "contractName": "LsLMSR",
  "sourceName": "contracts/LsLMSR.sol",
  "abi": [
    {
      "inputs": [
        {
          "internalType": "address",
          "name": "_ct",
          "type": "address"
        },
        {
          "internalType": "address",
          "name": "_oracle",
          "type": "address"
        },
        {
          "internalType": "uint256",
          "name": "_numOutcomes",
          "type": "uint256"
        },
        {
          "internalType": "uint256",
          "name": "_subsidy",
          "type": "uint256"
        }
      ],
      "stateMutability": "nonpayable",
      "type": "constructor"
    },
    {
      "anonymous": false,
      "inputs": [
        {
          "indexed": true,
          "internalType": "address",
          "name": "previousOwner",
          "type": "address"
        },
        {
          "indexed": true,
          "internalType": "address",
          "name": "newOwner",
          "type": "address"
        }
      ],
      "name": "OwnershipTransferred",
      "type": "event"
    },
    {
      "inputs": [],
      "name": "numOutcomes",
      "outputs": [
        {
          "internalType": "uint256",
          "name": "",
          "type": "uint256"
        }
      ],
      "stateMutability": "view",
      "type": "function"
    },
    {
      "inputs": [
        {
          "internalType": "address",
          "name": "operator",
          "type": "address"
        },
        {
          "internalType": "address",
          "name": "from",
          "type": "address"
        },
        {
          "internalType": "uint256[]",
          "name": "ids",
          "type": "uint256[]"
        },
        {
          "internalType": "uint256[]",
          "name": "values",
          "type": "uint256[]"
        },
        {
          "internalType": "bytes",
          "name": "data",
          "type": "bytes"
        }
      ],
      "name": "onERC1155BatchReceived",
      "outputs": [
        {
          "internalType": "bytes4",
          "name": "",
          "type": "bytes4"
        }
      ],
      "stateMutability": "nonpayable",
      "type": "function"
    },
    {
      "inputs": [
        {
          "internalType": "address",
          "name": "operator",
          "type": "address"
        },
        {
          "internalType": "address",
          "name": "from",
          "type": "address"
        },
        {
          "internalType": "uint256",
          "name": "id",
          "type": "uint256"
        },
        {
          "internalType": "uint256",
          "name": "value",
          "type": "uint256"
        },
        {
          "internalType": "bytes",
          "name": "data",
          "type": "bytes"
        }
      ],
      "name": "onERC1155Received",
      "outputs": [
        {
          "internalType": "bytes4",
          "name": "",
          "type": "bytes4"
        }
      ],
      "stateMutability": "nonpayable",
      "type": "function"
    },
    {
      "inputs": [],
      "name": "owner",
      "outputs": [
        {
          "internalType": "address",
          "name": "",
          "type": "address"
        }
      ],
      "stateMutability": "view",
      "type": "function"
    },
    {
      "inputs": [],
      "name": "renounceOwnership",
      "outputs": [],
      "stateMutability": "nonpayable",
      "type": "function"
    },
    {
      "inputs": [
        {
          "internalType": "bytes4",
          "name": "interfaceId",
          "type": "bytes4"
        }
      ],
      "name": "supportsInterface",
      "outputs": [
        {
          "internalType": "bool",
          "name": "",
          "type": "bool"
        }
      ],
      "stateMutability": "view",
      "type": "function"
    },
    {
      "inputs": [
        {
          "internalType": "address",
          "name": "newOwner",
          "type": "address"
        }
      ],
      "name": "transferOwnership",
      "outputs": [],
      "stateMutability": "nonpayable",
      "type": "function"
    }
  ],
  "bytecode": "0x60806040523480156200001157600080fd5b506040516200356c3803806200356c833981810160405260808110156200003757600080fd5b8101908080519060200190929190805190602001909291908051906020019092919080519060200190929190505050600062000078620005f760201b60201c565b9050806000806101000a81548173ffffffffffffffffffffffffffffffffffffffff021916908373ffffffffffffffffffffffffffffffffffffffff1602179055508073ffffffffffffffffffffffffffffffffffffffff16600073ffffffffffffffffffffffffffffffffffffffff167f8be0079c531659141344cd1fd0a4f28419497f9722a3daafe3b4186f6b6457e060405160405180910390a35083600560006101000a81548173ffffffffffffffffffffffffffffffffffffffff021916908373ffffffffffffffffffffffffffffffffffffffff160217905550600560009054906101000a900473ffffffffffffffffffffffffffffffffffffffff1673ffffffffffffffffffffffffffffffffffffffff1663d96ee75484600160001b856040518463ffffffff1660e01b8152600401808473ffffffffffffffffffffffffffffffffffffffff1673ffffffffffffffffffffffffffffffffffffffff1681526020018381526020018281526020019350505050600060405180830381600087803b1580156200020d57600080fd5b505af115801562000222573d6000803e3d6000fd5b505050506200028d6040518060400160405280601781526020017f436f6e646974696f6e205072657061726174696f6e3a20000000000000000000815250846040518060600160405280602281526020016200354a6022913985620005ff60201b620008721760201c565b816001819055506000620002ac83620007b760201b62000a1c1760201c565b90506000620002c683620007b760201b62000a1c1760201c565b9050600062000324600162000313600a6200030287620002f189620007db60201b62000a3f1760201c565b6200081e60201b62000a791760201c565b6200081e60201b62000a791760201c565b6200088b60201b62000ae41760201c565b600360106101000a8154816fffffffffffffffffffffffffffffffff0219169083600f0b6fffffffffffffffffffffffffffffffff1602179055506200039b6200037a83856200081e60201b62000a791760201c565b600360109054906101000a9004600f0b6200081e60201b62000a791760201c565b600360006101000a8154816fffffffffffffffffffffffffffffffff0219169083600f0b6fffffffffffffffffffffffffffffffff1602179055506000620004136200040284600360009054906101000a9004600f0b6200088b60201b62000ae41760201c565b6200091260201b62000b671760201c565b905060008090505b86811015620004b45760028490806001815401808255809150506001900390600052602060002090600291828204019190066010029091909190916101000a8154816fffffffffffffffffffffffffffffffff0219169083600f0b6fffffffffffffffffffffffffffffffff160217905550620004a483836200099660201b62000be01760201c565b925080806001019150506200041b565b506000620004ce84866200081e60201b62000a791760201c565b905062000505620004ea82620009ff60201b62000c471760201c565b67ffffffffffffffff1662000a2160201b62000c681760201c565b6000600460006101000a8154816fffffffffffffffffffffffffffffffff0219169083600f0b6fffffffffffffffffffffffffffffffff16021790555060009050620005e86040518060400160405280600a81526020017f715b25735d203d20257300000000000000000000000000000000000000000000815250600280549050620005cd60026000815481106200059957fe5b90600052602060002090600291828204019190066010029054906101000a9004600f0b620009ff60201b62000c471760201c565b67ffffffffffffffff1662000ac260201b62000d011760201c565b5050505050505050506200197c565b600033905090565b620007b18484848460405160240180806020018573ffffffffffffffffffffffffffffffffffffffff1673ffffffffffffffffffffffffffffffffffffffff16815260200180602001848152602001838103835287818151815260200191508051906020019080838360005b83811015620006885780820151818401526020810190506200066b565b50505050905090810190601f168015620006b65780820380516001836020036101000a031916815260200191505b50838103825285818151815260200191508051906020019080838360005b83811015620006f1578082015181840152602081019050620006d4565b50505050905090810190601f1680156200071f5780820380516001836020036101000a031916815260200191505b5096505050505050506040516020818303038152906040527f8f624be9000000000000000000000000000000000000000000000000000000007bffffffffffffffffffffffffffffffffffffffffffffffffffffffff19166020820180517bffffffffffffffffffffffffffffffffffffffffffffffffffffffff838183161783525050505062000bdd60201b60201c565b50505050565b6000677fffffffffffffff821115620007cf57600080fd5b604082901b9050919050565b60008082600f0b13620007ed57600080fd5b60806fb17217f7d1cf79abc9e3b39803f2f6af620008118462000c0660201b60201c565b600f0b02901c9050919050565b600080604083600f0b85600f0b02901d90507fffffffffffffffffffffffffffffffff80000000000000000000000000000000600f0b81121580156200087757506f7fffffffffffffffffffffffffffffff600f0b8113155b6200088157600080fd5b8091505092915050565b60008082600f0b14156200089e57600080fd5b600082600f0b604085600f0b901b81620008b457fe5b0590507fffffffffffffffffffffffffffffffff80000000000000000000000000000000600f0b8112158015620008fe57506f7fffffffffffffffffffffffffffffff600f0b8113155b6200090857600080fd5b8091505092915050565b60006840000000000000000082600f0b126200092d57600080fd5b7fffffffffffffffffffffffffffffffffffffffffffffffc0000000000000000082600f0b121562000963576000905062000991565b6200098e6080700171547652b82fe1777d0ffda0d23a7d1284600f0b02901d62000d3860201b60201c565b90505b919050565b60008082600f0b84600f0b0190507fffffffffffffffffffffffffffffffff80000000000000000000000000000000600f0b8112158015620009eb57506f7fffffffffffffffffffffffffffffff600f0b8113155b620009f557600080fd5b8091505092915050565b60008082600f0b121562000a1257600080fd5b604082600f0b901d9050919050565b62000abf81604051602401808281526020019150506040516020818303038152906040527ff5b1bba9000000000000000000000000000000000000000000000000000000007bffffffffffffffffffffffffffffffffffffffffffffffffffffffff19166020820180517bffffffffffffffffffffffffffffffffffffffffffffffffffffffff838183161783525050505062000bdd60201b60201c565b50565b62000bd88383836040516024018080602001848152602001838152602001828103825285818151815260200191508051906020019080838360005b8381101562000b1a57808201518184015260208101905062000afd565b50505050905090810190601f16801562000b485780820380516001836020036101000a031916815260200191505b509450505050506040516020818303038152906040527f969cdd03000000000000000000000000000000000000000000000000000000007bffffffffffffffffffffffffffffffffffffffffffffffffffffffff19166020820180517bffffffffffffffffffffffffffffffffffffffffffffffffffffffff838183161783525050505062000bdd60201b60201c565b505050565b60008151905060006a636f6e736f6c652e6c6f679050602083016000808483855afa5050505050565b60008082600f0b1362000c1857600080fd5b6000809050600083600f0b905068010000000000000000811262000c4457604081901d90506040820191505b640100000000811262000c5f57602081901d90506020820191505b62010000811262000c7857601081901d90506010820191505b610100811262000c9057600881901d90506008820191505b6010811262000ca757600481901d90506004820191505b6004811262000cbe57600281901d90506002820191505b6002811262000cce576001820191505b60006040808403901b9050600083607f0386600f0b901b9050600067800000000000000090505b600081131562000d2b578182029150600060ff83901c905080607f0183901c92508082028401935050600181901d905062000cf5565b5081945050505050919050565b60006840000000000000000082600f0b1262000d5357600080fd5b7fffffffffffffffffffffffffffffffffffffffffffffffc0000000000000000082600f0b121562000d89576000905062001977565b60006f80000000000000000000000000000000905060006780000000000000008416600f0b131562000dd057608070016a09e667f3bcc908b2fb1366ea957d3e8202901c90505b60006740000000000000008416600f0b131562000e025760807001306fe0a31b7152de8d5a46305c85edec8202901c90505b60006720000000000000008416600f0b131562000e345760807001172b83c7d517adcdf7c8c50eb14a791f8202901c90505b60006710000000000000008416600f0b131562000e6657608070010b5586cf9890f6298b92b71842a983638202901c90505b60006708000000000000008416600f0b131562000e985760807001059b0d31585743ae7c548eb68ca417fd8202901c90505b60006704000000000000008416600f0b131562000eca576080700102c9a3e778060ee6f7caca4f7a29bde88202901c90505b60006702000000000000008416600f0b131562000efc57608070010163da9fb33356d84a66ae336dcdfa3f8202901c90505b60006701000000000000008416600f0b131562000f2e576080700100b1afa5abcbed6129ab13ec11dc95438202901c90505b600066800000000000008416600f0b131562000f5f57608070010058c86da1c09ea1ff19d294cf2f679b8202901c90505b600066400000000000008416600f0b131562000f905760807001002c605e2e8cec506d21bfc89a23a00f8202901c90505b600066200000000000008416600f0b131562000fc1576080700100162f3904051fa128bca9c55c31e5df8202901c90505b600066100000000000008416600f0b131562000ff25760807001000b175effdc76ba38e31671ca9397258202901c90505b600066080000000000008416600f0b131562001023576080700100058ba01fb9f96d6cacd4b180917c3d8202901c90505b600066040000000000008416600f0b13156200105457608070010002c5cc37da9491d0985c348c68e7b38202901c90505b600066020000000000008416600f0b1315620010855760807001000162e525ee054754457d59952920268202901c90505b600066010000000000008416600f0b1315620010b657608070010000b17255775c040618bf4a4ade83fc8202901c90505b6000658000000000008416600f0b1315620010e65760807001000058b91b5bc9ae2eed81e9b7d4cfab8202901c90505b6000654000000000008416600f0b131562001116576080700100002c5c89d5ec6ca4d7c8acc017b7c98202901c90505b6000652000000000008416600f0b13156200114657608070010000162e43f4f831060e02d839a9d16d8202901c90505b6000651000000000008416600f0b131562001176576080700100000b1721bcfc99d9f890ea069117638202901c90505b6000650800000000008416600f0b1315620011a657608070010000058b90cf1e6d97f9ca14dbcc16288202901c90505b6000650400000000008416600f0b1315620011d65760807001000002c5c863b73f016468f6bac5ca2b8202901c90505b6000650200000000008416600f0b131562001206576080700100000162e430e5a18f6119e3c02282a58202901c90505b6000650100000000008416600f0b1315620012365760807001000000b1721835514b86e6d96efd1bfe8202901c90505b60006480000000008416600f0b131562001265576080700100000058b90c0b48c6be5df846c5b2ef8202901c90505b60006440000000008416600f0b13156200129457608070010000002c5c8601cc6b9e94213c72737a8202901c90505b60006420000000008416600f0b1315620012c35760807001000000162e42fff037df38aa2b219f068202901c90505b60006410000000008416600f0b1315620012f257608070010000000b17217fba9c739aa5819f44f98202901c90505b60006408000000008416600f0b1315620013215760807001000000058b90bfcdee5acd3c1cedc8238202901c90505b60006404000000008416600f0b131562001350576080700100000002c5c85fe31f35a6a30da1be508202901c90505b60006402000000008416600f0b13156200137f57608070010000000162e42ff0999ce3541b9fffcf8202901c90505b60006401000000008416600f0b1315620013ae576080700100000000b17217f80f4ef5aadda455548202901c90505b600063800000008416600f0b1315620013dc57608070010000000058b90bfbf8479bd5a81b51ad8202901c90505b600063400000008416600f0b13156200140a5760807001000000002c5c85fdf84bd62ae30a74cc8202901c90505b600063200000008416600f0b131562001438576080700100000000162e42fefb2fed257559bdaa8202901c90505b600063100000008416600f0b1315620014665760807001000000000b17217f7d5a7716bba4a9ae8202901c90505b600063080000008416600f0b131562001494576080700100000000058b90bfbe9ddbac5e109cce8202901c90505b600063040000008416600f0b1315620014c257608070010000000002c5c85fdf4b15de6f17eb0d8202901c90505b600063020000008416600f0b1315620014f05760807001000000000162e42fefa494f1478fde058202901c90505b600063010000008416600f0b13156200151e57608070010000000000b17217f7d20cf927c8e94c8202901c90505b6000628000008416600f0b13156200154b5760807001000000000058b90bfbe8f71cb4e4b33d8202901c90505b6000624000008416600f0b131562001578576080700100000000002c5c85fdf477b662b269458202901c90505b6000622000008416600f0b1315620015a557608070010000000000162e42fefa3ae53369388c8202901c90505b6000621000008416600f0b1315620015d2576080700100000000000b17217f7d1d351a389d408202901c90505b6000620800008416600f0b1315620015ff57608070010000000000058b90bfbe8e8b2d3d4ede8202901c90505b6000620400008416600f0b13156200162c5760807001000000000002c5c85fdf4741bea6e77e8202901c90505b6000620200008416600f0b131562001659576080700100000000000162e42fefa39fe95583c28202901c90505b6000620100008416600f0b1315620016865760807001000000000000b17217f7d1cfb72b45e18202901c90505b60006180008416600f0b1315620016b2576080700100000000000058b90bfbe8e7cc35c3f08202901c90505b60006140008416600f0b1315620016de57608070010000000000002c5c85fdf473e242ea388202901c90505b60006120008416600f0b13156200170a5760807001000000000000162e42fefa39f02b772c8202901c90505b60006110008416600f0b13156200173657608070010000000000000b17217f7d1cf7d83c1a8202901c90505b60006108008416600f0b1315620017625760807001000000000000058b90bfbe8e7bdcbe2e8202901c90505b60006104008416600f0b13156200178e576080700100000000000002c5c85fdf473dea871f8202901c90505b60006102008416600f0b1315620017ba57608070010000000000000162e42fefa39ef44d918202901c90505b60006101008416600f0b1315620017e6576080700100000000000000b17217f7d1cf79e9498202901c90505b600060808416600f0b13156200181157608070010000000000000058b90bfbe8e7bce5448202901c90505b600060408416600f0b13156200183c5760807001000000000000002c5c85fdf473de6eca8202901c90505b600060208416600f0b131562001867576080700100000000000000162e42fefa39ef366f8202901c90505b600060108416600f0b1315620018925760807001000000000000000b17217f7d1cf79afa8202901c90505b600060088416600f0b1315620018bd576080700100000000000000058b90bfbe8e7bcd6d8202901c90505b600060048416600f0b1315620018e857608070010000000000000002c5c85fdf473de6b28202901c90505b600060028416600f0b1315620019135760807001000000000000000162e42fefa39ef3588202901c90505b600060018416600f0b13156200193e57608070010000000000000000b17217f7d1cf79ab8202901c90505b604083600f0b901d603f03600f0b81901c90506f7fffffffffffffffffffffffffffffff600f0b8111156200197257600080fd5b809150505b919050565b611bbe806200198c6000396000f3fe608060405234801561001057600080fd5b506004361061007d5760003560e01c80638da5cb5b1161005b5780638da5cb5b1461010f578063bc197c8114610159578063f23a6e611461030e578063f2fde38b1461042d5761007d565b806301ffc9a714610082578063715018a6146100e75780638767d64e146100f1575b600080fd5b6100cd6004803603602081101561009857600080fd5b8101908080357bffffffffffffffffffffffffffffffffffffffffffffffffffffffff19169060200190929190505050610471565b604051808215151515815260200191505060405180910390f35b6100ef610478565b005b6100f9610600565b6040518082815260200191505060405180910390f35b610117610606565b604051808273ffffffffffffffffffffffffffffffffffffffff1673ffffffffffffffffffffffffffffffffffffffff16815260200191505060405180910390f35b6102ba600480360360a081101561016f57600080fd5b81019080803573ffffffffffffffffffffffffffffffffffffffff169060200190929190803573ffffffffffffffffffffffffffffffffffffffff169060200190929190803590602001906401000000008111156101cc57600080fd5b8201836020820111156101de57600080fd5b8035906020019184602083028401116401000000008311171561020057600080fd5b90919293919293908035906020019064010000000081111561022157600080fd5b82018360208201111561023357600080fd5b8035906020019184602083028401116401000000008311171561025557600080fd5b90919293919293908035906020019064010000000081111561027657600080fd5b82018360208201111561028857600080fd5b803590602001918460018302840111640100000000831117156102aa57600080fd5b909192939192939050505061062f565b60405180827bffffffffffffffffffffffffffffffffffffffffffffffffffffffff19167bffffffffffffffffffffffffffffffffffffffffffffffffffffffff1916815260200191505060405180910390f35b6103d9600480360360a081101561032457600080fd5b81019080803573ffffffffffffffffffffffffffffffffffffffff169060200190929190803573ffffffffffffffffffffffffffffffffffffffff16906020019092919080359060200190929190803590602001909291908035906020019064010000000081111561039557600080fd5b8201836020820111156103a757600080fd5b803590602001918460018302840111640100000000831117156103c957600080fd5b9091929391929390505050610647565b60405180827bffffffffffffffffffffffffffffffffffffffffffffffffffffffff19167bffffffffffffffffffffffffffffffffffffffffffffffffffffffff1916815260200191505060405180910390f35b61046f6004803603602081101561044357600080fd5b81019080803573ffffffffffffffffffffffffffffffffffffffff16906020019092919050505061065d565b005b6000919050565b61048061086a565b73ffffffffffffffffffffffffffffffffffffffff166000809054906101000a900473ffffffffffffffffffffffffffffffffffffffff1673ffffffffffffffffffffffffffffffffffffffff1614610541576040517f08c379a00000000000000000000000000000000000000000000000000000000081526004018080602001828103825260208152602001807f4f776e61626c653a2063616c6c6572206973206e6f7420746865206f776e657281525060200191505060405180910390fd5b600073ffffffffffffffffffffffffffffffffffffffff166000809054906101000a900473ffffffffffffffffffffffffffffffffffffffff1673ffffffffffffffffffffffffffffffffffffffff167f8be0079c531659141344cd1fd0a4f28419497f9722a3daafe3b4186f6b6457e060405160405180910390a360008060006101000a81548173ffffffffffffffffffffffffffffffffffffffff021916908373ffffffffffffffffffffffffffffffffffffffff160217905550565b60015481565b60008060009054906101000a900473ffffffffffffffffffffffffffffffffffffffff16905090565b600063bc197c8160e01b905098975050505050505050565b600063f23a6e6160e01b90509695505050505050565b61066561086a565b73ffffffffffffffffffffffffffffffffffffffff166000809054906101000a900473ffffffffffffffffffffffffffffffffffffffff1673ffffffffffffffffffffffffffffffffffffffff1614610726576040517f08c379a00000000000000000000000000000000000000000000000000000000081526004018080602001828103825260208152602001807f4f776e61626c653a2063616c6c6572206973206e6f7420746865206f776e657281525060200191505060405180910390fd5b600073ffffffffffffffffffffffffffffffffffffffff168173ffffffffffffffffffffffffffffffffffffffff1614156107ac576040517f08c379a0000000000000000000000000000000000000000000000000000000008152600401808060200182810382526026815260200180611b636026913960400191505060405180910390fd5b8073ffffffffffffffffffffffffffffffffffffffff166000809054906101000a900473ffffffffffffffffffffffffffffffffffffffff1673ffffffffffffffffffffffffffffffffffffffff167f8be0079c531659141344cd1fd0a4f28419497f9722a3daafe3b4186f6b6457e060405160405180910390a3806000806101000a81548173ffffffffffffffffffffffffffffffffffffffff021916908373ffffffffffffffffffffffffffffffffffffffff16021790555050565b600033905090565b610a168484848460405160240180806020018573ffffffffffffffffffffffffffffffffffffffff1673ffffffffffffffffffffffffffffffffffffffff16815260200180602001848152602001838103835287818151815260200191508051906020019080838360005b838110156108f85780820151818401526020810190506108dd565b50505050905090810190601f1680156109255780820380516001836020036101000a031916815260200191505b50838103825285818151815260200191508051906020019080838360005b8381101561095e578082015181840152602081019050610943565b50505050905090810190601f16801561098b5780820380516001836020036101000a031916815260200191505b5096505050505050506040516020818303038152906040527f8f624be9000000000000000000000000000000000000000000000000000000007bffffffffffffffffffffffffffffffffffffffffffffffffffffffff19166020820180517bffffffffffffffffffffffffffffffffffffffffffffffffffffffff8381831617835250505050610e11565b50505050565b6000677fffffffffffffff821115610a3357600080fd5b604082901b9050919050565b60008082600f0b13610a5057600080fd5b60806fb17217f7d1cf79abc9e3b39803f2f6af610a6c84610e3a565b600f0b02901c9050919050565b600080604083600f0b85600f0b02901d90507fffffffffffffffffffffffffffffffff80000000000000000000000000000000600f0b8112158015610ad157506f7fffffffffffffffffffffffffffffff600f0b8113155b610ada57600080fd5b8091505092915050565b60008082600f0b1415610af657600080fd5b600082600f0b604085600f0b901b81610b0b57fe5b0590507fffffffffffffffffffffffffffffffff80000000000000000000000000000000600f0b8112158015610b5457506f7fffffffffffffffffffffffffffffff600f0b8113155b610b5d57600080fd5b8091505092915050565b60006840000000000000000082600f0b12610b8157600080fd5b7fffffffffffffffffffffffffffffffffffffffffffffffc0000000000000000082600f0b1215610bb55760009050610bdb565b610bd86080700171547652b82fe1777d0ffda0d23a7d1284600f0b02901d610f62565b90505b919050565b60008082600f0b84600f0b0190507fffffffffffffffffffffffffffffffff80000000000000000000000000000000600f0b8112158015610c3457506f7fffffffffffffffffffffffffffffff600f0b8113155b610c3d57600080fd5b8091505092915050565b60008082600f0b1215610c5957600080fd5b604082600f0b901d9050919050565b610cfe81604051602401808281526020019150506040516020818303038152906040527ff5b1bba9000000000000000000000000000000000000000000000000000000007bffffffffffffffffffffffffffffffffffffffffffffffffffffffff19166020820180517bffffffffffffffffffffffffffffffffffffffffffffffffffffffff8381831617835250505050610e11565b50565b610e0c8383836040516024018080602001848152602001838152602001828103825285818151815260200191508051906020019080838360005b83811015610d56578082015181840152602081019050610d3b565b50505050905090810190601f168015610d835780820380516001836020036101000a031916815260200191505b509450505050506040516020818303038152906040527f969cdd03000000000000000000000000000000000000000000000000000000007bffffffffffffffffffffffffffffffffffffffffffffffffffffffff19166020820180517bffffffffffffffffffffffffffffffffffffffffffffffffffffffff8381831617835250505050610e11565b505050565b60008151905060006a636f6e736f6c652e6c6f679050602083016000808483855afa5050505050565b60008082600f0b13610e4b57600080fd5b6000809050600083600f0b9050680100000000000000008112610e7657604081901d90506040820191505b6401000000008112610e9057602081901d90506020820191505b620100008112610ea857601081901d90506010820191505b6101008112610ebf57600881901d90506008820191505b60108112610ed557600481901d90506004820191505b60048112610eeb57600281901d90506002820191505b60028112610efa576001820191505b60006040808403901b9050600083607f0386600f0b901b9050600067800000000000000090505b6000811315610f55578182029150600060ff83901c905080607f0183901c92508082028401935050600181901d9050610f21565b5081945050505050919050565b60006840000000000000000082600f0b12610f7c57600080fd5b7fffffffffffffffffffffffffffffffffffffffffffffffc0000000000000000082600f0b1215610fb05760009050611b5d565b60006f80000000000000000000000000000000905060006780000000000000008416600f0b1315610ff657608070016a09e667f3bcc908b2fb1366ea957d3e8202901c90505b60006740000000000000008416600f0b13156110275760807001306fe0a31b7152de8d5a46305c85edec8202901c90505b60006720000000000000008416600f0b13156110585760807001172b83c7d517adcdf7c8c50eb14a791f8202901c90505b60006710000000000000008416600f0b131561108957608070010b5586cf9890f6298b92b71842a983638202901c90505b60006708000000000000008416600f0b13156110ba5760807001059b0d31585743ae7c548eb68ca417fd8202901c90505b60006704000000000000008416600f0b13156110eb576080700102c9a3e778060ee6f7caca4f7a29bde88202901c90505b60006702000000000000008416600f0b131561111c57608070010163da9fb33356d84a66ae336dcdfa3f8202901c90505b60006701000000000000008416600f0b131561114d576080700100b1afa5abcbed6129ab13ec11dc95438202901c90505b600066800000000000008416600f0b131561117d57608070010058c86da1c09ea1ff19d294cf2f679b8202901c90505b600066400000000000008416600f0b13156111ad5760807001002c605e2e8cec506d21bfc89a23a00f8202901c90505b600066200000000000008416600f0b13156111dd576080700100162f3904051fa128bca9c55c31e5df8202901c90505b600066100000000000008416600f0b131561120d5760807001000b175effdc76ba38e31671ca9397258202901c90505b600066080000000000008416600f0b131561123d576080700100058ba01fb9f96d6cacd4b180917c3d8202901c90505b600066040000000000008416600f0b131561126d57608070010002c5cc37da9491d0985c348c68e7b38202901c90505b600066020000000000008416600f0b131561129d5760807001000162e525ee054754457d59952920268202901c90505b600066010000000000008416600f0b13156112cd57608070010000b17255775c040618bf4a4ade83fc8202901c90505b6000658000000000008416600f0b13156112fc5760807001000058b91b5bc9ae2eed81e9b7d4cfab8202901c90505b6000654000000000008416600f0b131561132b576080700100002c5c89d5ec6ca4d7c8acc017b7c98202901c90505b6000652000000000008416600f0b131561135a57608070010000162e43f4f831060e02d839a9d16d8202901c90505b6000651000000000008416600f0b1315611389576080700100000b1721bcfc99d9f890ea069117638202901c90505b6000650800000000008416600f0b13156113b857608070010000058b90cf1e6d97f9ca14dbcc16288202901c90505b6000650400000000008416600f0b13156113e75760807001000002c5c863b73f016468f6bac5ca2b8202901c90505b6000650200000000008416600f0b1315611416576080700100000162e430e5a18f6119e3c02282a58202901c90505b6000650100000000008416600f0b13156114455760807001000000b1721835514b86e6d96efd1bfe8202901c90505b60006480000000008416600f0b1315611473576080700100000058b90c0b48c6be5df846c5b2ef8202901c90505b60006440000000008416600f0b13156114a157608070010000002c5c8601cc6b9e94213c72737a8202901c90505b60006420000000008416600f0b13156114cf5760807001000000162e42fff037df38aa2b219f068202901c90505b60006410000000008416600f0b13156114fd57608070010000000b17217fba9c739aa5819f44f98202901c90505b60006408000000008416600f0b131561152b5760807001000000058b90bfcdee5acd3c1cedc8238202901c90505b60006404000000008416600f0b1315611559576080700100000002c5c85fe31f35a6a30da1be508202901c90505b60006402000000008416600f0b131561158757608070010000000162e42ff0999ce3541b9fffcf8202901c90505b60006401000000008416600f0b13156115b5576080700100000000b17217f80f4ef5aadda455548202901c90505b600063800000008416600f0b13156115e257608070010000000058b90bfbf8479bd5a81b51ad8202901c90505b600063400000008416600f0b131561160f5760807001000000002c5c85fdf84bd62ae30a74cc8202901c90505b600063200000008416600f0b131561163c576080700100000000162e42fefb2fed257559bdaa8202901c90505b600063100000008416600f0b13156116695760807001000000000b17217f7d5a7716bba4a9ae8202901c90505b600063080000008416600f0b1315611696576080700100000000058b90bfbe9ddbac5e109cce8202901c90505b600063040000008416600f0b13156116c357608070010000000002c5c85fdf4b15de6f17eb0d8202901c90505b600063020000008416600f0b13156116f05760807001000000000162e42fefa494f1478fde058202901c90505b600063010000008416600f0b131561171d57608070010000000000b17217f7d20cf927c8e94c8202901c90505b6000628000008416600f0b13156117495760807001000000000058b90bfbe8f71cb4e4b33d8202901c90505b6000624000008416600f0b1315611775576080700100000000002c5c85fdf477b662b269458202901c90505b6000622000008416600f0b13156117a157608070010000000000162e42fefa3ae53369388c8202901c90505b6000621000008416600f0b13156117cd576080700100000000000b17217f7d1d351a389d408202901c90505b6000620800008416600f0b13156117f957608070010000000000058b90bfbe8e8b2d3d4ede8202901c90505b6000620400008416600f0b13156118255760807001000000000002c5c85fdf4741bea6e77e8202901c90505b6000620200008416600f0b1315611851576080700100000000000162e42fefa39fe95583c28202901c90505b6000620100008416600f0b131561187d5760807001000000000000b17217f7d1cfb72b45e18202901c90505b60006180008416600f0b13156118a8576080700100000000000058b90bfbe8e7cc35c3f08202901c90505b60006140008416600f0b13156118d357608070010000000000002c5c85fdf473e242ea388202901c90505b60006120008416600f0b13156118fe5760807001000000000000162e42fefa39f02b772c8202901c90505b60006110008416600f0b131561192957608070010000000000000b17217f7d1cf7d83c1a8202901c90505b60006108008416600f0b13156119545760807001000000000000058b90bfbe8e7bdcbe2e8202901c90505b60006104008416600f0b131561197f576080700100000000000002c5c85fdf473dea871f8202901c90505b60006102008416600f0b13156119aa57608070010000000000000162e42fefa39ef44d918202901c90505b60006101008416600f0b13156119d5576080700100000000000000b17217f7d1cf79e9498202901c90505b600060808416600f0b13156119ff57608070010000000000000058b90bfbe8e7bce5448202901c90505b600060408416600f0b1315611a295760807001000000000000002c5c85fdf473de6eca8202901c90505b600060208416600f0b1315611a53576080700100000000000000162e42fefa39ef366f8202901c90505b600060108416600f0b1315611a7d5760807001000000000000000b17217f7d1cf79afa8202901c90505b600060088416600f0b1315611aa7576080700100000000000000058b90bfbe8e7bcd6d8202901c90505b600060048416600f0b1315611ad157608070010000000000000002c5c85fdf473de6b28202901c90505b600060028416600f0b1315611afb5760807001000000000000000162e42fefa39ef3588202901c90505b600060018416600f0b1315611b2557608070010000000000000000b17217f7d1cf79ab8202901c90505b604083600f0b901d603f03600f0b81901c90506f7fffffffffffffffffffffffffffffff600f0b811115611b5857600080fd5b809150505b91905056fe4f776e61626c653a206e6577206f776e657220697320746865207a65726f2061646472657373a26469706673582212202b23604622df062ac2c6734659aebba8c71f1970889adf51e4eef42bc387a23f64736f6c6343000604003330783030303030303030303030303030303030303030303030303030303030303031",
  "linkReferences": {},
  "deployedLinkReferences": {}
}