{
  "_format": "hh-sol-artifact-1",
  "contractName": "LsLMSR",
  "sourceName": "contracts/LsLMSR.sol",
  "abi": [
    {
      "inputs": [
        {
          "internalType": "address",
          "name": "_ct",
          "type": "address"
        },
        {
          "internalType": "address",
          "name": "_token",
          "type": "address"
        }
      ],
      "stateMutability": "nonpayable",
      "type": "constructor"
    },
    {
      "anonymous": false,
      "inputs": [
        {
          "indexed": true,
          "internalType": "address",
          "name": "previousOwner",
          "type": "address"
        },
        {
          "indexed": true,
          "internalType": "address",
          "name": "newOwner",
          "type": "address"
        }
      ],
      "name": "OwnershipTransferred",
      "type": "event"
    },
    {
      "inputs": [
        {
          "internalType": "uint256",
          "name": "_outcome",
          "type": "uint256"
        },
        {
          "internalType": "int128",
          "name": "_amount",
          "type": "int128"
        }
      ],
      "name": "buy",
      "outputs": [
        {
          "internalType": "int128",
          "name": "_price",
          "type": "int128"
        }
      ],
      "stateMutability": "nonpayable",
      "type": "function"
    },
    {
      "inputs": [],
      "name": "cost",
      "outputs": [
        {
          "internalType": "int128",
          "name": "",
          "type": "int128"
        }
      ],
      "stateMutability": "view",
      "type": "function"
    },
    {
      "inputs": [
        {
          "internalType": "uint256",
          "name": "_outcome",
          "type": "uint256"
        },
        {
          "internalType": "int128",
          "name": "_amount",
          "type": "int128"
        }
      ],
      "name": "cost_after_buy",
      "outputs": [
        {
          "internalType": "int128",
          "name": "",
          "type": "int128"
        }
      ],
      "stateMutability": "view",
      "type": "function"
    },
    {
      "inputs": [
        {
          "internalType": "uint256",
          "name": "_outcome",
          "type": "uint256"
        }
      ],
      "name": "getPositionAndDustPositions",
      "outputs": [
        {
          "internalType": "uint256[]",
          "name": "",
          "type": "uint256[]"
        }
      ],
      "stateMutability": "view",
      "type": "function"
    },
    {
      "inputs": [
        {
          "internalType": "address",
          "name": "_token",
          "type": "address"
        },
        {
          "internalType": "uint256",
          "name": "_amount",
          "type": "uint256"
        }
      ],
      "name": "getTokenEth",
      "outputs": [
        {
          "internalType": "int128",
          "name": "",
          "type": "int128"
        }
      ],
      "stateMutability": "view",
      "type": "function"
    },
    {
      "inputs": [
        {
          "internalType": "address",
          "name": "_token",
          "type": "address"
        },
        {
          "internalType": "int128",
          "name": "_amount",
          "type": "int128"
        }
      ],
      "name": "getTokenWei",
      "outputs": [
        {
          "internalType": "uint256",
          "name": "",
          "type": "uint256"
        }
      ],
      "stateMutability": "view",
      "type": "function"
    },
    {
      "inputs": [],
      "name": "numOutcomes",
      "outputs": [
        {
          "internalType": "uint256",
          "name": "",
          "type": "uint256"
        }
      ],
      "stateMutability": "view",
      "type": "function"
    },
    {
      "inputs": [
        {
          "internalType": "address",
          "name": "operator",
          "type": "address"
        },
        {
          "internalType": "address",
          "name": "from",
          "type": "address"
        },
        {
          "internalType": "uint256[]",
          "name": "ids",
          "type": "uint256[]"
        },
        {
          "internalType": "uint256[]",
          "name": "values",
          "type": "uint256[]"
        },
        {
          "internalType": "bytes",
          "name": "data",
          "type": "bytes"
        }
      ],
      "name": "onERC1155BatchReceived",
      "outputs": [
        {
          "internalType": "bytes4",
          "name": "",
          "type": "bytes4"
        }
      ],
      "stateMutability": "nonpayable",
      "type": "function"
    },
    {
      "inputs": [
        {
          "internalType": "address",
          "name": "operator",
          "type": "address"
        },
        {
          "internalType": "address",
          "name": "from",
          "type": "address"
        },
        {
          "internalType": "uint256",
          "name": "id",
          "type": "uint256"
        },
        {
          "internalType": "uint256",
          "name": "value",
          "type": "uint256"
        },
        {
          "internalType": "bytes",
          "name": "data",
          "type": "bytes"
        }
      ],
      "name": "onERC1155Received",
      "outputs": [
        {
          "internalType": "bytes4",
          "name": "",
          "type": "bytes4"
        }
      ],
      "stateMutability": "nonpayable",
      "type": "function"
    },
    {
      "inputs": [],
      "name": "owner",
      "outputs": [
        {
          "internalType": "address",
          "name": "",
          "type": "address"
        }
      ],
      "stateMutability": "view",
      "type": "function"
    },
    {
      "inputs": [
        {
          "internalType": "uint256",
          "name": "_outcome",
          "type": "uint256"
        },
        {
          "internalType": "int128",
          "name": "_amount",
          "type": "int128"
        }
      ],
      "name": "price",
      "outputs": [
        {
          "internalType": "int128",
          "name": "",
          "type": "int128"
        }
      ],
      "stateMutability": "view",
      "type": "function"
    },
    {
      "inputs": [],
      "name": "renounceOwnership",
      "outputs": [],
      "stateMutability": "nonpayable",
      "type": "function"
    },
    {
      "inputs": [
        {
          "internalType": "address",
          "name": "_oracle",
          "type": "address"
        },
        {
          "internalType": "uint256",
          "name": "_numOutcomes",
          "type": "uint256"
        },
        {
          "internalType": "uint256",
          "name": "_subsidy",
          "type": "uint256"
        },
        {
          "internalType": "uint256",
          "name": "_overround",
          "type": "uint256"
        }
      ],
      "name": "setup",
      "outputs": [],
      "stateMutability": "nonpayable",
      "type": "function"
    },
    {
      "inputs": [
        {
          "internalType": "bytes4",
          "name": "interfaceId",
          "type": "bytes4"
        }
      ],
      "name": "supportsInterface",
      "outputs": [
        {
          "internalType": "bool",
          "name": "",
          "type": "bool"
        }
      ],
      "stateMutability": "view",
      "type": "function"
    },
    {
      "inputs": [],
      "name": "token",
      "outputs": [
        {
          "internalType": "address",
          "name": "",
          "type": "address"
        }
      ],
      "stateMutability": "view",
      "type": "function"
    },
    {
      "inputs": [
        {
          "internalType": "address",
          "name": "newOwner",
          "type": "address"
        }
      ],
      "name": "transferOwnership",
      "outputs": [],
      "stateMutability": "nonpayable",
      "type": "function"
    }
  ],
  "bytecode": "0x60806040523480156200001157600080fd5b50604051620038a3380380620038a3833981810160405260408110156200003757600080fd5b8101908080519060200190929190805190602001909291905050506000620000646200018c60201b60201c565b9050806000806101000a81548173ffffffffffffffffffffffffffffffffffffffff021916908373ffffffffffffffffffffffffffffffffffffffff1602179055508073ffffffffffffffffffffffffffffffffffffffff16600073ffffffffffffffffffffffffffffffffffffffff167f8be0079c531659141344cd1fd0a4f28419497f9722a3daafe3b4186f6b6457e060405160405180910390a35081600660006101000a81548173ffffffffffffffffffffffffffffffffffffffff021916908373ffffffffffffffffffffffffffffffffffffffff16021790555080600760006101000a81548173ffffffffffffffffffffffffffffffffffffffff021916908373ffffffffffffffffffffffffffffffffffffffff160217905550505062000194565b600033905090565b6136ff80620001a46000396000f3fe608060405234801561001057600080fd5b50600436106101005760003560e01c80638da5cb5b11610097578063f2fde38b11610066578063f2fde38b146106ce578063f3b145d214610712578063f76da1d914610774578063fc0c546a146107c957610100565b80638da5cb5b1461035b578063bc197c81146103a5578063df7bd8fc1461055a578063f23a6e61146105af57610100565b8063715018a6116100d3578063715018a61461025b5780638062dd93146102655780638767d64e146102ba5780638d0a6cff146102d857610100565b806301ffc9a71461010557806310f8625a1461016a57806313faede6146101d257806340088ee1146101f6575b600080fd5b6101506004803603602081101561011b57600080fd5b8101908080357bffffffffffffffffffffffffffffffffffffffffffffffffffffffff19169060200190929190505050610813565b604051808215151515815260200191505060405180910390f35b6101b66004803603604081101561018057600080fd5b81019080803573ffffffffffffffffffffffffffffffffffffffff1690602001909291908035906020019092919050505061081a565b6040518082600f0b600f0b815260200191505060405180910390f35b6101da6108b9565b6040518082600f0b600f0b815260200191505060405180910390f35b6102456004803603604081101561020c57600080fd5b81019080803573ffffffffffffffffffffffffffffffffffffffff1690602001909291908035600f0b906020019092919050505061097d565b6040518082815260200191505060405180910390f35b610263610a1c565b005b61029e6004803603604081101561027b57600080fd5b81019080803590602001909291908035600f0b9060200190929190505050610ba4565b6040518082600f0b600f0b815260200191505060405180910390f35b6102c2610d64565b6040518082815260200191505060405180910390f35b610304600480360360208110156102ee57600080fd5b8101908080359060200190929190505050610d6a565b6040518080602001828103825283818151815260200191508051906020019060200280838360005b8381101561034757808201518184015260208101905061032c565b505050509050019250505060405180910390f35b610363610e3d565b604051808273ffffffffffffffffffffffffffffffffffffffff1673ffffffffffffffffffffffffffffffffffffffff16815260200191505060405180910390f35b610506600480360360a08110156103bb57600080fd5b81019080803573ffffffffffffffffffffffffffffffffffffffff169060200190929190803573ffffffffffffffffffffffffffffffffffffffff1690602001909291908035906020019064010000000081111561041857600080fd5b82018360208201111561042a57600080fd5b8035906020019184602083028401116401000000008311171561044c57600080fd5b90919293919293908035906020019064010000000081111561046d57600080fd5b82018360208201111561047f57600080fd5b803590602001918460208302840111640100000000831117156104a157600080fd5b9091929391929390803590602001906401000000008111156104c257600080fd5b8201836020820111156104d457600080fd5b803590602001918460018302840111640100000000831117156104f657600080fd5b9091929391929390505050610e66565b60405180827bffffffffffffffffffffffffffffffffffffffffffffffffffffffff19167bffffffffffffffffffffffffffffffffffffffffffffffffffffffff1916815260200191505060405180910390f35b6105936004803603604081101561057057600080fd5b81019080803590602001909291908035600f0b9060200190929190505050610e7e565b6040518082600f0b600f0b815260200191505060405180910390f35b61067a600480360360a08110156105c557600080fd5b81019080803573ffffffffffffffffffffffffffffffffffffffff169060200190929190803573ffffffffffffffffffffffffffffffffffffffff16906020019092919080359060200190929190803590602001909291908035906020019064010000000081111561063657600080fd5b82018360208201111561064857600080fd5b8035906020019184600183028401116401000000008311171561066a57600080fd5b9091929391929390505050610ea3565b60405180827bffffffffffffffffffffffffffffffffffffffffffffffffffffffff19167bffffffffffffffffffffffffffffffffffffffffffffffffffffffff1916815260200191505060405180910390f35b610710600480360360208110156106e457600080fd5b81019080803573ffffffffffffffffffffffffffffffffffffffff169060200190929190505050610eb9565b005b6107726004803603608081101561072857600080fd5b81019080803573ffffffffffffffffffffffffffffffffffffffff1690602001909291908035906020019092919080359060200190929190803590602001909291905050506110c6565b005b6107ad6004803603604081101561078a57600080fd5b81019080803590602001909291908035600f0b9060200190929190505050611700565b6040518082600f0b600f0b815260200191505060405180910390f35b6107d1611e03565b604051808273ffffffffffffffffffffffffffffffffffffffff1673ffffffffffffffffffffffffffffffffffffffff16815260200191505060405180910390f35b6000919050565b6000808373ffffffffffffffffffffffffffffffffffffffff1663313ce5676040518163ffffffff1660e01b815260040160206040518083038186803b15801561086357600080fd5b505afa158015610877573d6000803e3d6000fd5b505050506040513d602081101561088d57600080fd5b810190808051906020019092919050505060ff1690506108b08382600a0a611e29565b91505092915050565b600060011515600760149054906101000a900460ff161515146108db57600080fd5b600080600090505b600154811015610955576109468261094161093c6002858154811061090457fe5b90600052602060002090600291828204019190066010029054906101000a9004600f0b600360009054906101000a9004600f0b611e91565b611f14565b611f8d565b915080806001019150506108e3565b50610977600360009054906101000a9004600f0b61097283611ff4565b61202e565b91505090565b6000808373ffffffffffffffffffffffffffffffffffffffff1663313ce5676040518163ffffffff1660e01b815260040160206040518083038186803b1580156109c657600080fd5b505afa1580156109da573d6000803e3d6000fd5b505050506040513d60208110156109f057600080fd5b810190808051906020019092919050505060ff169050610a138382600a0a612099565b91505092915050565b610a24612154565b73ffffffffffffffffffffffffffffffffffffffff166000809054906101000a900473ffffffffffffffffffffffffffffffffffffffff1673ffffffffffffffffffffffffffffffffffffffff1614610ae5576040517f08c379a00000000000000000000000000000000000000000000000000000000081526004018080602001828103825260208152602001807f4f776e61626c653a2063616c6c6572206973206e6f7420746865206f776e657281525060200191505060405180910390fd5b600073ffffffffffffffffffffffffffffffffffffffff166000809054906101000a900473ffffffffffffffffffffffffffffffffffffffff1673ffffffffffffffffffffffffffffffffffffffff167f8be0079c531659141344cd1fd0a4f28419497f9722a3daafe3b4186f6b6457e060405160405180910390a360008060006101000a81548173ffffffffffffffffffffffffffffffffffffffff021916908373ffffffffffffffffffffffffffffffffffffffff160217905550565b6000806060600280549050604051908082528060200260200182016040528015610bdd5781602001602082028038833980820191505090505b5090506000600460109054906101000a9004600f0b905060008090505b600154811015610cda576000816001901b881614610c7c57610c4b60028281548110610c2257fe5b90600052602060002090600291828204019190066010029054906101000a9004600f0b87611f8d565b838281518110610c5757fe5b6020026020010190600f0b9081600f0b81525050610c758287611f8d565b9150610ccd565b60028181548110610c8957fe5b90600052602060002090600291828204019190066010029054906101000a9004600f0b838281518110610cb857fe5b6020026020010190600f0b9081600f0b815250505b8080600101915050610bfa565b506000610cf682600360109054906101000a9004600f0b61202e565b905060008090505b600154811015610d4557610d3685610d31610d2c878581518110610d1e57fe5b602002602001015186611e91565b611f14565b611f8d565b94508080600101915050610cfe565b50610d5881610d5386611ff4565b61202e565b94505050505092915050565b60015481565b60606000600180546001901b0390506000818418905060606001610d8d8361215c565b01604051908082528060200260200182016040528015610dbc5781602001602082028038833980820191505090505b5090506000600190508582600081518110610dd357fe5b60200260200101818152505060008090505b600154811015610e30576000816001901b851614610e2357806001901b838381518110610e0e57fe5b60200260200101818152505081806001019250505b8080600101915050610de5565b5081945050505050919050565b60008060009054906101000a900473ffffffffffffffffffffffffffffffffffffffff16905090565b600063bc197c8160e01b905098975050505050505050565b6000600460009054906101000a9004600f0b610e9a8484610ba4565b03905092915050565b600063f23a6e6160e01b90509695505050505050565b610ec1612154565b73ffffffffffffffffffffffffffffffffffffffff166000809054906101000a900473ffffffffffffffffffffffffffffffffffffffff1673ffffffffffffffffffffffffffffffffffffffff1614610f82576040517f08c379a00000000000000000000000000000000000000000000000000000000081526004018080602001828103825260208152602001807f4f776e61626c653a2063616c6c6572206973206e6f7420746865206f776e657281525060200191505060405180910390fd5b600073ffffffffffffffffffffffffffffffffffffffff168173ffffffffffffffffffffffffffffffffffffffff161415611008576040517f08c379a00000000000000000000000000000000000000000000000000000000081526004018080602001828103825260268152602001806136546026913960400191505060405180910390fd5b8073ffffffffffffffffffffffffffffffffffffffff166000809054906101000a900473ffffffffffffffffffffffffffffffffffffffff1673ffffffffffffffffffffffffffffffffffffffff167f8be0079c531659141344cd1fd0a4f28419497f9722a3daafe3b4186f6b6457e060405160405180910390a3806000806101000a81548173ffffffffffffffffffffffffffffffffffffffff021916908373ffffffffffffffffffffffffffffffffffffffff16021790555050565b6110ce612154565b73ffffffffffffffffffffffffffffffffffffffff166000809054906101000a900473ffffffffffffffffffffffffffffffffffffffff1673ffffffffffffffffffffffffffffffffffffffff161461118f576040517f08c379a00000000000000000000000000000000000000000000000000000000081526004018080602001828103825260208152602001807f4f776e61626c653a2063616c6c6572206973206e6f7420746865206f776e657281525060200191505060405180910390fd5b60001515600760149054906101000a900460ff16151514611218576040517f08c379a000000000000000000000000000000000000000000000000000000000815260040180806020018281038252600c8152602001807f416c726561647920696e6974000000000000000000000000000000000000000081525060200191505060405180910390fd5b6000811161128e576040517f08c379a00000000000000000000000000000000000000000000000000000000081526004018080602001828103825260178152602001807f43616e6e6f7420686176652030206f766572726f756e6400000000000000000081525060200191505060405180910390fd5b600660009054906101000a900473ffffffffffffffffffffffffffffffffffffffff1673ffffffffffffffffffffffffffffffffffffffff1663d96ee754853073ffffffffffffffffffffffffffffffffffffffff1660001b866040518463ffffffff1660e01b8152600401808473ffffffffffffffffffffffffffffffffffffffff1673ffffffffffffffffffffffffffffffffffffffff1681526020018381526020018281526020019350505050600060405180830381600087803b15801561135857600080fd5b505af115801561136c573d6000803e3d6000fd5b50505050600660009054906101000a900473ffffffffffffffffffffffffffffffffffffffff1673ffffffffffffffffffffffffffffffffffffffff1663852c6ae2853073ffffffffffffffffffffffffffffffffffffffff1660001b866040518463ffffffff1660e01b8152600401808473ffffffffffffffffffffffffffffffffffffffff1673ffffffffffffffffffffffffffffffffffffffff168152602001838152602001828152602001935050505060206040518083038186803b15801561143857600080fd5b505afa15801561144c573d6000803e3d6000fd5b505050506040513d602081101561146257600080fd5b81019080805190602001909291905050506005819055506114c8333084600760009054906101000a900473ffffffffffffffffffffffffffffffffffffffff1673ffffffffffffffffffffffffffffffffffffffff16612181909392919063ffffffff16565b8260018190555060006114da8461226e565b9050600061150a600760009054906101000a900473ffffffffffffffffffffffffffffffffffffffff168561081a565b9050600061151a846103e8611e29565b9050611537816115328561152d87611ff4565b61202e565b611e91565b600360106101000a8154816fffffffffffffffffffffffffffffffff0219169083600f0b6fffffffffffffffffffffffffffffffff16021790555061159461157f838561202e565b600360109054906101000a9004600f0b61202e565b600360006101000a8154816fffffffffffffffffffffffffffffffff0219169083600f0b6fffffffffffffffffffffffffffffffff16021790555060008090505b868110156116535760028390806001815401808255809150506001900390600052602060002090600291828204019190066010029091909190916101000a8154816fffffffffffffffffffffffffffffffff0219169083600f0b6fffffffffffffffffffffffffffffffff16021790555080806001019150506115d5565b506001600760146101000a81548160ff021916908315150217905550611679828461202e565b600460106101000a8154816fffffffffffffffffffffffffffffffff0219169083600f0b6fffffffffffffffffffffffffffffffff1602179055506116bc6108b9565b600460006101000a8154816fffffffffffffffffffffffffffffffff0219169083600f0b6fffffffffffffffffffffffffffffffff16021790555050505050505050565b600060011515600760149054906101000a900460ff1615151461172257600080fd5b600080841161173057600080fd5b6000600660009054906101000a900473ffffffffffffffffffffffffffffffffffffffff1673ffffffffffffffffffffffffffffffffffffffff1663dd34de676005546040518263ffffffff1660e01b81526004018082815260200191505060206040518083038186803b1580156117a757600080fd5b505afa1580156117bb573d6000803e3d6000fd5b505050506040513d60208110156117d157600080fd5b810190808051906020019092919050505014611855576040517f08c379a00000000000000000000000000000000000000000000000000000000081526004018080602001828103825260178152602001807f4d61726b657420616c7265616479207265736f6c76656400000000000000000081525060200191505060405180910390fd5b60008090505b600154811015611969576000816001901b86161461195c576118ac6002828154811061188357fe5b90600052602060002090600291828204019190066010029054906101000a9004600f0b85611f8d565b600282815481106118b957fe5b90600052602060002090600291828204019190066010026101000a8154816fffffffffffffffffffffffffffffffff0219169083600f0b6fffffffffffffffffffffffffffffffff160217905550611920600460109054906101000a9004600f0b85611f8d565b600460106101000a8154816fffffffffffffffffffffffffffffffff0219169083600f0b6fffffffffffffffffffffffffffffffff1602179055505b808060010191505061185b565b50611992600460109054906101000a9004600f0b600360109054906101000a9004600f0b61202e565b600360006101000a8154816fffffffffffffffffffffffffffffffff0219169083600f0b6fffffffffffffffffffffffffffffffff16021790555060008090505b600154811015611a4557611a3682611a31611a2c600285815481106119f457fe5b90600052602060002090600291828204019190066010029054906101000a9004600f0b600360009054906101000a9004600f0b611e91565b611f14565b611f8d565b915080806001019150506119d3565b506000611a69600360009054906101000a9004600f0b611a6484611ff4565b61202e565b9050611a8481600460009054906101000a9004600f0b612291565b925080600460006101000a8154816fffffffffffffffffffffffffffffffff0219169083600f0b6fffffffffffffffffffffffffffffffff1602179055506000611af0600760009054906101000a900473ffffffffffffffffffffffffffffffffffffffff168561097d565b90506000611afd866122f8565b67ffffffffffffffff169050600760009054906101000a900473ffffffffffffffffffffffffffffffffffffffff1673ffffffffffffffffffffffffffffffffffffffff166323b872dd3330856040518463ffffffff1660e01b8152600401808473ffffffffffffffffffffffffffffffffffffffff1673ffffffffffffffffffffffffffffffffffffffff1681526020018373ffffffffffffffffffffffffffffffffffffffff1673ffffffffffffffffffffffffffffffffffffffff1681526020018281526020019350505050602060405180830381600087803b158015611be657600080fd5b505af1158015611bfa573d6000803e3d6000fd5b505050506040513d6020811015611c1057600080fd5b8101908080519060200190929190505050611c93576040517f08c379a00000000000000000000000000000000000000000000000000000000081526004018080602001828103825260198152602001807f4572726f72207472616e7366657272696e6720746f6b656e730000000000000081525060200191505060405180910390fd5b600760009054906101000a900473ffffffffffffffffffffffffffffffffffffffff1673ffffffffffffffffffffffffffffffffffffffff1663095ea7b3600660009054906101000a900473ffffffffffffffffffffffffffffffffffffffff16611d20600760009054906101000a900473ffffffffffffffffffffffffffffffffffffffff168a61097d565b6040518363ffffffff1660e01b8152600401808373ffffffffffffffffffffffffffffffffffffffff1673ffffffffffffffffffffffffffffffffffffffff16815260200182815260200192505050602060405180830381600087803b158015611d8957600080fd5b505af1158015611d9d573d6000803e3d6000fd5b505050506040513d6020811015611db357600080fd5b810190808051906020019092919050505050611df9611df4600760009054906101000a900473ffffffffffffffffffffffffffffffffffffffff168861097d565b612319565b5050505092915050565b600760009054906101000a900473ffffffffffffffffffffffffffffffffffffffff1681565b600080821415611e3857600080fd5b6000611e4484846123b2565b90506f7fffffffffffffffffffffffffffffff6fffffffffffffffffffffffffffffffff16816fffffffffffffffffffffffffffffffff161115611e8757600080fd5b8091505092915050565b60008082600f0b1415611ea357600080fd5b600082600f0b604085600f0b901b81611eb857fe5b0590507fffffffffffffffffffffffffffffffff80000000000000000000000000000000600f0b8112158015611f0157506f7fffffffffffffffffffffffffffffff600f0b8113155b611f0a57600080fd5b8091505092915050565b60006840000000000000000082600f0b12611f2e57600080fd5b7fffffffffffffffffffffffffffffffffffffffffffffffc0000000000000000082600f0b1215611f625760009050611f88565b611f856080700171547652b82fe1777d0ffda0d23a7d1284600f0b02901d612573565b90505b919050565b60008082600f0b84600f0b0190507fffffffffffffffffffffffffffffffff80000000000000000000000000000000600f0b8112158015611fe157506f7fffffffffffffffffffffffffffffff600f0b8113155b611fea57600080fd5b8091505092915050565b60008082600f0b1361200557600080fd5b60806fb17217f7d1cf79abc9e3b39803f2f6af61202184613173565b600f0b02901c9050919050565b600080604083600f0b85600f0b02901d90507fffffffffffffffffffffffffffffffff80000000000000000000000000000000600f0b811215801561208657506f7fffffffffffffffffffffffffffffff600f0b8113155b61208f57600080fd5b8091505092915050565b6000808214156120ac576000905061214e565b600083600f0b12156120bd57600080fd5b600060406fffffffffffffffffffffffffffffffff841685600f0b02901c90506000608084901c85600f0b02905077ffffffffffffffffffffffffffffffffffffffffffffffff81111561211057600080fd5b604081901b9050817fffffffffffffffffffffffffffffffffffffffffffffffffffffffffffffffff0381111561214657600080fd5b818101925050505b92915050565b600033905090565b60005b6000821461217c576001820382169150808060010191505061215f565b919050565b612268846323b872dd60e01b858585604051602401808473ffffffffffffffffffffffffffffffffffffffff1673ffffffffffffffffffffffffffffffffffffffff1681526020018373ffffffffffffffffffffffffffffffffffffffff1673ffffffffffffffffffffffffffffffffffffffff1681526020018281526020019350505050604051602081830303815290604052907bffffffffffffffffffffffffffffffffffffffffffffffffffffffff19166020820180517bffffffffffffffffffffffffffffffffffffffffffffffffffffffff838183161783525050505061329b565b50505050565b6000677fffffffffffffff82111561228557600080fd5b604082901b9050919050565b60008082600f0b84600f0b0390507fffffffffffffffffffffffffffffffff80000000000000000000000000000000600f0b81121580156122e557506f7fffffffffffffffffffffffffffffff600f0b8113155b6122ee57600080fd5b8091505092915050565b60008082600f0b121561230a57600080fd5b604082600f0b901d9050919050565b6123af81604051602401808281526020019150506040516020818303038152906040527ff5b1bba9000000000000000000000000000000000000000000000000000000007bffffffffffffffffffffffffffffffffffffffffffffffffffffffff19166020820180517bffffffffffffffffffffffffffffffffffffffffffffffffffffffff838183161783525050505061338a565b50565b6000808214156123c157600080fd5b600077ffffffffffffffffffffffffffffffffffffffffffffffff84116123f75782604085901b816123ef57fe5b04905061254c565b600060c09050600060c086901c9050640100000000811061242057602081901c90506020820191505b62010000811061243857601081901c90506010820191505b610100811061244f57600881901c90506008820191505b6010811061246557600481901c90506004820191505b6004811061247b57600281901c90506002820191505b6002811061248a576001820191505b600160bf830360018703901c018260ff0387901b816124a557fe5b0492506fffffffffffffffffffffffffffffffff8311156124c557600080fd5b6000608086901c8402905060006fffffffffffffffffffffffffffffffff871685029050600060c089901c9050600060408a901b90508281101561250a576001820391505b8281039050608084901b925082811015612525576001820391505b8281039050608084901c821461253757fe5b88818161254057fe5b04870196505050505050505b6fffffffffffffffffffffffffffffffff81111561256957600080fd5b8091505092915050565b60006840000000000000000082600f0b1261258d57600080fd5b7fffffffffffffffffffffffffffffffffffffffffffffffc0000000000000000082600f0b12156125c1576000905061316e565b60006f80000000000000000000000000000000905060006780000000000000008416600f0b131561260757608070016a09e667f3bcc908b2fb1366ea957d3e8202901c90505b60006740000000000000008416600f0b13156126385760807001306fe0a31b7152de8d5a46305c85edec8202901c90505b60006720000000000000008416600f0b13156126695760807001172b83c7d517adcdf7c8c50eb14a791f8202901c90505b60006710000000000000008416600f0b131561269a57608070010b5586cf9890f6298b92b71842a983638202901c90505b60006708000000000000008416600f0b13156126cb5760807001059b0d31585743ae7c548eb68ca417fd8202901c90505b60006704000000000000008416600f0b13156126fc576080700102c9a3e778060ee6f7caca4f7a29bde88202901c90505b60006702000000000000008416600f0b131561272d57608070010163da9fb33356d84a66ae336dcdfa3f8202901c90505b60006701000000000000008416600f0b131561275e576080700100b1afa5abcbed6129ab13ec11dc95438202901c90505b600066800000000000008416600f0b131561278e57608070010058c86da1c09ea1ff19d294cf2f679b8202901c90505b600066400000000000008416600f0b13156127be5760807001002c605e2e8cec506d21bfc89a23a00f8202901c90505b600066200000000000008416600f0b13156127ee576080700100162f3904051fa128bca9c55c31e5df8202901c90505b600066100000000000008416600f0b131561281e5760807001000b175effdc76ba38e31671ca9397258202901c90505b600066080000000000008416600f0b131561284e576080700100058ba01fb9f96d6cacd4b180917c3d8202901c90505b600066040000000000008416600f0b131561287e57608070010002c5cc37da9491d0985c348c68e7b38202901c90505b600066020000000000008416600f0b13156128ae5760807001000162e525ee054754457d59952920268202901c90505b600066010000000000008416600f0b13156128de57608070010000b17255775c040618bf4a4ade83fc8202901c90505b6000658000000000008416600f0b131561290d5760807001000058b91b5bc9ae2eed81e9b7d4cfab8202901c90505b6000654000000000008416600f0b131561293c576080700100002c5c89d5ec6ca4d7c8acc017b7c98202901c90505b6000652000000000008416600f0b131561296b57608070010000162e43f4f831060e02d839a9d16d8202901c90505b6000651000000000008416600f0b131561299a576080700100000b1721bcfc99d9f890ea069117638202901c90505b6000650800000000008416600f0b13156129c957608070010000058b90cf1e6d97f9ca14dbcc16288202901c90505b6000650400000000008416600f0b13156129f85760807001000002c5c863b73f016468f6bac5ca2b8202901c90505b6000650200000000008416600f0b1315612a27576080700100000162e430e5a18f6119e3c02282a58202901c90505b6000650100000000008416600f0b1315612a565760807001000000b1721835514b86e6d96efd1bfe8202901c90505b60006480000000008416600f0b1315612a84576080700100000058b90c0b48c6be5df846c5b2ef8202901c90505b60006440000000008416600f0b1315612ab257608070010000002c5c8601cc6b9e94213c72737a8202901c90505b60006420000000008416600f0b1315612ae05760807001000000162e42fff037df38aa2b219f068202901c90505b60006410000000008416600f0b1315612b0e57608070010000000b17217fba9c739aa5819f44f98202901c90505b60006408000000008416600f0b1315612b3c5760807001000000058b90bfcdee5acd3c1cedc8238202901c90505b60006404000000008416600f0b1315612b6a576080700100000002c5c85fe31f35a6a30da1be508202901c90505b60006402000000008416600f0b1315612b9857608070010000000162e42ff0999ce3541b9fffcf8202901c90505b60006401000000008416600f0b1315612bc6576080700100000000b17217f80f4ef5aadda455548202901c90505b600063800000008416600f0b1315612bf357608070010000000058b90bfbf8479bd5a81b51ad8202901c90505b600063400000008416600f0b1315612c205760807001000000002c5c85fdf84bd62ae30a74cc8202901c90505b600063200000008416600f0b1315612c4d576080700100000000162e42fefb2fed257559bdaa8202901c90505b600063100000008416600f0b1315612c7a5760807001000000000b17217f7d5a7716bba4a9ae8202901c90505b600063080000008416600f0b1315612ca7576080700100000000058b90bfbe9ddbac5e109cce8202901c90505b600063040000008416600f0b1315612cd457608070010000000002c5c85fdf4b15de6f17eb0d8202901c90505b600063020000008416600f0b1315612d015760807001000000000162e42fefa494f1478fde058202901c90505b600063010000008416600f0b1315612d2e57608070010000000000b17217f7d20cf927c8e94c8202901c90505b6000628000008416600f0b1315612d5a5760807001000000000058b90bfbe8f71cb4e4b33d8202901c90505b6000624000008416600f0b1315612d86576080700100000000002c5c85fdf477b662b269458202901c90505b6000622000008416600f0b1315612db257608070010000000000162e42fefa3ae53369388c8202901c90505b6000621000008416600f0b1315612dde576080700100000000000b17217f7d1d351a389d408202901c90505b6000620800008416600f0b1315612e0a57608070010000000000058b90bfbe8e8b2d3d4ede8202901c90505b6000620400008416600f0b1315612e365760807001000000000002c5c85fdf4741bea6e77e8202901c90505b6000620200008416600f0b1315612e62576080700100000000000162e42fefa39fe95583c28202901c90505b6000620100008416600f0b1315612e8e5760807001000000000000b17217f7d1cfb72b45e18202901c90505b60006180008416600f0b1315612eb9576080700100000000000058b90bfbe8e7cc35c3f08202901c90505b60006140008416600f0b1315612ee457608070010000000000002c5c85fdf473e242ea388202901c90505b60006120008416600f0b1315612f0f5760807001000000000000162e42fefa39f02b772c8202901c90505b60006110008416600f0b1315612f3a57608070010000000000000b17217f7d1cf7d83c1a8202901c90505b60006108008416600f0b1315612f655760807001000000000000058b90bfbe8e7bdcbe2e8202901c90505b60006104008416600f0b1315612f90576080700100000000000002c5c85fdf473dea871f8202901c90505b60006102008416600f0b1315612fbb57608070010000000000000162e42fefa39ef44d918202901c90505b60006101008416600f0b1315612fe6576080700100000000000000b17217f7d1cf79e9498202901c90505b600060808416600f0b131561301057608070010000000000000058b90bfbe8e7bce5448202901c90505b600060408416600f0b131561303a5760807001000000000000002c5c85fdf473de6eca8202901c90505b600060208416600f0b1315613064576080700100000000000000162e42fefa39ef366f8202901c90505b600060108416600f0b131561308e5760807001000000000000000b17217f7d1cf79afa8202901c90505b600060088416600f0b13156130b8576080700100000000000000058b90bfbe8e7bcd6d8202901c90505b600060048416600f0b13156130e257608070010000000000000002c5c85fdf473de6b28202901c90505b600060028416600f0b131561310c5760807001000000000000000162e42fefa39ef3588202901c90505b600060018416600f0b131561313657608070010000000000000000b17217f7d1cf79ab8202901c90505b604083600f0b901d603f03600f0b81901c90506f7fffffffffffffffffffffffffffffff600f0b81111561316957600080fd5b809150505b919050565b60008082600f0b1361318457600080fd5b6000809050600083600f0b90506801000000000000000081126131af57604081901d90506040820191505b64010000000081126131c957602081901d90506020820191505b6201000081126131e157601081901d90506010820191505b61010081126131f857600881901d90506008820191505b6010811261320e57600481901d90506004820191505b6004811261322457600281901d90506002820191505b60028112613233576001820191505b60006040808403901b9050600083607f0386600f0b901b9050600067800000000000000090505b600081131561328e578182029150600060ff83901c905080607f0183901c92508082028401935050600181901d905061325a565b5081945050505050919050565b60606132fd826040518060400160405280602081526020017f5361666545524332303a206c6f772d6c6576656c2063616c6c206661696c65648152508573ffffffffffffffffffffffffffffffffffffffff166133b39092919063ffffffff16565b90506000815111156133855780806020019051602081101561331e57600080fd5b8101908080519060200190929190505050613384576040517f08c379a000000000000000000000000000000000000000000000000000000000815260040180806020018281038252602a8152602001806136a0602a913960400191505060405180910390fd5b5b505050565b60008151905060006a636f6e736f6c652e6c6f679050602083016000808483855afa5050505050565b60606133c284846000856133cb565b90509392505050565b606082471015613426576040517f08c379a000000000000000000000000000000000000000000000000000000000815260040180806020018281038252602681526020018061367a6026913960400191505060405180910390fd5b61342f85613574565b6134a1576040517f08c379a000000000000000000000000000000000000000000000000000000000815260040180806020018281038252601d8152602001807f416464726573733a2063616c6c20746f206e6f6e2d636f6e747261637400000081525060200191505060405180910390fd5b600060608673ffffffffffffffffffffffffffffffffffffffff1685876040518082805190602001908083835b602083106134f157805182526020820191506020810190506020830392506134ce565b6001836020036101000a03801982511681845116808217855250505050505090500191505060006040518083038185875af1925050503d8060008114613553576040519150601f19603f3d011682016040523d82523d6000602084013e613558565b606091505b5091509150613568828286613587565b92505050949350505050565b600080823b905060008111915050919050565b606083156135975782905061364c565b6000835111156135aa5782518084602001fd5b816040517f08c379a00000000000000000000000000000000000000000000000000000000081526004018080602001828103825283818151815260200191508051906020019080838360005b838110156136115780820151818401526020810190506135f6565b50505050905090810190601f16801561363e5780820380516001836020036101000a031916815260200191505b509250505060405180910390fd5b939250505056fe4f776e61626c653a206e6577206f776e657220697320746865207a65726f2061646472657373416464726573733a20696e73756666696369656e742062616c616e636520666f722063616c6c5361666545524332303a204552433230206f7065726174696f6e20646964206e6f742073756363656564a264697066735822122040dec41998aee85167c331493cd7937254ec568a2b6f71ba16519a2c01cb954e64736f6c63430006020033",
  "linkReferences": {},
  "deployedLinkReferences": {}
}