{
  "_format": "hh-sol-artifact-1",
  "contractName": "ConditionalTokens",
  "sourceName": "contracts/ConditionalTokens.sol",
  "abi": [
    {
      "inputs": [],
      "stateMutability": "nonpayable",
      "type": "constructor"
    },
    {
      "anonymous": false,
      "inputs": [
        {
          "indexed": true,
          "internalType": "address",
          "name": "account",
          "type": "address"
        },
        {
          "indexed": true,
          "internalType": "address",
          "name": "operator",
          "type": "address"
        },
        {
          "indexed": false,
          "internalType": "bool",
          "name": "approved",
          "type": "bool"
        }
      ],
      "name": "ApprovalForAll",
      "type": "event"
    },
    {
      "anonymous": false,
      "inputs": [
        {
          "indexed": true,
          "internalType": "bytes32",
          "name": "conditionId",
          "type": "bytes32"
        },
        {
          "indexed": true,
          "internalType": "address",
          "name": "oracle",
          "type": "address"
        },
        {
          "indexed": true,
          "internalType": "bytes32",
          "name": "questionId",
          "type": "bytes32"
        },
        {
          "indexed": false,
          "internalType": "uint256",
          "name": "outcomeSlotCount",
          "type": "uint256"
        }
      ],
      "name": "ConditionPreparation",
      "type": "event"
    },
    {
      "anonymous": false,
      "inputs": [
        {
          "indexed": true,
          "internalType": "bytes32",
          "name": "conditionId",
          "type": "bytes32"
        },
        {
          "indexed": true,
          "internalType": "address",
          "name": "oracle",
          "type": "address"
        },
        {
          "indexed": true,
          "internalType": "bytes32",
          "name": "questionId",
          "type": "bytes32"
        },
        {
          "indexed": false,
          "internalType": "uint256",
          "name": "outcomeSlotCount",
          "type": "uint256"
        },
        {
          "indexed": false,
          "internalType": "uint256[]",
          "name": "payoutNumerators",
          "type": "uint256[]"
        }
      ],
      "name": "ConditionResolution",
      "type": "event"
    },
    {
      "anonymous": false,
      "inputs": [
        {
          "indexed": true,
          "internalType": "address",
          "name": "redeemer",
          "type": "address"
        },
        {
          "indexed": true,
          "internalType": "contract IERC20",
          "name": "collateralToken",
          "type": "address"
        },
        {
          "indexed": true,
          "internalType": "bytes32",
          "name": "parentCollectionId",
          "type": "bytes32"
        },
        {
          "indexed": false,
          "internalType": "bytes32",
          "name": "conditionId",
          "type": "bytes32"
        },
        {
          "indexed": false,
          "internalType": "uint256[]",
          "name": "indexSets",
          "type": "uint256[]"
        },
        {
          "indexed": false,
          "internalType": "uint256",
          "name": "payout",
          "type": "uint256"
        }
      ],
      "name": "PayoutRedemption",
      "type": "event"
    },
    {
      "anonymous": false,
      "inputs": [
        {
          "indexed": true,
          "internalType": "address",
          "name": "stakeholder",
          "type": "address"
        },
        {
          "indexed": false,
          "internalType": "contract IERC20",
          "name": "collateralToken",
          "type": "address"
        },
        {
          "indexed": true,
          "internalType": "bytes32",
          "name": "parentCollectionId",
          "type": "bytes32"
        },
        {
          "indexed": true,
          "internalType": "bytes32",
          "name": "conditionId",
          "type": "bytes32"
        },
        {
          "indexed": false,
          "internalType": "uint256[]",
          "name": "partition",
          "type": "uint256[]"
        },
        {
          "indexed": false,
          "internalType": "uint256",
          "name": "amount",
          "type": "uint256"
        }
      ],
      "name": "PositionSplit",
      "type": "event"
    },
    {
      "anonymous": false,
      "inputs": [
        {
          "indexed": true,
          "internalType": "address",
          "name": "stakeholder",
          "type": "address"
        },
        {
          "indexed": false,
          "internalType": "contract IERC20",
          "name": "collateralToken",
          "type": "address"
        },
        {
          "indexed": true,
          "internalType": "bytes32",
          "name": "parentCollectionId",
          "type": "bytes32"
        },
        {
          "indexed": true,
          "internalType": "bytes32",
          "name": "conditionId",
          "type": "bytes32"
        },
        {
          "indexed": false,
          "internalType": "uint256[]",
          "name": "partition",
          "type": "uint256[]"
        },
        {
          "indexed": false,
          "internalType": "uint256",
          "name": "amount",
          "type": "uint256"
        }
      ],
      "name": "PositionsMerge",
      "type": "event"
    },
    {
      "anonymous": false,
      "inputs": [
        {
          "indexed": true,
          "internalType": "address",
          "name": "operator",
          "type": "address"
        },
        {
          "indexed": true,
          "internalType": "address",
          "name": "from",
          "type": "address"
        },
        {
          "indexed": true,
          "internalType": "address",
          "name": "to",
          "type": "address"
        },
        {
          "indexed": false,
          "internalType": "uint256[]",
          "name": "ids",
          "type": "uint256[]"
        },
        {
          "indexed": false,
          "internalType": "uint256[]",
          "name": "values",
          "type": "uint256[]"
        }
      ],
      "name": "TransferBatch",
      "type": "event"
    },
    {
      "anonymous": false,
      "inputs": [
        {
          "indexed": true,
          "internalType": "address",
          "name": "operator",
          "type": "address"
        },
        {
          "indexed": true,
          "internalType": "address",
          "name": "from",
          "type": "address"
        },
        {
          "indexed": true,
          "internalType": "address",
          "name": "to",
          "type": "address"
        },
        {
          "indexed": false,
          "internalType": "uint256",
          "name": "id",
          "type": "uint256"
        },
        {
          "indexed": false,
          "internalType": "uint256",
          "name": "value",
          "type": "uint256"
        }
      ],
      "name": "TransferSingle",
      "type": "event"
    },
    {
      "anonymous": false,
      "inputs": [
        {
          "indexed": false,
          "internalType": "string",
          "name": "value",
          "type": "string"
        },
        {
          "indexed": true,
          "internalType": "uint256",
          "name": "id",
          "type": "uint256"
        }
      ],
      "name": "URI",
      "type": "event"
    },
    {
      "inputs": [
        {
          "internalType": "address",
          "name": "account",
          "type": "address"
        },
        {
          "internalType": "uint256",
          "name": "id",
          "type": "uint256"
        }
      ],
      "name": "balanceOf",
      "outputs": [
        {
          "internalType": "uint256",
          "name": "",
          "type": "uint256"
        }
      ],
      "stateMutability": "view",
      "type": "function"
    },
    {
      "inputs": [
        {
          "internalType": "address[]",
          "name": "accounts",
          "type": "address[]"
        },
        {
          "internalType": "uint256[]",
          "name": "ids",
          "type": "uint256[]"
        }
      ],
      "name": "balanceOfBatch",
      "outputs": [
        {
          "internalType": "uint256[]",
          "name": "",
          "type": "uint256[]"
        }
      ],
      "stateMutability": "view",
      "type": "function"
    },
    {
      "inputs": [
        {
          "internalType": "bytes32",
          "name": "parentCollectionId",
          "type": "bytes32"
        },
        {
          "internalType": "bytes32",
          "name": "conditionId",
          "type": "bytes32"
        },
        {
          "internalType": "uint256",
          "name": "indexSet",
          "type": "uint256"
        }
      ],
      "name": "getCollectionId",
      "outputs": [
        {
          "internalType": "bytes32",
          "name": "",
          "type": "bytes32"
        }
      ],
      "stateMutability": "view",
      "type": "function"
    },
    {
      "inputs": [
        {
          "internalType": "address",
          "name": "oracle",
          "type": "address"
        },
        {
          "internalType": "bytes32",
          "name": "questionId",
          "type": "bytes32"
        },
        {
          "internalType": "uint256",
          "name": "outcomeSlotCount",
          "type": "uint256"
        }
      ],
      "name": "getConditionId",
      "outputs": [
        {
          "internalType": "bytes32",
          "name": "",
          "type": "bytes32"
        }
      ],
      "stateMutability": "pure",
      "type": "function"
    },
    {
      "inputs": [
        {
          "internalType": "bytes32",
          "name": "conditionId",
          "type": "bytes32"
        }
      ],
      "name": "getOutcomeSlotCount",
      "outputs": [
        {
          "internalType": "uint256",
          "name": "",
          "type": "uint256"
        }
      ],
      "stateMutability": "view",
      "type": "function"
    },
    {
      "inputs": [
        {
          "internalType": "contract IERC20",
          "name": "collateralToken",
          "type": "address"
        },
        {
          "internalType": "bytes32",
          "name": "collectionId",
          "type": "bytes32"
        }
      ],
      "name": "getPositionId",
      "outputs": [
        {
          "internalType": "uint256",
          "name": "",
          "type": "uint256"
        }
      ],
      "stateMutability": "pure",
      "type": "function"
    },
    {
      "inputs": [
        {
          "internalType": "address",
          "name": "account",
          "type": "address"
        },
        {
          "internalType": "address",
          "name": "operator",
          "type": "address"
        }
      ],
      "name": "isApprovedForAll",
      "outputs": [
        {
          "internalType": "bool",
          "name": "",
          "type": "bool"
        }
      ],
      "stateMutability": "view",
      "type": "function"
    },
    {
      "inputs": [
        {
          "internalType": "contract IERC20",
          "name": "collateralToken",
          "type": "address"
        },
        {
          "internalType": "bytes32",
          "name": "parentCollectionId",
          "type": "bytes32"
        },
        {
          "internalType": "bytes32",
          "name": "conditionId",
          "type": "bytes32"
        },
        {
          "internalType": "uint256[]",
          "name": "partition",
          "type": "uint256[]"
        },
        {
          "internalType": "uint256",
          "name": "amount",
          "type": "uint256"
        }
      ],
      "name": "mergePositions",
      "outputs": [],
      "stateMutability": "nonpayable",
      "type": "function"
    },
    {
      "inputs": [
        {
          "internalType": "bytes32",
          "name": "",
          "type": "bytes32"
        }
      ],
      "name": "payoutDenominator",
      "outputs": [
        {
          "internalType": "uint256",
          "name": "",
          "type": "uint256"
        }
      ],
      "stateMutability": "view",
      "type": "function"
    },
    {
      "inputs": [
        {
          "internalType": "bytes32",
          "name": "",
          "type": "bytes32"
        },
        {
          "internalType": "uint256",
          "name": "",
          "type": "uint256"
        }
      ],
      "name": "payoutNumerators",
      "outputs": [
        {
          "internalType": "uint256",
          "name": "",
          "type": "uint256"
        }
      ],
      "stateMutability": "view",
      "type": "function"
    },
    {
      "inputs": [
        {
          "internalType": "address",
          "name": "oracle",
          "type": "address"
        },
        {
          "internalType": "bytes32",
          "name": "questionId",
          "type": "bytes32"
        },
        {
          "internalType": "uint256",
          "name": "outcomeSlotCount",
          "type": "uint256"
        }
      ],
      "name": "prepareCondition",
      "outputs": [],
      "stateMutability": "nonpayable",
      "type": "function"
    },
    {
      "inputs": [
        {
          "internalType": "contract IERC20",
          "name": "collateralToken",
          "type": "address"
        },
        {
          "internalType": "bytes32[]",
          "name": "conditionIds",
          "type": "bytes32[]"
        },
        {
          "internalType": "uint256[]",
          "name": "outcomes",
          "type": "uint256[]"
        }
      ],
      "name": "redeemComboPositions",
      "outputs": [],
      "stateMutability": "nonpayable",
      "type": "function"
    },
    {
      "inputs": [
        {
          "internalType": "contract IERC20",
          "name": "collateralToken",
          "type": "address"
        },
        {
          "internalType": "bytes32",
          "name": "parentCollectionId",
          "type": "bytes32"
        },
        {
          "internalType": "bytes32",
          "name": "conditionId",
          "type": "bytes32"
        },
        {
          "internalType": "uint256[]",
          "name": "indexSets",
          "type": "uint256[]"
        }
      ],
      "name": "redeemPositions",
      "outputs": [],
      "stateMutability": "nonpayable",
      "type": "function"
    },
    {
      "inputs": [
        {
          "internalType": "bytes32",
          "name": "questionId",
          "type": "bytes32"
        },
        {
          "internalType": "uint256[]",
          "name": "payouts",
          "type": "uint256[]"
        }
      ],
      "name": "reportPayouts",
      "outputs": [],
      "stateMutability": "nonpayable",
      "type": "function"
    },
    {
      "inputs": [
        {
          "internalType": "address",
          "name": "from",
          "type": "address"
        },
        {
          "internalType": "address",
          "name": "to",
          "type": "address"
        },
        {
          "internalType": "uint256[]",
          "name": "ids",
          "type": "uint256[]"
        },
        {
          "internalType": "uint256[]",
          "name": "amounts",
          "type": "uint256[]"
        },
        {
          "internalType": "bytes",
          "name": "data",
          "type": "bytes"
        }
      ],
      "name": "safeBatchTransferFrom",
      "outputs": [],
      "stateMutability": "nonpayable",
      "type": "function"
    },
    {
      "inputs": [
        {
          "internalType": "address",
          "name": "from",
          "type": "address"
        },
        {
          "internalType": "address",
          "name": "to",
          "type": "address"
        },
        {
          "internalType": "uint256",
          "name": "id",
          "type": "uint256"
        },
        {
          "internalType": "uint256",
          "name": "amount",
          "type": "uint256"
        },
        {
          "internalType": "bytes",
          "name": "data",
          "type": "bytes"
        }
      ],
      "name": "safeTransferFrom",
      "outputs": [],
      "stateMutability": "nonpayable",
      "type": "function"
    },
    {
      "inputs": [
        {
          "internalType": "address",
          "name": "operator",
          "type": "address"
        },
        {
          "internalType": "bool",
          "name": "approved",
          "type": "bool"
        }
      ],
      "name": "setApprovalForAll",
      "outputs": [],
      "stateMutability": "nonpayable",
      "type": "function"
    },
    {
      "inputs": [
        {
          "internalType": "contract IERC20",
          "name": "collateralToken",
          "type": "address"
        },
        {
          "internalType": "bytes32",
          "name": "parentCollectionId",
          "type": "bytes32"
        },
        {
          "internalType": "bytes32",
          "name": "conditionId",
          "type": "bytes32"
        },
        {
          "internalType": "uint256[]",
          "name": "partition",
          "type": "uint256[]"
        },
        {
          "internalType": "uint256",
          "name": "amount",
          "type": "uint256"
        }
      ],
      "name": "splitPosition",
      "outputs": [],
      "stateMutability": "nonpayable",
      "type": "function"
    },
    {
      "inputs": [
        {
          "internalType": "bytes4",
          "name": "interfaceId",
          "type": "bytes4"
        }
      ],
      "name": "supportsInterface",
      "outputs": [
        {
          "internalType": "bool",
          "name": "",
          "type": "bool"
        }
      ],
      "stateMutability": "view",
      "type": "function"
    },
    {
      "inputs": [
        {
          "internalType": "uint256",
          "name": "",
          "type": "uint256"
        }
      ],
      "name": "uri",
      "outputs": [
        {
          "internalType": "string",
          "name": "",
          "type": "string"
        }
      ],
      "stateMutability": "view",
      "type": "function"
    }
  ],
  "bytecode": "0x60806040523480156200001157600080fd5b50604051806020016040528060008152506200003a6301ffc9a760e01b6200008260201b60201c565b6200004b816200018b60201b60201c565b6200006363d9b67a2660e01b6200008260201b60201c565b6200007b630e89341c60e01b6200008260201b60201c565b5062000256565b63ffffffff60e01b817bffffffffffffffffffffffffffffffffffffffffffffffffffffffff191614156200011f576040517f08c379a000000000000000000000000000000000000000000000000000000000815260040180806020018281038252601c8152602001807f4552433136353a20696e76616c696420696e746572666163652069640000000081525060200191505060405180910390fd5b6001600080837bffffffffffffffffffffffffffffffffffffffffffffffffffffffff19167bffffffffffffffffffffffffffffffffffffffffffffffffffffffff1916815260200190815260200160002060006101000a81548160ff02191690831515021790555050565b8060039080519060200190620001a3929190620001a7565b5050565b828054600181600116156101000203166002900490600052602060002090601f016020900481019282601f10620001ea57805160ff19168380011785556200021b565b828001600101855582156200021b579182015b828111156200021a578251825591602001919060010190620001fd565b5b5090506200022a91906200022e565b5090565b6200025391905b808211156200024f57600081600090555060010162000235565b5090565b90565b615c8880620002666000396000f3fe608060405234801561001057600080fd5b506004361061012b5760003560e01c8063856296f7116100ad578063d96ee75411610071578063d96ee75414610b41578063d993825f14610b99578063dd34de6714610c87578063e985e9c514610cc9578063f242432a14610d455761012b565b8063856296f71461091f5780639e7212ad14610975578063a22cb46514610a2c578063c49298ac14610a7c578063d42dc0c214610aff5761012b565b80632eb2c2d6116100f45780632eb2c2d6146103d657806339dd7530146105f95780634e1273f41461065b57806372ce4275146107fc578063852c6ae2146108b35761012b565b8062fdd58e1461013057806301b7037c1461019257806301ffc9a71461027e5780630504c814146102e35780630e89341c1461032f575b600080fd5b61017c6004803603604081101561014657600080fd5b81019080803573ffffffffffffffffffffffffffffffffffffffff16906020019092919080359060200190929190505050610e54565b6040518082815260200191505060405180910390f35b61027c600480360360808110156101a857600080fd5b81019080803573ffffffffffffffffffffffffffffffffffffffff1690602001909291908035906020019092919080359060200190929190803590602001906401000000008111156101f957600080fd5b82018360208201111561020b57600080fd5b8035906020019184602083028401116401000000008311171561022d57600080fd5b919080806020026020016040519081016040528093929190818152602001838360200280828437600081840152601f19601f820116905080830192505050505050509192919290505050610f34565b005b6102c96004803603602081101561029457600080fd5b8101908080357bffffffffffffffffffffffffffffffffffffffffffffffffffffffff191690602001909291905050506113f9565b604051808215151515815260200191505060405180910390f35b610319600480360360408110156102f957600080fd5b810190808035906020019092919080359060200190929190505050611460565b6040518082815260200191505060405180910390f35b61035b6004803603602081101561034557600080fd5b810190808035906020019092919050505061148e565b6040518080602001828103825283818151815260200191508051906020019080838360005b8381101561039b578082015181840152602081019050610380565b50505050905090810190601f1680156103c85780820380516001836020036101000a031916815260200191505b509250505060405180910390f35b6105f7600480360360a08110156103ec57600080fd5b81019080803573ffffffffffffffffffffffffffffffffffffffff169060200190929190803573ffffffffffffffffffffffffffffffffffffffff1690602001909291908035906020019064010000000081111561044957600080fd5b82018360208201111561045b57600080fd5b8035906020019184602083028401116401000000008311171561047d57600080fd5b919080806020026020016040519081016040528093929190818152602001838360200280828437600081840152601f19601f820116905080830192505050505050509192919290803590602001906401000000008111156104dd57600080fd5b8201836020820111156104ef57600080fd5b8035906020019184602083028401116401000000008311171561051157600080fd5b919080806020026020016040519081016040528093929190818152602001838360200280828437600081840152601f19601f8201169050808301925050505050505091929192908035906020019064010000000081111561057157600080fd5b82018360208201111561058357600080fd5b803590602001918460018302840111640100000000831117156105a557600080fd5b91908080601f016020809104026020016040519081016040528093929190818152602001838380828437600081840152601f19601f820116905080830192505050505050509192919290505050611532565b005b6106456004803603604081101561060f57600080fd5b81019080803573ffffffffffffffffffffffffffffffffffffffff169060200190929190803590602001909291905050506119c0565b6040518082815260200191505060405180910390f35b6107a56004803603604081101561067157600080fd5b810190808035906020019064010000000081111561068e57600080fd5b8201836020820111156106a057600080fd5b803590602001918460208302840111640100000000831117156106c257600080fd5b919080806020026020016040519081016040528093929190818152602001838360200280828437600081840152601f19601f8201169050808301925050505050505091929192908035906020019064010000000081111561072257600080fd5b82018360208201111561073457600080fd5b8035906020019184602083028401116401000000008311171561075657600080fd5b919080806020026020016040519081016040528093929190818152602001838360200280828437600081840152601f19601f8201169050808301925050505050505091929192905050506119d4565b6040518080602001828103825283818151815260200191508051906020019060200280838360005b838110156107e85780820151818401526020810190506107cd565b505050509050019250505060405180910390f35b6108b1600480360360a081101561081257600080fd5b81019080803573ffffffffffffffffffffffffffffffffffffffff16906020019092919080359060200190929190803590602001909291908035906020019064010000000081111561086357600080fd5b82018360208201111561087557600080fd5b8035906020019184602083028401116401000000008311171561089757600080fd5b909192939192939080359060200190929190505050611bb2565b005b610909600480360360608110156108c957600080fd5b81019080803573ffffffffffffffffffffffffffffffffffffffff1690602001909291908035906020019092919080359060200190929190505050612136565b6040518082815260200191505060405180910390f35b61095f6004803603606081101561093557600080fd5b8101908080359060200190929190803590602001909291908035906020019092919050505061214c565b6040518082815260200191505060405180910390f35b610a2a600480360360a081101561098b57600080fd5b81019080803573ffffffffffffffffffffffffffffffffffffffff1690602001909291908035906020019092919080359060200190929190803590602001906401000000008111156109dc57600080fd5b8201836020820111156109ee57600080fd5b80359060200191846020830284011164010000000083111715610a1057600080fd5b909192939192939080359060200190929190505050612162565b005b610a7a60048036036040811015610a4257600080fd5b81019080803573ffffffffffffffffffffffffffffffffffffffff1690602001909291908035151590602001909291905050506126df565b005b610afd60048036036040811015610a9257600080fd5b810190808035906020019092919080359060200190640100000000811115610ab957600080fd5b820183602082011115610acb57600080fd5b80359060200191846020830284011164010000000083111715610aed57600080fd5b909192939192939050505061287a565b005b610b2b60048036036020811015610b1557600080fd5b8101908080359060200190929190505050612c55565b6040518082815260200191505060405180910390f35b610b9760048036036060811015610b5757600080fd5b81019080803573ffffffffffffffffffffffffffffffffffffffff1690602001909291908035906020019092919080359060200190929190505050612c75565b005b610c8560048036036060811015610baf57600080fd5b81019080803573ffffffffffffffffffffffffffffffffffffffff16906020019092919080359060200190640100000000811115610bec57600080fd5b820183602082011115610bfe57600080fd5b80359060200191846020830284011164010000000083111715610c2057600080fd5b909192939192939080359060200190640100000000811115610c4157600080fd5b820183602082011115610c5357600080fd5b80359060200191846020830284011164010000000083111715610c7557600080fd5b9091929391929390505050612e8e565b005b610cb360048036036020811015610c9d57600080fd5b81019080803590602001909291905050506130a8565b6040518082815260200191505060405180910390f35b610d2b60048036036040811015610cdf57600080fd5b81019080803573ffffffffffffffffffffffffffffffffffffffff169060200190929190803573ffffffffffffffffffffffffffffffffffffffff1690602001909291905050506130c0565b604051808215151515815260200191505060405180910390f35b610e52600480360360a0811015610d5b57600080fd5b81019080803573ffffffffffffffffffffffffffffffffffffffff169060200190929190803573ffffffffffffffffffffffffffffffffffffffff169060200190929190803590602001909291908035906020019092919080359060200190640100000000811115610dcc57600080fd5b820183602082011115610dde57600080fd5b80359060200191846001830284011164010000000083111715610e0057600080fd5b91908080601f016020809104026020016040519081016040528093929190818152602001838380828437600081840152601f19601f820116905080830192505050505050509192919290505050613154565b005b60008073ffffffffffffffffffffffffffffffffffffffff168373ffffffffffffffffffffffffffffffffffffffff161415610edb576040517f08c379a000000000000000000000000000000000000000000000000000000000815260040180806020018281038252602b8152602001806159d2602b913960400191505060405180910390fd5b6001600083815260200190815260200160002060008473ffffffffffffffffffffffffffffffffffffffff1673ffffffffffffffffffffffffffffffffffffffff16815260200190815260200160002054905092915050565b60006005600084815260200190815260200160002054905060008111610fa5576040517f08c379a00000000000000000000000000000000000000000000000000000000081526004018080602001828103825260258152602001806159ad6025913960400191505060405180910390fd5b60006004600085815260200190815260200160002080549050905060008111611036576040517f08c379a000000000000000000000000000000000000000000000000000000000815260040180806020018281038252601a8152602001807f636f6e646974696f6e206e6f742070726570617265642079657400000000000081525060200191505060405180910390fd5b600080905060006001836001901b03905060008090505b85518110156111e157600086828151811061106457fe5b6020026020010151905060008111801561107d57508281105b6110ef576040517f08c379a00000000000000000000000000000000000000000000000000000000081526004018080602001828103825260158152602001807f676f7420696e76616c696420696e64657820736574000000000000000000000081525060200191505060405180910390fd5b60006111058b6111008c8c866134c9565b6139fd565b9050600080905060008090505b87811015611173576000816001901b85161461116657611163600460008d8152602001908152602001600020828154811061114957fe5b906000526020600020015483613a6890919063ffffffff16565b91505b8080600101915050611112565b5060006111803384610e54565b905060008111156111d0576111c26111b38a6111a58585613af090919063ffffffff16565b613b7690919063ffffffff16565b88613a6890919063ffffffff16565b96506111cf338483613bc0565b5b50505050808060010191505061104d565b506000821115611338576000801b871415611312578773ffffffffffffffffffffffffffffffffffffffff1663a9059cbb33846040518363ffffffff1660e01b8152600401808373ffffffffffffffffffffffffffffffffffffffff1673ffffffffffffffffffffffffffffffffffffffff16815260200182815260200192505050602060405180830381600087803b15801561127d57600080fd5b505af1158015611291573d6000803e3d6000fd5b505050506040513d60208110156112a757600080fd5b810190808051906020019092919050505061130d576040517f08c379a000000000000000000000000000000000000000000000000000000000815260040180806020018281038252602b815260200180615a2e602b913960400191505060405180910390fd5b611337565b611336336113208a8a6139fd565b8460405180602001604052806000815250613ddc565b5b5b868873ffffffffffffffffffffffffffffffffffffffff163373ffffffffffffffffffffffffffffffffffffffff167f2682012a4a4f1973119f1c9b90745d1bd91fa2bab387344f044cb3586864d18d8989876040518084815260200180602001838152602001828103825284818151815260200191508051906020019060200280838360005b838110156113da5780820151818401526020810190506113bf565b5050505090500194505050505060405180910390a45050505050505050565b6000806000837bffffffffffffffffffffffffffffffffffffffffffffffffffffffff19167bffffffffffffffffffffffffffffffffffffffffffffffffffffffff1916815260200190815260200160002060009054906101000a900460ff169050919050565b6004602052816000526040600020818154811061147957fe5b90600052602060002001600091509150505481565b606060038054600181600116156101000203166002900480601f0160208091040260200160405190810160405280929190818152602001828054600181600116156101000203166002900480156115265780601f106114fb57610100808354040283529160200191611526565b820191906000526020600020905b81548152906001019060200180831161150957829003601f168201915b50505050509050919050565b815183511461158c576040517f08c379a0000000000000000000000000000000000000000000000000000000008152600401808060200182810382526028815260200180615c0a6028913960400191505060405180910390fd5b600073ffffffffffffffffffffffffffffffffffffffff168473ffffffffffffffffffffffffffffffffffffffff161415611612576040517f08c379a0000000000000000000000000000000000000000000000000000000008152600401808060200182810382526025815260200180615aa66025913960400191505060405180910390fd5b61161a613fdf565b73ffffffffffffffffffffffffffffffffffffffff168573ffffffffffffffffffffffffffffffffffffffff161480611660575061165f8561165a613fdf565b6130c0565b5b6116b5576040517f08c379a0000000000000000000000000000000000000000000000000000000008152600401808060200182810382526032815260200180615acb6032913960400191505060405180910390fd5b60006116bf613fdf565b90506116cf818787878787613fe7565b60008090505b84518110156118a35760008582815181106116ec57fe5b60200260200101519050600085838151811061170457fe5b6020026020010151905061178b816040518060600160405280602a8152602001615b43602a91396001600086815260200190815260200160002060008d73ffffffffffffffffffffffffffffffffffffffff1673ffffffffffffffffffffffffffffffffffffffff16815260200190815260200160002054613fef9092919063ffffffff16565b6001600084815260200190815260200160002060008b73ffffffffffffffffffffffffffffffffffffffff1673ffffffffffffffffffffffffffffffffffffffff16815260200190815260200160002081905550611842816001600085815260200190815260200160002060008b73ffffffffffffffffffffffffffffffffffffffff1673ffffffffffffffffffffffffffffffffffffffff16815260200190815260200160002054613a6890919063ffffffff16565b6001600084815260200190815260200160002060008a73ffffffffffffffffffffffffffffffffffffffff1673ffffffffffffffffffffffffffffffffffffffff1681526020019081526020016000208190555050508060010190506116d5565b508473ffffffffffffffffffffffffffffffffffffffff168673ffffffffffffffffffffffffffffffffffffffff168273ffffffffffffffffffffffffffffffffffffffff167f4a39dc06d4c0dbc64b70af90fd698a233a518aa5d07e595d983b8c0526c8f7fb8787604051808060200180602001838103835285818151815260200191508051906020019060200280838360005b83811015611953578082015181840152602081019050611938565b50505050905001838103825284818151815260200191508051906020019060200280838360005b8381101561199557808201518184015260208101905061197a565b5050505090500194505050505060405180910390a46119b88187878787876140af565b505050505050565b60006119cc83836139fd565b905092915050565b60608151835114611a30576040517f08c379a0000000000000000000000000000000000000000000000000000000008152600401808060200182810382526029815260200180615be16029913960400191505060405180910390fd5b60608351604051908082528060200260200182016040528015611a625781602001602082028036833780820191505090505b50905060008090505b8451811015611ba757600073ffffffffffffffffffffffffffffffffffffffff16858281518110611a9857fe5b602002602001015173ffffffffffffffffffffffffffffffffffffffff161415611b0d576040517f08c379a00000000000000000000000000000000000000000000000000000000081526004018080602001828103825260318152602001806159fd6031913960400191505060405180910390fd5b60016000858381518110611b1d57fe5b602002602001015181526020019081526020016000206000868381518110611b4157fe5b602002602001015173ffffffffffffffffffffffffffffffffffffffff1673ffffffffffffffffffffffffffffffffffffffff16815260200190815260200160002054828281518110611b9057fe5b602002602001018181525050806001019050611a6b565b508091505092915050565b60018383905011611c2b576040517f08c379a00000000000000000000000000000000000000000000000000000000081526004018080602001828103825260208152602001807f676f7420656d707479206f722073696e676c65746f6e20706172746974696f6e81525060200191505060405180910390fd5b60006004600086815260200190815260200160002080549050905060008111611cbc576040517f08c379a000000000000000000000000000000000000000000000000000000000815260040180806020018281038252601a8152602001807f636f6e646974696f6e206e6f742070726570617265642079657400000000000081525060200191505060405180910390fd5b60006001826001901b0390506000819050606086869050604051908082528060200260200182016040528015611d015781602001602082028036833780820191505090505b509050606087879050604051908082528060200260200182016040528015611d385781602001602082028036833780820191505090505b50905060008090505b88889050811015611eb3576000898983818110611d5a57fe5b905060200201359050600081118015611d7257508581105b611de4576040517f08c379a00000000000000000000000000000000000000000000000000000000081526004018080602001828103825260158152602001807f676f7420696e76616c696420696e64657820736574000000000000000000000081525060200191505060405180910390fd5b8085821614611e5b576040517f08c379a00000000000000000000000000000000000000000000000000000000081526004018080602001828103825260168152602001807f706172746974696f6e206e6f74206469736a6f696e740000000000000000000081525060200191505060405180910390fd5b8085189450611e748d611e6f8e8e856134c9565b6139fd565b848381518110611e8057fe5b60200260200101818152505087838381518110611e9957fe5b602002602001018181525050508080600101915050611d41565b506000831415612032576000801b8a1415612018578a73ffffffffffffffffffffffffffffffffffffffff166323b872dd3330896040518463ffffffff1660e01b8152600401808473ffffffffffffffffffffffffffffffffffffffff1673ffffffffffffffffffffffffffffffffffffffff1681526020018373ffffffffffffffffffffffffffffffffffffffff1673ffffffffffffffffffffffffffffffffffffffff1681526020018281526020019350505050602060405180830381600087803b158015611f8357600080fd5b505af1158015611f97573d6000803e3d6000fd5b505050506040513d6020811015611fad57600080fd5b8101908080519060200190929190505050612013576040517f08c379a0000000000000000000000000000000000000000000000000000000008152600401808060200182810382526023815260200180615afd6023913960400191505060405180910390fd5b61202d565b61202c336120268d8d6139fd565b88613bc0565b5b612053565b6120523361204c8d6120478e8e898b186134c9565b6139fd565b88613bc0565b5b61206e33838360405180602001604052806000815250614527565b888a3373ffffffffffffffffffffffffffffffffffffffff167f2e6bb91f8cbcda0c93623c54d0403a43514fabc40084ec96b6d5379a747862988e8c8c8c604051808573ffffffffffffffffffffffffffffffffffffffff1673ffffffffffffffffffffffffffffffffffffffff168152602001806020018381526020018281038252858582818152602001925060200280828437600081840152601f19601f8201169050808301925050509550505050505060405180910390a45050505050505050505050565b600061214384848461484c565b90509392505050565b60006121598484846134c9565b90509392505050565b600183839050116121db576040517f08c379a00000000000000000000000000000000000000000000000000000000081526004018080602001828103825260208152602001807f676f7420656d707479206f722073696e676c65746f6e20706172746974696f6e81525060200191505060405180910390fd5b6000600460008681526020019081526020016000208054905090506000811161226c576040517f08c379a000000000000000000000000000000000000000000000000000000000815260040180806020018281038252601a8152602001807f636f6e646974696f6e206e6f742070726570617265642079657400000000000081525060200191505060405180910390fd5b60006001826001901b03905060008190506060868690506040519080825280602002602001820160405280156122b15781602001602082028036833780820191505090505b5090506060878790506040519080825280602002602001820160405280156122e85781602001602082028036833780820191505090505b50905060008090505b8888905081101561246357600089898381811061230a57fe5b90506020020135905060008111801561232257508581105b612394576040517f08c379a00000000000000000000000000000000000000000000000000000000081526004018080602001828103825260158152602001807f676f7420696e76616c696420696e64657820736574000000000000000000000081525060200191505060405180910390fd5b808582161461240b576040517f08c379a00000000000000000000000000000000000000000000000000000000081526004018080602001828103825260168152602001807f706172746974696f6e206e6f74206469736a6f696e740000000000000000000081525060200191505060405180910390fd5b80851894506124248d61241f8e8e856134c9565b6139fd565b84838151811061243057fe5b6020026020010181815250508783838151811061244957fe5b6020026020010181815250505080806001019150506122f1565b5061246f3383836148bd565b60008314156125e6576000801b8a14156125bc578a73ffffffffffffffffffffffffffffffffffffffff1663a9059cbb33886040518363ffffffff1660e01b8152600401808373ffffffffffffffffffffffffffffffffffffffff1673ffffffffffffffffffffffffffffffffffffffff16815260200182815260200192505050602060405180830381600087803b15801561250a57600080fd5b505af115801561251e573d6000803e3d6000fd5b505050506040513d602081101561253457600080fd5b81019080805190602001909291905050506125b7576040517f08c379a00000000000000000000000000000000000000000000000000000000081526004018080602001828103825260208152602001807f636f756c64206e6f742073656e6420636f6c6c61746572616c20746f6b656e7381525060200191505060405180910390fd5b6125e1565b6125e0336125ca8d8d6139fd565b8860405180602001604052806000815250613ddc565b5b612617565b612616336126008d6125fb8e8e898b186134c9565b6139fd565b8860405180602001604052806000815250613ddc565b5b888a3373ffffffffffffffffffffffffffffffffffffffff167f6f13ca62553fcc2bcd2372180a43949c1e4cebba603901ede2f4e14f36b282ca8e8c8c8c604051808573ffffffffffffffffffffffffffffffffffffffff1673ffffffffffffffffffffffffffffffffffffffff168152602001806020018381526020018281038252858582818152602001925060200280828437600081840152601f19601f8201169050808301925050509550505050505060405180910390a45050505050505050505050565b8173ffffffffffffffffffffffffffffffffffffffff166126fe613fdf565b73ffffffffffffffffffffffffffffffffffffffff16141561276b576040517f08c379a0000000000000000000000000000000000000000000000000000000008152600401808060200182810382526029815260200180615bb86029913960400191505060405180910390fd5b8060026000612778613fdf565b73ffffffffffffffffffffffffffffffffffffffff1673ffffffffffffffffffffffffffffffffffffffff16815260200190815260200160002060008473ffffffffffffffffffffffffffffffffffffffff1673ffffffffffffffffffffffffffffffffffffffff16815260200190815260200160002060006101000a81548160ff0219169083151502179055508173ffffffffffffffffffffffffffffffffffffffff16612825613fdf565b73ffffffffffffffffffffffffffffffffffffffff167f17307eab39ab6107e8899845ad3d59bd9653f200f220920489ca2b5937696c3183604051808215151515815260200191505060405180910390a35050565b6000828290509050600181116128db576040517f08c379a000000000000000000000000000000000000000000000000000000000815260040180806020018281038252602a815260200180615b8e602a913960400191505060405180910390fd5b60006128e833868461484c565b905081600460008381526020019081526020016000208054905014612975576040517f08c379a000000000000000000000000000000000000000000000000000000000815260040180806020018281038252601f8152602001807f636f6e646974696f6e206e6f74207072657061726564206f7220666f756e640081525060200191505060405180910390fd5b60006005600083815260200190815260200160002054146129fe576040517f08c379a000000000000000000000000000000000000000000000000000000000815260040180806020018281038252601e8152602001807f7061796f75742064656e6f6d696e61746f7220616c726561647920736574000081525060200191505060405180910390fd5b600080905060008090505b83811015612b16576000868683818110612a1f57fe5b905060200201359050612a3b8184613a6890919063ffffffff16565b92506000600460008681526020019081526020016000208381548110612a5d57fe5b906000526020600020015414612adb576040517f08c379a000000000000000000000000000000000000000000000000000000000815260040180806020018281038252601c8152602001807f7061796f7574206e756d657261746f7220616c7265616479207365740000000081525060200191505060405180910390fd5b80600460008681526020019081526020016000208381548110612afa57fe5b9060005260206000200181905550508080600101915050612a09565b5060008111612b8d576040517f08c379a00000000000000000000000000000000000000000000000000000000081526004018080602001828103825260148152602001807f7061796f757420697320616c6c207a65726f657300000000000000000000000081525060200191505060405180910390fd5b806005600084815260200190815260200160002081905550853373ffffffffffffffffffffffffffffffffffffffff16837fb44d84d3289691f71497564b85d4233648d9dbae8cbdbb4329f301c3a0185894866004600088815260200190815260200160002060405180838152602001806020018281038252838181548152602001915080548015612c3e57602002820191906000526020600020905b815481526020019060010190808311612c2a575b5050935050505060405180910390a4505050505050565b600060046000838152602001908152602001600020805490509050919050565b610100811115612ced576040517f08c379a00000000000000000000000000000000000000000000000000000000081526004018080602001828103825260168152602001807f746f6f206d616e79206f7574636f6d6520736c6f74730000000000000000000081525060200191505060405180910390fd5b60018111612d46576040517f08c379a000000000000000000000000000000000000000000000000000000000815260040180806020018281038252602a815260200180615b8e602a913960400191505060405180910390fd5b6000612d5384848461484c565b90506000600460008381526020019081526020016000208054905014612de1576040517f08c379a000000000000000000000000000000000000000000000000000000000815260040180806020018281038252601a8152602001807f636f6e646974696f6e20616c726561647920707265706172656400000000000081525060200191505060405180910390fd5b81604051908082528060200260200182016040528015612e105781602001602082028036833780820191505090505b50600460008381526020019081526020016000209080519060200190612e379291906158de565b50828473ffffffffffffffffffffffffffffffffffffffff16827fab3760c3bd2bb38b5bcf54dc79802ed67338b4cf29f3054ded67ed24661e4177856040518082815260200191505060405180910390a450505050565b818190508484905014612f09576040517f08c379a000000000000000000000000000000000000000000000000000000000815260040180806020018281038252601c8152602001807f72656465656d436f6d626f3a206d69736d61746368206c656e6774680000000081525060200191505060405180910390fd5b606060018585905001604051908082528060200260200182016040528015612f405781602001602082028036833780820191505090505b5090506000801b81600081518110612f5457fe5b6020026020010181815250506000600190505b85859050811015612fe257612fbd826001830381518110612f8457fe5b6020026020010151878760018503818110612f9b57fe5b90506020020135868660018603818110612fb157fe5b9050602002013561214c565b828281518110612fc957fe5b6020026020010181815250508080600101915050612f67565b50606060016040519080825280602002602001820160405280156130155781602001602082028036833780820191505090505b50905060008686905090505b600081111561309e5784846001830381811061303957fe5b905060200201358260008151811061304d57fe5b6020026020010181815250506130908884600184038151811061306c57fe5b602002602001015189896001860381811061308357fe5b9050602002013585610f34565b808060019003915050613021565b5050505050505050565b60056020528060005260406000206000915090505481565b6000600260008473ffffffffffffffffffffffffffffffffffffffff1673ffffffffffffffffffffffffffffffffffffffff16815260200190815260200160002060008373ffffffffffffffffffffffffffffffffffffffff1673ffffffffffffffffffffffffffffffffffffffff16815260200190815260200160002060009054906101000a900460ff16905092915050565b600073ffffffffffffffffffffffffffffffffffffffff168473ffffffffffffffffffffffffffffffffffffffff1614156131da576040517f08c379a0000000000000000000000000000000000000000000000000000000008152600401808060200182810382526025815260200180615aa66025913960400191505060405180910390fd5b6131e2613fdf565b73ffffffffffffffffffffffffffffffffffffffff168573ffffffffffffffffffffffffffffffffffffffff161480613228575061322785613222613fdf565b6130c0565b5b61327d576040517f08c379a0000000000000000000000000000000000000000000000000000000008152600401808060200182810382526029815260200180615a7d6029913960400191505060405180910390fd5b6000613287613fdf565b90506132a781878761329888614bfb565b6132a188614bfb565b87613fe7565b613324836040518060600160405280602a8152602001615b43602a91396001600088815260200190815260200160002060008a73ffffffffffffffffffffffffffffffffffffffff1673ffffffffffffffffffffffffffffffffffffffff16815260200190815260200160002054613fef9092919063ffffffff16565b6001600086815260200190815260200160002060008873ffffffffffffffffffffffffffffffffffffffff1673ffffffffffffffffffffffffffffffffffffffff168152602001908152602001600020819055506133db836001600087815260200190815260200160002060008873ffffffffffffffffffffffffffffffffffffffff1673ffffffffffffffffffffffffffffffffffffffff16815260200190815260200160002054613a6890919063ffffffff16565b6001600086815260200190815260200160002060008773ffffffffffffffffffffffffffffffffffffffff1673ffffffffffffffffffffffffffffffffffffffff168152602001908152602001600020819055508473ffffffffffffffffffffffffffffffffffffffff168673ffffffffffffffffffffffffffffffffffffffff168273ffffffffffffffffffffffffffffffffffffffff167fc3d58168c5ae7397731d063d5bbf3d657854427343f4c083240f7aacaa2d0f628787604051808381526020018281526020019250505060405180910390a46134c1818787878787614c54565b505050505050565b600080838360405160200180838152602001828152602001925050506040516020818303038152906040528051906020012060001c905060008060ff83901c141590506000805b7f30644e72e131a029b85045b68181585d97816a916871ca8d3c208c16d87cfd478061353857fe5b6001850893507f30644e72e131a029b85045b68181585d97816a916871ca8d3c208c16d87cfd478061356657fe5b60037f30644e72e131a029b85045b68181585d97816a916871ca8d3c208c16d87cfd478061359057fe5b7f30644e72e131a029b85045b68181585d97816a916871ca8d3c208c16d87cfd47806135b857fe5b87880987090890506135c98161504a565b9150807f30644e72e131a029b85045b68181585d97816a916871ca8d3c208c16d87cfd47806135f457fe5b838409141561351057828015613614575060006002838161361157fe5b06145b80613633575082158015613632575060016002838161362f57fe5b06145b5b1561365e57817f30644e72e131a029b85045b68181585d97816a916871ca8d3c208c16d87cfd470391505b60008860001c9050600081146139b257600060fe82901c1415935060028082901b901c90507f30644e72e131a029b85045b68181585d97816a916871ca8d3c208c16d87cfd47806136ab57fe5b60037f30644e72e131a029b85045b68181585d97816a916871ca8d3c208c16d87cfd47806136d557fe5b7f30644e72e131a029b85045b68181585d97816a916871ca8d3c208c16d87cfd47806136fd57fe5b848509840908915060006137108361504a565b9050848015613729575060006002828161372657fe5b06145b80613748575084158015613747575060016002828161374457fe5b06145b5b1561377357807f30644e72e131a029b85045b68181585d97816a916871ca8d3c208c16d87cfd470390505b827f30644e72e131a029b85045b68181585d97816a916871ca8d3c208c16d87cfd478061379c57fe5b82830914613812576040517f08c379a000000000000000000000000000000000000000000000000000000000815260040180806020018281038252601c8152602001807f696e76616c696420706172656e7420636f6c6c656374696f6e2049440000000081525060200191505060405180910390fd5b60006060600673ffffffffffffffffffffffffffffffffffffffff1688878686604051602001808581526020018481526020018381526020018281526020019450505050506040516020818303038152906040526040518082805190602001908083835b602083106138995780518252602082019150602081019050602083039250613876565b6001836020036101000a038019825116818451168082178552505050505050905001915050600060405180830381855afa9150503d80600081146138f9576040519150601f19603f3d011682016040523d82523d6000602084013e6138fe565b606091505b509150915081613976576040517f08c379a000000000000000000000000000000000000000000000000000000000815260040180806020018281038252600c8152602001807f6563616464206661696c6564000000000000000000000000000000000000000081525060200191505060405180910390fd5b80806020019051604081101561398b57600080fd5b81019080805190602001909291908051906020019092919050505080975081995050505050505b6001600284816139be57fe5b0614156139eb577f4000000000000000000000000000000000000000000000000000000000000000851894505b8460001b955050505050509392505050565b60008282604051602001808373ffffffffffffffffffffffffffffffffffffffff1673ffffffffffffffffffffffffffffffffffffffff1660601b8152601401828152602001925050506040516020818303038152906040528051906020012060001c905092915050565b600080828401905083811015613ae6576040517f08c379a000000000000000000000000000000000000000000000000000000000815260040180806020018281038252601b8152602001807f536166654d6174683a206164646974696f6e206f766572666c6f77000000000081525060200191505060405180910390fd5b8091505092915050565b600080831415613b035760009050613b70565b6000828402905082848281613b1457fe5b0414613b6b576040517f08c379a0000000000000000000000000000000000000000000000000000000008152600401808060200182810382526021815260200180615b6d6021913960400191505060405180910390fd5b809150505b92915050565b6000613bb883836040518060400160405280601a81526020017f536166654d6174683a206469766973696f6e206279207a65726f000000000000815250615805565b905092915050565b600073ffffffffffffffffffffffffffffffffffffffff168373ffffffffffffffffffffffffffffffffffffffff161415613c46576040517f08c379a0000000000000000000000000000000000000000000000000000000008152600401808060200182810382526023815260200180615b206023913960400191505060405180910390fd5b6000613c50613fdf565b9050613c8081856000613c6287614bfb565b613c6b87614bfb565b60405180602001604052806000815250613fe7565b613cfd82604051806060016040528060248152602001615a59602491396001600087815260200190815260200160002060008873ffffffffffffffffffffffffffffffffffffffff1673ffffffffffffffffffffffffffffffffffffffff16815260200190815260200160002054613fef9092919063ffffffff16565b6001600085815260200190815260200160002060008673ffffffffffffffffffffffffffffffffffffffff1673ffffffffffffffffffffffffffffffffffffffff16815260200190815260200160002081905550600073ffffffffffffffffffffffffffffffffffffffff168473ffffffffffffffffffffffffffffffffffffffff168273ffffffffffffffffffffffffffffffffffffffff167fc3d58168c5ae7397731d063d5bbf3d657854427343f4c083240f7aacaa2d0f628686604051808381526020018281526020019250505060405180910390a450505050565b600073ffffffffffffffffffffffffffffffffffffffff168473ffffffffffffffffffffffffffffffffffffffff161415613e62576040517f08c379a0000000000000000000000000000000000000000000000000000000008152600401808060200182810382526021815260200180615c326021913960400191505060405180910390fd5b6000613e6c613fdf565b9050613e8d81600087613e7e88614bfb565b613e8788614bfb565b87613fe7565b613ef0836001600087815260200190815260200160002060008873ffffffffffffffffffffffffffffffffffffffff1673ffffffffffffffffffffffffffffffffffffffff16815260200190815260200160002054613a6890919063ffffffff16565b6001600086815260200190815260200160002060008773ffffffffffffffffffffffffffffffffffffffff1673ffffffffffffffffffffffffffffffffffffffff168152602001908152602001600020819055508473ffffffffffffffffffffffffffffffffffffffff16600073ffffffffffffffffffffffffffffffffffffffff168273ffffffffffffffffffffffffffffffffffffffff167fc3d58168c5ae7397731d063d5bbf3d657854427343f4c083240f7aacaa2d0f628787604051808381526020018281526020019250505060405180910390a4613fd881600087878787614c54565b5050505050565b600033905090565b505050505050565b600083831115829061409c576040517f08c379a00000000000000000000000000000000000000000000000000000000081526004018080602001828103825283818151815260200191508051906020019080838360005b83811015614061578082015181840152602081019050614046565b50505050905090810190601f16801561408e5780820380516001836020036101000a031916815260200191505b509250505060405180910390fd5b5060008385039050809150509392505050565b6140ce8473ffffffffffffffffffffffffffffffffffffffff166158cb565b1561451f578373ffffffffffffffffffffffffffffffffffffffff1663bc197c8187878686866040518663ffffffff1660e01b8152600401808673ffffffffffffffffffffffffffffffffffffffff1673ffffffffffffffffffffffffffffffffffffffff1681526020018573ffffffffffffffffffffffffffffffffffffffff1673ffffffffffffffffffffffffffffffffffffffff168152602001806020018060200180602001848103845287818151815260200191508051906020019060200280838360005b838110156141b2578082015181840152602081019050614197565b50505050905001848103835286818151815260200191508051906020019060200280838360005b838110156141f45780820151818401526020810190506141d9565b50505050905001848103825285818151815260200191508051906020019080838360005b83811015614233578082015181840152602081019050614218565b50505050905090810190601f1680156142605780820380516001836020036101000a031916815260200191505b5098505050505050505050602060405180830381600087803b15801561428557600080fd5b505af19250505080156142b957506040513d60208110156142a557600080fd5b810190808051906020019092919050505060015b6144805760006040519050600081526001156143825760443d10156142e15760009050614382565b60046000803e60005160e01c6308c379a08114614302576000915050614382565b60043d036004833e81513d602482011167ffffffffffffffff8211171561432e57600092505050614382565b808301805167ffffffffffffffff811115614350576000945050505050614382565b8060208301013d860181111561436e57600095505050505050614382565b601f19601f82011660405282955050505050505b8061438d575061442f565b806040517f08c379a00000000000000000000000000000000000000000000000000000000081526004018080602001828103825283818151815260200191508051906020019080838360005b838110156143f45780820151818401526020810190506143d9565b50505050905090810190601f1680156144215780820380516001836020036101000a031916815260200191505b509250505060405180910390fd5b6040517f08c379a00000000000000000000000000000000000000000000000000000000081526004018080602001828103825260348152602001806159516034913960400191505060405180910390fd5b63bc197c8160e01b7bffffffffffffffffffffffffffffffffffffffffffffffffffffffff1916817bffffffffffffffffffffffffffffffffffffffffffffffffffffffff19161461451d576040517f08c379a00000000000000000000000000000000000000000000000000000000081526004018080602001828103825260288152602001806159856028913960400191505060405180910390fd5b505b505050505050565b600073ffffffffffffffffffffffffffffffffffffffff168473ffffffffffffffffffffffffffffffffffffffff1614156145ad576040517f08c379a0000000000000000000000000000000000000000000000000000000008152600401808060200182810382526021815260200180615c326021913960400191505060405180910390fd5b8151835114614607576040517f08c379a0000000000000000000000000000000000000000000000000000000008152600401808060200182810382526028815260200180615c0a6028913960400191505060405180910390fd5b6000614611613fdf565b905061462281600087878787613fe7565b60008090505b845181101561472e576146ba6001600087848151811061464457fe5b6020026020010151815260200190815260200160002060008873ffffffffffffffffffffffffffffffffffffffff1673ffffffffffffffffffffffffffffffffffffffff168152602001908152602001600020548583815181106146a457fe5b6020026020010151613a6890919063ffffffff16565b600160008784815181106146ca57fe5b6020026020010151815260200190815260200160002060008873ffffffffffffffffffffffffffffffffffffffff1673ffffffffffffffffffffffffffffffffffffffff168152602001908152602001600020819055508080600101915050614628565b508473ffffffffffffffffffffffffffffffffffffffff16600073ffffffffffffffffffffffffffffffffffffffff168273ffffffffffffffffffffffffffffffffffffffff167f4a39dc06d4c0dbc64b70af90fd698a233a518aa5d07e595d983b8c0526c8f7fb8787604051808060200180602001838103835285818151815260200191508051906020019060200280838360005b838110156147df5780820151818401526020810190506147c4565b50505050905001838103825284818151815260200191508051906020019060200280838360005b83811015614821578082015181840152602081019050614806565b5050505090500194505050505060405180910390a4614845816000878787876140af565b5050505050565b6000838383604051602001808473ffffffffffffffffffffffffffffffffffffffff1673ffffffffffffffffffffffffffffffffffffffff1660601b815260140183815260200182815260200193505050506040516020818303038152906040528051906020012090509392505050565b600073ffffffffffffffffffffffffffffffffffffffff168373ffffffffffffffffffffffffffffffffffffffff161415614943576040517f08c379a0000000000000000000000000000000000000000000000000000000008152600401808060200182810382526023815260200180615b206023913960400191505060405180910390fd5b805182511461499d576040517f08c379a0000000000000000000000000000000000000000000000000000000008152600401808060200182810382526028815260200180615c0a6028913960400191505060405180910390fd5b60006149a7613fdf565b90506149c781856000868660405180602001604052806000815250613fe7565b60008090505b8351811015614aed57614a798382815181106149e557fe5b6020026020010151604051806060016040528060248152602001615a596024913960016000888681518110614a1657fe5b6020026020010151815260200190815260200160002060008973ffffffffffffffffffffffffffffffffffffffff1673ffffffffffffffffffffffffffffffffffffffff16815260200190815260200160002054613fef9092919063ffffffff16565b60016000868481518110614a8957fe5b6020026020010151815260200190815260200160002060008773ffffffffffffffffffffffffffffffffffffffff1673ffffffffffffffffffffffffffffffffffffffff1681526020019081526020016000208190555080806001019150506149cd565b50600073ffffffffffffffffffffffffffffffffffffffff168473ffffffffffffffffffffffffffffffffffffffff168273ffffffffffffffffffffffffffffffffffffffff167f4a39dc06d4c0dbc64b70af90fd698a233a518aa5d07e595d983b8c0526c8f7fb8686604051808060200180602001838103835285818151815260200191508051906020019060200280838360005b83811015614b9e578082015181840152602081019050614b83565b50505050905001838103825284818151815260200191508051906020019060200280838360005b83811015614be0578082015181840152602081019050614bc5565b5050505090500194505050505060405180910390a450505050565b6060806001604051908082528060200260200182016040528015614c2e5781602001602082028036833780820191505090505b5090508281600081518110614c3f57fe5b60200260200101818152505080915050919050565b614c738473ffffffffffffffffffffffffffffffffffffffff166158cb565b15615042578373ffffffffffffffffffffffffffffffffffffffff1663f23a6e6187878686866040518663ffffffff1660e01b8152600401808673ffffffffffffffffffffffffffffffffffffffff1673ffffffffffffffffffffffffffffffffffffffff1681526020018573ffffffffffffffffffffffffffffffffffffffff1673ffffffffffffffffffffffffffffffffffffffff16815260200184815260200183815260200180602001828103825283818151815260200191508051906020019080838360005b83811015614d58578082015181840152602081019050614d3d565b50505050905090810190601f168015614d855780820380516001836020036101000a031916815260200191505b509650505050505050602060405180830381600087803b158015614da857600080fd5b505af1925050508015614ddc57506040513d6020811015614dc857600080fd5b810190808051906020019092919050505060015b614fa3576000604051905060008152600115614ea55760443d1015614e045760009050614ea5565b60046000803e60005160e01c6308c379a08114614e25576000915050614ea5565b60043d036004833e81513d602482011167ffffffffffffffff82111715614e5157600092505050614ea5565b808301805167ffffffffffffffff811115614e73576000945050505050614ea5565b8060208301013d8601811115614e9157600095505050505050614ea5565b601f19601f82011660405282955050505050505b80614eb05750614f52565b806040517f08c379a00000000000000000000000000000000000000000000000000000000081526004018080602001828103825283818151815260200191508051906020019080838360005b83811015614f17578082015181840152602081019050614efc565b50505050905090810190601f168015614f445780820380516001836020036101000a031916815260200191505b509250505060405180910390fd5b6040517f08c379a00000000000000000000000000000000000000000000000000000000081526004018080602001828103825260348152602001806159516034913960400191505060405180910390fd5b63f23a6e6160e01b7bffffffffffffffffffffffffffffffffffffffffffffffffffffffff1916817bffffffffffffffffffffffffffffffffffffffffffffffffffffffff191614615040576040517f08c379a00000000000000000000000000000000000000000000000000000000081526004018080602001828103825260288152602001806159856028913960400191505060405180910390fd5b505b505050505050565b6000807f30644e72e131a029b85045b68181585d97816a916871ca8d3c208c16d87cfd47905080838409915080828309818182099050818184099250818385099350818484099250818384099050818182098281830990508281820990508281820990508281830991508282860994508285860991508282830991508282850993508284850991508282830991508282830991508282850991508282860994508285860991508282830991508282830991508282860991508282850993508284860994508285860991508282830991508282850993508284850991508282830990508281820990508281820990508281830991508282860994508285850993508284850991508282830991508282830991508282860994508285860991508282830991508282860991508282830991508282830991508282860991508282850993508284850991508282830990508281820990508281830990508281850990508281820990508281820990508281820990508281820990508281830991508282860994508285860991508282860991508282850993508284850991508282850991508282830991508282830990508281830990508281820983818209905083818209905083818209905083818209905083818309915050828183099150828286099450828585099350828485099150828286099450828585099350828486099450828585099350828486099450828586099150828286099150828283099150828285099350828485099150828283099150828286099450828585099350828485099150828285099150828286099450828585099350828486099450828585099350828485099150828283099150828285099150828286099450828586099150828286099150828285099350828486099450828585099350828486099450828585099350828485099150828285099150828283099150828286099450828585099350828485099150828285099150828283099150828286099450828586099150828283099050828182099050828183099050828186099050828182099050828182099050828182099050828182099050828183099150828285099350828486099450828585099350828486099450828586099150828286099150828283099150828283099150828283099150828286099150828285099350828485099150828285099150828283099150828286099450828586099150828286099150828285099350828486099450828586099150828283099150828285099350828486099450828586099150828285099350828486099450828585099350828485099150828285099150828286099450828585099350828485099150828285099150828283099150828283099150828286099450828586099150828283099150828283099150828286099150828285099350828486099450828586099150828286099050828182099050828182099050828183099150828285099350828485099150828286099450828585099350828486099450828585099350828486099450828585099350828485099150828285099050828185099150828283099150828283099150828282099150508181850993508184840992508183850993508184840992508183850993508184850990508181850990508181840992505080828409925080838409925080838409925080838409925080838409925080838409925080838409925080838409925080838409925080838409925080838409925080838409925080838409925080838409925080838409925080838409925080838409925080838409925080838409925080838409925080838409925080838409925080838409925080838409925080838409925080838409925080838409925080838409925080838409925080838409925080838409925080838409925080838409925080838409925080838409925080838409925080838409925080838409925080838409925080838409925080838409925080838409925080838409925080838409925080838409925080838409925080838409925080838409925080838409925080838409925080838409925080838409925080838409925080838409925080838409925080838409925080838409925080838409925080838409925080838409925080838409925080838409925080838409925080838409925080838409925080838409925080838409925080838409925080838409925080838409925080838409925080838409925080838409925080838409925080838409925080838409925080838409925080838409925080838409925080838409925080838409925080838409925080838409925080838409925080838409925080838409925080838409925080838409925080838409925080838409925080838409925080838409925080838409925080838409925080838409925080838409925080838409925080838409925080838409925080838409925080838409925080838409925080838409925080838409925080838409925080838409925080838409925080838409925080838409925080838409925080838409925080838409925080838409925080838409925080838409925080838409925080838409925080838409925080838409925080838409925080838409925080838409925080838409925080838409925080838409925080838409925080838409925080838309915050919050565b600080831182906158b1576040517f08c379a00000000000000000000000000000000000000000000000000000000081526004018080602001828103825283818151815260200191508051906020019080838360005b8381101561587657808201518184015260208101905061585b565b50505050905090810190601f1680156158a35780820380516001836020036101000a031916815260200191505b509250505060405180910390fd5b5060008385816158bd57fe5b049050809150509392505050565b600080823b905060008111915050919050565b82805482825590600052602060002090810192821561591a579160200282015b828111156159195782518255916020019190600101906158fe565b5b509050615927919061592b565b5090565b61594d91905b80821115615949576000816000905550600101615931565b5090565b9056fe455243313135353a207472616e7366657220746f206e6f6e2045524331313535526563656976657220696d706c656d656e746572455243313135353a204552433131353552656365697665722072656a656374656420746f6b656e73726573756c7420666f7220636f6e646974696f6e206e6f7420726563656976656420796574455243313135353a2062616c616e636520717565727920666f7220746865207a65726f2061646472657373455243313135353a2062617463682062616c616e636520717565727920666f7220746865207a65726f2061646472657373636f756c64206e6f74207472616e73666572207061796f757420746f206d6573736167652073656e646572455243313135353a206275726e20616d6f756e7420657863656564732062616c616e6365455243313135353a2063616c6c6572206973206e6f74206f776e6572206e6f7220617070726f766564455243313135353a207472616e7366657220746f20746865207a65726f2061646472657373455243313135353a207472616e736665722063616c6c6572206973206e6f74206f776e6572206e6f7220617070726f766564636f756c64206e6f74207265636569766520636f6c6c61746572616c20746f6b656e73455243313135353a206275726e2066726f6d20746865207a65726f2061646472657373455243313135353a20696e73756666696369656e742062616c616e636520666f72207472616e73666572536166654d6174683a206d756c7469706c69636174696f6e206f766572666c6f7774686572652073686f756c64206265206d6f7265207468616e206f6e65206f7574636f6d6520736c6f74455243313135353a2073657474696e6720617070726f76616c2073746174757320666f722073656c66455243313135353a206163636f756e747320616e6420696473206c656e677468206d69736d61746368455243313135353a2069647320616e6420616d6f756e7473206c656e677468206d69736d61746368455243313135353a206d696e7420746f20746865207a65726f2061646472657373a26469706673582212207093fc6cf9fd86cffabba6ce185a162824d65784099b547e13171b728987d0cc64736f6c63430006040033",
  "linkReferences": {},
  "deployedLinkReferences": {}
}